S00C00006D61696E2E7372656373
S11300000C9446000C9463000C9463000C946300FD
S11300100C9463000C9463000C9463000C946300D0
S11300200C9463000C94C9120C9482120C94630017
S11300300C9478120C9463000C9467120C945E1167
S11300400C94EB100C9463000C9427150C9463002F
S11300500C9431150C94A1000C9463000C9463006F
S11300600C9463000C9463000C9430130C946300A0
S11300700C9463000C94D3120C9489150C946300B3
S11300800C94CB160C9463000C94630011241FBED3
S1130090CFEFD0E1DEBFCDBF14E0A0E0B1E0E6EFEA
S11300A0FEE202C005900D92A838B107D9F726E008
S11300B0A8E8B4E001C01D92AA31B207E1F70E949A
S11300C0FB130C9479170C94000081B3806381BBFB
S11300D082B3806382BBE2E6F0E080818F7180832B
S11300E0E1E6F0E080818F718083089516B880E6A0
S11300F087B980E888B986B1866886B908950E9470
S113010065000E9476000895379897E09A95F1F774
S113011000C097B1907E892B87B987E08A95F1F763
S113012000C086B1806C86B9349BFECF349A97E0C8
S11301309A95F1F700C0379884B125B190E0922BDD
S113014008951F920F920FB60F9211242F938F933D
S11301509F93349A84B190E09093890480938804A7
S113016025B1922B90938904809388043D9B0DC004
S11301700024880F991F001C880F991F001C892FC9
S1130180902D90938904809388049F918F912F914F
S11301900F900FBE0F901F901895B89AC0980895AD
S11301A0C09A882351F090E0EFEFF7ED3197F1F723
S11301B000C000009F5F9813F7CFC09808951FBA3E
S11301C09FEF960F662379F0E42FF52F841BE199B6
S11301D0FECF282F2E0F2EBB21912DBBE29AE19842
S11301E0E19A9150A0F70895E199FECF1FBA9FEFCD
S11301F0960F662359F0E42FF52F841B282F2E0F1A
S11302002EBBE09A2DB321939150C0F7089540EC92
S113021051E062E080E090E00E94DF000895CF9317
S1130220DF93EC01AC0162E080E090E00E94F40016
S1130230CE01DF91CF910895CF93DF9300D000D00A
S1130240CDB7DEB719821A821B821C82CE010196B9
S11302500E940F0160EC71E0CE0101960E945717D5
S11302600F900F900F900F90DF91CF910895AC01F4
S113027062E084E090E00E94DF000895CF93DF9372
S1130280EC01AC0162E084E090E00E94F400CE0155
S1130290DF91CF910895CF93DF9300D0CDB7DEB730
S11302A099838A83AE014F5F5F4F62E088E090E0FC
S11302B00E94DF000F900F90DF91CF910895CF93AC
S11302C0DF9300D000D0CDB7DEB719821A821B822B
S11302D01C82AE014F5F5F4F62E088E090E00E94B5
S11302E0F400898190E0982F88272A81822B0F902F
S11302F00F900F900F90DF91CF910895CF93DF93DC
S113030000D0CDB7DEB799838A83AE014F5F5F4FCC
S113031062E080E190E00E94DF000F900F90DF9197
S1130320CF910895CF93DF9300D000D0CDB7DEB73F
S113033019821A821B821C82AE014F5F5F4F62E0FA
S113034080E190E00E94F400898190E0982F882752
S11303502A81822B0F900F900F900F90DF91CF91F5
S11303600895AC0164E088E190E00E94DF00089504
S1130370CF93DF93EC01AC0164E088E190E00E944C
S1130380F400CE01DF91CF910895AC0164E080E2E6
S113039090E00E94DF000895CF93DF93EC01AC015D
S11303A064E080E290E00E94F400CE01DF91CF91FE
S11303B00895CF93DF9300D000D0CDB7DEB79983F3
S11303C01A828B839C83AE014F5F5F4F62E088E2A9
S11303D090E00E94DF000F900F900F900F90DF913C
S11303E0CF910895CF93DF9300D0CDB7DEB71A82B3
S11303F01982AE014F5F5F4F62E088E290E00E9495
S1130400F400898190E0982F88272A81822B0F900D
S11304100F90DF91CF910895CF93DF9300D0CDB7A4
S1130420DEB71A821982AE014F5F5F4F62E08CE241
S113043090E00E94F400898190E0982F88272A8117
S1130440822B0F900F90DF91CF910895CF93DF937C
S113045000D0CDB7DEB799838A83AE014F5F5F4F7B
S113046062E080E390E00E94DF000F900F90DF9144
S1130470CF910895CF93DF9300D0CDB7DEB71A8222
S11304801982AE014F5F5F4F62E080E390E00E940B
S1130490F400898190E0982F88272A81822B0F907D
S11304A00F90DF91CF9108950F931F93CF93DF9314
S11304B0CDB7DEB728970FB6F894DEBF0FBECDBF19
S11304C08E010F5F1F4F98E0F80111929A95E9F79A
S11304D0682F70E0C8010E948C07A80164E084E3DF
S11304E090E00E94DF0028960FB6F894DEBF0FBE9E
S11304F0CDBFDF91CF911F910F9108950F931F935B
S1130500CF93DF93CDB7DEB728970FB6F894DEBF4D
S11305100FBECDBF8E010F5F1F4F88E0F80111920F
S11305208A95E9F7A80164E084E390E00E94F4006E
S1130530C8010E94391728960FB6F894DEBF0FBE83
S1130540CDBFDF91CF911F910F910895AC0166E06B
S11305508CE390E00E94DF000895CF93DF93EC01D9
S1130560AC0168E08CE390E00E94F400CE01DF91DE
S1130570CF910895AF92BF92CF92DF92EF92FF9204
S11305800F931F93CF93DF938091A50185FF09C03B
S11305902FEF3FE345E6215030404040E1F700C0F3
S11305A0000012E0CDE1D5E004E6EE24EA94FF2455
S11305B0FA94FE01202F11922A95E9F71092A601D0
S11305C01092A50181E891E00E945B152091A5019C
S11305D03091A601C9018A759927892B89F48E2D3A
S11305E09F2D35E23A95F1F72091A5013091A601AE
S11305F0A9014A755527452B19F40197009789F7E6
S113060024FDBBC380918B0486FDB7C380918C0409
S11306108111B3C323FDB1C331FF09C04FEF8FE391
S113062095E6415080409040E1F700C00000809181
S1130630A50181FF09C0EFEFFFE12AE0E150F0409E
S11306402040E1F700C00000115009F488C3B1CF85
S1130650D2983FEF4FE583E0315040408040E1F7CE
S113066000C00000CA9906C080918B048F778093E4
S11306708B0430C0D29ADA989FEFEFE5F3E0915003
S1130680E040F040E1F700C00000929A8091A5019B
S113069085FD85C38D2F9C2FEFEFF7ED3197F1F793
S11306A000C000002091A50125FD79C301970097A2
S11306B099F77CC3FFEF2FEA31E0F150204030403E
S11306C0E1F700C000002091A50126FD03C00197B9
S11306D0009781F710928C0480918B048F7B809318
S11306E08B04A1C3FE01202F11922A95E9F71092E1
S11306F0A6011092A50180E791E00E945B1520916C
S1130700A5013091A601C9018A759927892B89F41D
S11307108E2D9F2D35E23A95F1F72091A501309168
S1130720A601A9014A755527452B19F4019700978D
S113073089F724FD3FC380918B0486FD3BC38091E0
S11307408C04811137C323FD35C331FF09C04FEF3A
S11307508FE395E6415080409040E1F700C00000EF
S11307608091A50181FF09C0EFEFFFE12AE0E1508C
S1130770F0402040E1F700C00000115009F453C3D9
S1130780B1CFFE01202F11922A95E9F71092A6010C
S11307901092A50187E691E00E945B152091A501C6
S11307A03091A601C9018A759927892B89F48E2D68
S11307B09F2D35E23A95F1F72091A5013091A601DC
S11307C0A9014A755527452B19F40197009789F714
S11307D024FD02C380918B0486FDFEC280918C04AB
S11307E08111FAC223FDF8C231FF09C04FEF8FE334
S11307F095E6415080409040E1F700C000008091B0
S1130800A50181FF09C0EFEFFFE12AE0E150F040CC
S11308102040E1F700C00000115009F404C3B1CF37
S11308203FEF4FE583E0315040408040E1F700C0A6
S113083000006894CC24C4F80F2EF3E0DF2EF02DD2
S1130840CDE1D5E014E66894EE24E1F8FF24FA94AF
S11308500FEF7BC29FEFEFEBF6E09150E040F040EA
S1130860E1F700C00000BE2CFE01212F11922A9551
S1130870E9F71092A6011092A50181E891E00E9487
S11308805B152091A5013091A601C9018A759927AC
S1130890892B89F48F2D902F35E23A95F1F7209129
S11308A0A5013091A601A9014A755527452B19F4D4
S11308B00197009789F724FD26C080918B0486FD5B
S11308C022C080918C0481111EC023FD1CC031FF05
S11308D009C04FEF8FE395E6415080409040E1F727
S11308E000C000008091A50181FF09C0EFEFFFE186
S11308F02AE0E150F0402040E1F700C00000BA9443
S113090009F475C2B1CFAD2C09C03FEF4FEB86E0BF
S1130910315040408040E1F700C00000BE2CFE0191
S1130920212F11922A95E9F71092A6011092A501A0
S11309308AE791E00E945B152091A5013091A60100
S1130940C9018A759927892B89F48F2D902F35E257
S11309503A95F1F72091A5013091A601A9014A75B4
S11309605527452B19F40197009789F724FD26C0D4
S113097080918B0486FD22C080918C0481111EC05D
S113098023FD1CC031FF09C04FEF8FE395E64150B2
S113099080409040E1F700C000008091A50181FFF4
S11309A009C0EFEFFFE12AE0E150F0402040E1F719
S11309B000C00000BA9409F41EC2B1CFAD2C09C026
S11309C03FEF4FEB86E0315040408040E1F700C0FC
S11309D00000BE2CFE01212F11922A95E9F71092F6
S11309E0A6011092A50180E791E00E945B15209179
S11309F0A5013091A601C9018A759927892B89F42B
S1130A008F2D902F35E23A95F1F72091A501309181
S1130A10A601A9014A755527452B19F4019700979A
S1130A2089F724FD26C080918B0486FD22C0809125
S1130A308C0481111EC023FD1CC031FF09C04FEF7F
S1130A408FE395E6415080409040E1F700C00000FC
S1130A508091A50181FF09C0EFEFFFE12AE0E15099
S1130A60F0402040E1F700C00000BA9409F4C7C187
S1130A70B1CFAD2C09C03FEF4FEB86E03150404081
S1130A808040E1F700C00000BE2CFE01212F11922E
S1130A902A95E9F71092A6011092A50187E691E044
S1130AA00E945B152091A5013091A601C9018A75A8
S1130AB09927892B89F48F2D902F35E23A95F1F7F8
S1130AC02091A5013091A601A9014A755527452B0E
S1130AD019F40197009789F724FD26C080918B04AF
S1130AE086FD22C080918C0481111EC023FD1CC090
S1130AF031FF09C04FEF8FE395E6415080409040AD
S1130B00E1F700C000008091A50181FF09C0EFEF6B
S1130B10FFE12AE0E150F0402040E1F700C000008E
S1130B20BA9409F470C1B1CFAD2C09C03FEF4FEDB9
S1130B3080E1315040408040E1F700C00000BE2C0D
S1130B40FE01212F11922A95E9F71092A601109225
S1130B50A5018AE591E00E945B152091A5013091E1
S1130B60A601C9018A759927892B89F48F2D902FA5
S1130B7035E23A95F1F72091A5013091A601A9013A
S1130B804A755527452B19F40197009789F724FDD9
S1130B9026C080918B0486FD22C080918C04811133
S1130BA01EC023FD1CC031FF09C04FEF8FE395E643
S1130BB0415080409040E1F700C000008091A501C1
S1130BC081FF09C0EFEFFFE12AE0E150F04020404F
S1130BD0E1F700C00000BA9409F419C1B1CFAD2CFB
S1130BE009C03FEF4FEB86E0315040408040E1F7D1
S1130BF000C00000BE2CFE01212F11922A95E9F7B6
S1130C001092A6011092A50182E491E00E945B1566
S1130C102091A5013091A601C9018A759927892BD4
S1130C2089F48F2D902F35E23A95F1F72091A501A3
S1130C303091A601A9014A755527452B19F401974E
S1130C40009789F724FD26C080918B0486FD22C07D
S1130C5080918C0481111EC023FD1CC031FF09C08A
S1130C604FEF8FE395E6415080409040E1F700C09C
S1130C7000008091A50181FF09C0EFEFFFE12AE0A8
S1130C80E150F0402040E1F700C00000BA9409F4BC
S1130C90C2C0B1CFAD2C09C03FEF4FEB81E2315060
S1130CA040408040E1F700C00000BE2CFE01212F2F
S1130CB011922A95E9F71092A6011092A50183E3F7
S1130CC091E00E945B152091A5013091A601C90114
S1130CD08A759927892B89F48F2D902F35E23A95BF
S1130CE0F1F72091A5013091A601A9014A75552774
S1130CF0452B19F40197009789F724FD26C08091AC
S1130D008B0486FD22C080918C0481111EC023FDBA
S1130D101CC031FF09C04FEF8FE395E6415080407E
S1130D209040E1F700C000008091A50181FF09C057
S1130D30EFEFFFE12AE0E150F0402040E1F700C08E
S1130D400000BA9409F46BC0B1CF80918B0488235E
S1130D500CF469C0CA9409F466C0AD2C84CDD39A4E
S1130D60DB9A3FEF4FE583E0315040408040E1F7AC
S1130D7000C00000D6E9C0E06BCC9FEFEFEAF1E0E1
S1130D809150E040F040E1F700C0000012E0CDE1F6
S1130D90D5E004E6EE24EA94FF24FA94A3CC8091EF
S1130DA0A50186FD97CC84EF91E084CC81E00E947C
S1130DB0D0004ECC2FEF3FEA41E02150304040407C
S1130DC0E1F700C0000012E0CDE1D5E004E6EE2436
S1130DD0EA94FF24FA94D5CC8FEF9BE60197F1F7C0
S1130DE000C0000080918C048823E9F019CDAA94F6
S1130DF009F030CD88CDAA9409F087CDDFCDAA942F
S1130E0009F0DECD36CEAA9409F035CE8DCEAA9463
S1130E1009F08CCEE4CEAA9409F0E3CE3BCFAA9499
S1130E2009F03ACF92CFDF91CF911F910F91FF90AC
S1130E30EF90DF90CF90BF90AF900895FC01DB015D
S1130E4090818C91892780839C9189278C939081B0
S1130E50892780830895EF92FF920F931F93CF9376
S1130E60DF937C0161507109680F791F009781F04D
S1130E708617970768F48B0101501109EC0121963C
S1130E800E941E07C017D10718F4B801CE01F3CF92
S1130E90C701DF91CF911F910F91FF90EF900895BB
S1130EA01F93CF93DF93EC01AB016115710579F1C9
S1130EB010E0FE01E10FF11D9A01ADECBCEC0E94C3
S1130EC008179C01369527953695279536952795CD
S1130ED0C901880F991F220F331F220F331F220FBE
S1130EE0331F280F391FCA01821B930B9C01205DFD
S1130EF020839A010E940817AC0156954795569590
S1130F004795569547951F5F4115510591F6CE01BA
S1130F10DF91CF911F910895CF93DF93EC010E944D
S1130F205007FE0101900020E9F73197BF016C1BC7
S1130F307D0BCE010E942B07CE01DF91CF91089546
S1130F403F924F925F926F927F928F929F92AF9255
S1130F50BF92CF92DF92EF92FF920F931F93CF93A2
S1130F60DF93CDB7DEB765970FB6F894DEBF0FBE3B
S1130F70CDBF8C01B62EA72E7A0180918B048823D5
S1130F800CF003C26894992491F80F2EFDE1CF2E42
S1130F90F5E0DF2EF02D0F2EF4E68F2EF02D6624D3
S1130FA06A9477247A94F601282D11922A95E9F708
S1130FB01092A6011092A50181E891E00E945B15B0
S1130FC0E091A501F091A601CF018A759927892B9B
S1130FD099F4262D372D85E28A95F1F7E091A50144
S1130FE0F091A601CF018A759927892B29F4215004
S1130FF031092115310579F7E4FDCDC180918B04C8
S113100086FDC9C180918C048111C5C1E3FDC3C1B2
S1131010F1FF09C09FEFEFE3F5E69150E040F040A7
S1131020E1F700C000008091A50181FF09C02FEF06
S11310308FE19AE0215080409040E1F700C0000029
S11310409A9409F418C2AFCFF601282D11922A956B
S1131050E9F71092A6011092A5018FEF9FEAE1E053
S113106081509040E040E1F700C000008EE091E044
S11310700E945B158091A5019091A6019C012271AB
S11310803327232B91F4472D8FEF9BE60197F1F73C
S113109000C000008091A5019091A6019C012271DD
S11310A03327232B11F4415079F784FD5FC09FEF60
S11310B0EFE1FAE09150E040F040E1F700C00000B9
S11310C08091A50181FF4FC0342CF601282D119287
S11310D02A95E9F71092A6011092A50180E091E00B
S11310E00E945B152091A5013091A601C9018A7562
S11310F09927892B89F4852D962DE5E2EA95F1F758
S11311002091A5013091A601A9014A755527452BC7
S113111019F40197009789F724FD25C080918B0469
S113112086FD21C080918C0481111DC023FD1BC04C
S113113031FF09C0FFEF2FE385E6F15020408040E6
S1131140E1F700C000008091A50181FF09C09FEF75
S1131150EFE1FAE09150E040F040E1F700C0000018
S11311603A9409F0B2CF9A9409F06ECF8091A50118
S113117087FD31C180E2EFEFFBE63197F1F700C064
S113118000009091A50197FD26C18150A1F773C17C
S1131190F601282D11922A95E9F71092A6011092D2
S11311A0A501CE0101960E945B152091A501309105
S11311B0A601C9018A759927892B89F4862D972D53
S11311C0E5E2EA95F1F72091A5013091A601A90184
S11311D04A755527452B19F40197009789F724FD83
S11311E025C080918B0486FD21C080918C048111DF
S11311F01DC023FD1BC031FF09C0FFEF2FE385E6AF
S1131200F15020408040E1F700C000008091A5012A
S113121081FF09C09FEFEFE1FAE09150E040F04018
S1131220E1F700C00000AA9409F0B2CF6B2DC80109
S11312300E9470158091A50182FD11C0852DEFEFEC
S1131240FBE63197F1F700C000009091A50192FDF3
S113125006C08150A1F79A9411F0A42C99CF188A52
S1131260198A1A8A1B8A22E045E255E060E0CE0121
S113127040960E94230FCE0140960E9439178C019C
S1131280782E282F48E255E060E0C7010E94230F22
S1131290FFEF2FE18AE0F15020408040E1F700C0E9
S11312A000006894BB24B1F80F2EFDE1CF2EF5E0C9
S11312B0DF2EF02D0F2EF4E68F2EF02D99249A9424
S11312C0AA24AA94F601282D11922A95E9F71092DE
S11312D0A6011092A50180E091E00E945B15409167
S11312E0A5015091A601CA018A759927892B99F401
S11312F0292D3A2D85E28A95F1F74091A501509167
S1131300A601CA018A759927892B29F4215031092C
S11313102115310579F744FD25C080918B0486FDA4
S113132021C080918C0481111DC043FD1BC051FF5D
S113133009C09FEFEFE3F5E69150E040F040E1F79C
S113134000C000008091A50181FF09C02FEF8FE14B
S11313509AE0215080409040E1F700C00000BA9428
S113136009F0B0CFE4E1E71590F4A8015527445003
S1131370510960E070E0C7010E94040F892B49F015
S113138088EE0E94D00080E080C080E07EC0802F84
S11313907CC0802F7AC0FFEF2FEB86E0F150204015
S11313A08040E1F700C000006894992491F80F2E62
S11313B0FDE1CF2EF5E0DF2EF02D0F2EF4E68F2E7B
S11313C0F02D77247A946894442441F855245A944F
S11313D066246A9439CE8AE00E94D0009FEFEFE140
S11313E0FAE09150E040F040E1F700C000008CE0EA
S11313F0E7EAF1E0DE01119601900D928A95E1F79A
S11314001D861E861F861D8A1C8A6B2D7A2DCE0191
S113141044960E94500762E070E0CE0144960E9418
S11314202B0722E0AE014C5E5F4F6BE0CE010196CC
S11314300E94230F22E045E854E06DE0CE010196BE
S11314400E94230F6894992491F86894442441F8E5
S11314500F2EFDE1CF2EF5E0DF2EF02D0F2EF4E65A
S11314608F2EF02D66246A9477247A940F2EF8EE4A
S11314705F2EF02DF2CE2FEF8FE19AE021508040C5
S11314809040E1F700C0000080E065960FB6F89444
S1131490DEBF0FBECDBFDF91CF911F910F91FF90A3
S11314A0EF90DF90CF90BF90AF909F908F907F9000
S11314B06F905F904F903F900895D89AD99A85E2A3
S11314C08A95F1F7D89885E28A95F1F7D99885E25B
S11314D08A95F1F70895D898D99A85E28A95F1F713
S11314E0D89A85E28A95F1F7D99885E28A95F1F739
S11314F00895D898D99824E02A95F1F798E0D998D6
S113150080FD02C0D89801C0D89A24E02A95F1F74A
S1131510D99A8695915099F7D998D8980895CF93E8
S1131520DF93D82FD89AD99A0E945D0A84E08A95CD
S1131530F1F780EC0E94790AC2E1D89AD99ADD23A6
S113154021F08FEF0E94790A03C080E00E94790A9B
S1131550C15099F70E946B0ADF91CF9108950F93C0
S11315601F93CF93DF93D89AD99A0E945D0A84E09F
S11315708A95F1F780EC0E94790AC0ECD4E002ED80
S113158014E0D89AD99A89910E94790AC017D10790
S1131590C1F70E946B0ADF91CF911F910F910895BB
S11315A0D89AD99A0E945D0A84E08A95F1F787E374
S11315B00E94790A0E946B0A0895CF93DF93D82F73
S11315C0C62FD89AD99A0E945D0A8FEF9BE601979D
S11315D0F1F700C0000080EC8D0F0E94790AD89AC0
S11315E0D99A8FEF9BE60197F1F700C000008C2F8A
S11315F00E94790A0E946B0ADF91CF91089580912D
S11316008B04882334F4E1ECF4E0808181608083EE
S11316100895E1ECF4E080818E7F808308958091C9
S11316208B0484FF06C0EEECF4E08081806180834B
S11316300895EEECF4E080818F7E8083089580919C
S11316408B0485FF06C0EDECF4E08081806180832B
S11316500895EDECF4E080818F7E8083089580917D
S11316608B0483FF06C0EAECF4E080818061808310
S11316700895EAECF4E080818F7E80830895809160
S11316808B0482FF06C0E1EDF4E0808180618083F9
S11316900895E1EDF4E080818F7E80830895809148
S11316A08B0481FF06C0E8ECF4E0808181608083D4
S11316B00895E8ECF4E080818E7F80830895809122
S11316C08B0480FF06C0E0ECF4E0808181608083BD
S11316D00895E0ECF4E080818E7F8083089580910A
S11316E08B04882334F4E9ECF4E080818160808306
S11316F00895E9ECF4E080818E7F808308958091E1
S11317008B04882324F010928C0480E00CC0809118
S11317108C04882341F0E2ECF4E0908191609083A2
S1131720893038F40CC0E2ECF4E090819E7F908321
S113173006C0E3ECF4E090819160908305C0E3EC93
S1131740F4E090819E7F9083813130F0E4ECF4E00A
S113175090819160908305C0E4ECF4E090819E7FD9
S11317609083893130F0E5ECF4E0808181608083FE
S11317700895E5ECF4E080818E7F808308950E94D3
S1131780FF0A0E940F0B0E945F0B0E944F0B0E94E6
S11317903F0B0E941F0B0E942F0B0E946F0B08959A
S11317A0FF920F931F93CF93DF93C82F062FF42E2E
S11317B0152FD89AD99A0E945D0A84E08A95F1F788
S11317C080EC8C0F0E94790A002359F0CF2DD12F81
S11317D010E0D89AD99A89910E94790A1F5F101350
S11317E0F8CF0E946B0ADF91CF911F910F91FF9068
S11317F0089580918A04823081F128F4882359F075
S11318008130D1F06CC0843009F448C0B8F185301F
S113181009F455C064C0E0EDF4E060816F7E60833C
S113182080E10E94DD0AECECF4E060816061608399
S11318308CE00E94DD0A53C0EBECF4E0808180610F
S11318408083ECECF4E080818F7E80834BEC54E069
S113185062E08BE00E94D00B42C0EBECF4E06081CC
S11318606F7E60838BE00E94DD0AE7ECF4E0608128
S11318706160608387E00E94DD0A31C0E7ECF4E038
S113188080818E7F8083E6ECF4E0808181608083B8
S1131890AF0162E086E00E94D00B21C0E6ECF4E0E8
S11318A060816E7F608386E00E94DD0AEFECF4E0E5
S11318B06081606160838FE00E94DD0A10C0EFECFC
S11318C0F4E080818F7E8083E0EDF4E080818061AC
S11318D080834FEC54E062E08FE00E94D00B809153
S11318E08A048F5F863018F480938A0408951092D6
S11318F08A040895FC01DC010D900020E9F711979A
S1131900A81BA63008F0A5E0A23079F028F4AA2399
S113191041F0A13041F00FC0A33049F0A43049F0A8
S11319200AC01092C0041092C1041092C204109212
S1131930C3041092C404A330C1F028F4A13019F1F7
S1131940A230D1F00895A43049F0A53019F5A4814E
S1131950B0E0AA5ABE4F8C918093C404A381B0E036
S1131960AA5ABE4F8C918093C304A281B0E0AA5AB4
S1131970BE4F8C918093C204A181B0E0AA5ABE4F9D
S11319808C918093C104E081F0E0EA5AFE4F80819B
S11319908093C0040895CF93DF93FC01019000204D
S11319A0E9F73197E81BE63008F0E5E0E23079F03A
S11319B028F4EE2341F0E13041F00FC0E33049F068
S11319C0E43049F00AC01092C9041092C80410927D
S11319D0C7041092C6041092C504E330E9F028F459
S11319E0E13081F1E23019F138C0E43051F0E530F2
S11319F0A1F5EC01A881B0E0AA5ABE4F2C91209326
S1131A00C504DC01AE0FB11D1497AC91B0E0AA5A25
S1131A10BE4F2C912093C604DC01AE0FB11D139769
S1131A20AC91B0E0AA5ABE4F2C912093C704DC01BC
S1131A30AE0FB11D1297AC91B0E0AA5ABE4F2C91D3
S1131A402093C8048E0F911DFC013197E081F0E0D2
S1131A50EA5AFE4F80818093C904DF91CF910895A3
S1131A608AB383608ABB8BB383608BBB84B38E6081
S1131A7084BB8BB38E608BBB0E94D00A2FEF8FEB9D
S1131A8096E0215080409040E1F700C000001A9A8F
S1131A9081E00E948F0A2FEF8FEB91E2215080406A
S1131AA09040E1F700C0000080EE93E00E94CB0C70
S1131AB00E94AF0A0895CF93DF93FC0101900020A8
S1131AC0E9F73197E81BE53008F0E4E0E13041F054
S1131AD028F0E23039F0E33039F008C01092CA043B
S1131AE01092CB041092CC041092CD04E230D9F0C1
S1131AF018F4E13019F12DC0E33051F0E43049F528
S1131B00EC01A881B0E0A05ABE4F2C912093CD04E3
S1131B10DC01AE0FB11D1397AC91B0E0A05ABE4FDB
S1131B202C912093CC04DC01AE0FB11D1297AC9123
S1131B30B0E0A05ABE4F2C912093CB048E0F911D80
S1131B40FC013197E081F0E0E05AFE4F8081809300
S1131B50CA04DF91CF910895FC01DC010D900020AF
S1131B60E9F71197A81BA53008F0A4E0A13041F0D3
S1131B7028F0A23039F0A33039F008C01092D10413
S1131B801092D0041092CF041092CE04A230B1F07F
S1131B9018F4A130D1F00895A33049F0A430E1F451
S1131BA0A381B0E0A05ABE4F8C918093CE04A28151
S1131BB0B0E0A05ABE4F8C918093CF04A181B0E0D5
S1131BC0A05ABE4F8C918093D004E081F0E0E05A9B
S1131BD0FE4F80818093D1040895CF93DF93CDB7D6
S1131BE0DEB728970FB6F894DEBF0FBECDBFFE0157
S1131BF0319628E0DF011D922A95E9F7009749F014
S1131C00BC01CF010E948C07CE0101960E947A0C80
S1131C1004C086E294E00E947A0C28960FB6F894E9
S1131C20DEBF0FBECDBFDF91CF910895CF93DF9379
S1131C30CDB7DEB728970FB6F894DEBF0FBECDBF81
S1131C40FE01319628E0DF011D922A95E9F70097FD
S1131C5049F0BC01CF010E948C07CE0101960E947D
S1131C60CB0C04C086E294E00E94CB0C28960FB6FD
S1131C70F894DEBF0FBECDBFDF91CF910895CF930F
S1131C80DF93EC010E94AF10BC01CE010E948C07CF
S1131C908881811105C086E294E00E94CB0C03C0C8
S1131CA0CE010E94CB0CDF91CF910895CF92DF92A9
S1131CB0EF92FF920F931F93CF93DF93EC0186E093
S1131CC090E00E948400AC01662757FD6095762F52
S1131CD000E010E021E030E068017901C41AD50A7F
S1131CE0E60AF70AC701B60128EC30E040E050E00C
S1131CF00E94E916B901CE010E948C0788818823CD
S1131D0019F0CE010E945B0DDF91CF911F910F91CD
S1131D10FF90EF90DF90CF900895CF92DF92EF92F3
S1131D20FF920F931F93CF93DF93EC0187E090E032
S1131D300E948400AC01662757FD6095762F00E071
S1131D4010E021E030E068017901C41AD50AE60AFE
S1131D50F70AC701B60128EC30E040E050E00E94E9
S1131D60E916B901CE010E948C078881882319F0F5
S1131D70CE010E94AC0DDF91CF911F910F91FF9086
S1131D80EF90DF90CF900895A09AA89A0895C298F2
S1131D9083B18F7383B988B38F7388BB87B38F7311
S1131DA087BBBA9AC29882B1806C82B983B18F73AF
S1131DB083B908951F9AC29A0895C2981F980895E6
S1131DC01E9A0E94DA0E08950E94DD0E1E98089550
S1131DD04423B9F0FC01E60FF11D50E080E090E0EF
S1131DE0A191382F2227A927B0E0AA0FBB1FA35225
S1131DF0BE4F8D919C91822793275F5F5413F0CF40
S1131E00089580E090E008950F931F93CF93DF939C
S1131E10EC018881882381F0042F10E0CE010E9418
S1131E20E80EC00FD11F298130E0322F22274881CC
S1131E30242B8227932702C081E090E0DF91CF9189
S1131E401F910F910895222361F0742FDC01A60FD6
S1131E50B11DE42FF52F31913D933E2F371B3217DF
S1131E60D0F308958F929F92AF92BF92CF92DF9258
S1131E70EF92FF920F931F93CF93DF9300D000D084
S1131E80CDB7DEB78C015B016A01922E6894882479
S1131E9084F8820E8A82E22EF12C80E1E80EF11C95
S1131EA0F98224E048EE53E060E0C8010E94230F69
S1131EB022E0AE014F5F5F4F64E0C8010E94230F30
S1131EC028E04DED53E066E0C8010E94230F22E0B4
S1131ED0A5016EE0C8010E94230F292DA60160E12F
S1131EE0C8010E94230FA70160E070E0C8010E94AE
S1131EF0E80E8B839C8322E0AE014D5F5F4F682D1B
S1131F00C8010E94230F62E1690D22E046EE53E00E
S1131F10C8010E94230FC8010F900F900F900F90DB
S1131F20DF91CF911F910F91FF90EF90DF90CF90B1
S1131F30BF90AF909F908F900895DF92EF92FF92A1
S1131F400F931F93CF93DF93CDB7DEB7C456D10958
S1131F500FB6F894DEBF0FBECDBFD42E79018E012B
S1131F600F5F1F4F24E6F80111922A95E9F7242FF9
S1131F70AB01BC01C8010E94320F6D2D70E06C5E94
S1131F807F4FA701C8010E94A007CC59DF4F0FB6AD
S1131F90F894DEBF0FBECDBFDF91CF911F910F919B
S1131FA0FF90EF90DF900895FF920F931F93CF93CC
S1131FB0DF93CDB7DEB7C456D1090FB6F894DEBFB0
S1131FC00FBECDBF89019E012F5F3F4F0E949D0F21
S1131FD0853170F00F2EFCEEFF2EF02DF80E2F2D14
S1131FE0AE014F5E5F4F60E0C8010E94230F01C045
S1131FF0F12C8F2DCC59DF4F0FB6F894DEBF0FBEF6
S1132000CDBFDF91CF911F910F91FF900895CF9392
S1132010DF9300D000D000D0CDB7DEB7198229E01D
S11320202A831B821C821D821E829E012D5F3F4FCC
S113203042E0BC01CE0101960E94D40F882339F0FE
S11320408B8190E0982F88272C81822B02C08FEF00
S11320509FEF26960FB6F894DEBF0FBECDBFDF917B
S1132060CF910895CF93DF9300D000D000D0CDB7A7
S1132070DEB7198284E08A831B821C8282E08D830E
S11320808FEF8E839E012A5F3F4F43E0BE016D5F59
S11320907F4FCE0101960E94D40F8E8126960FB6F3
S11320A0F894DEBF0FBECDBFDF91CF910895CF93DB
S11320B0DF9300D000D000D0CDB7DEB780E18983B4
S11320C01A821B821C8284E08D838FEF8E839E0193
S11320D02A5F3F4F43E0BE016F5F7F4FCE010496FE
S11320E00E94D40F8E8126960FB6F894DEBF0FBEE1
S11320F0CDBFDF91CF91089513BE84E982BF85E9F6
S113210081BF83B7876083BF87B7836087BF089524
S1132110969A8E9808951FBC1BBC1ABC19BC18BC97
S113212010927900109278001DBC1CBC8FEF87BD03
S113213086BD87B7846087BF08950E9488100E9477
S11321408B1008951FBC8EB587608EBD08958EB523
S1132150887F8EBD1DBC1CBC1092BB0408958DB538
S11321608CB58CB59DB5089515BC88E284BD8FEF00
S113217083BD089585B5856085BD87B7806C87BFAD
S1132180089585B58A7F85BD87B78F7387BF089506
S113219010928B008BEF8093890088EC80938800E9
S11321A00895EAE8F0E0808185608083EDE7F0E05F
S11321B08081846080830895EAE8F0E080818A7FEA
S11321C08083EDE7F0E080818B7F808308958091A8
S11321D08A00877008951F920F920FB60F921124F0
S11321E02F933F934F935F936F937F938F939F931B
S11321F0AF93BF93EF93FF9384E982BF8091BE04B2
S11322008F5F8A3118F48093BE0447C01092BE04D5
S113221095B380E4892785BB80919004882349F095
S11322208091B4049091B50494FD12C00E94F90BFE
S11322300FC086E0809390048091B4049091B5041B
S113224094FD28C00E94BF0B0E947F0B0E94AF0A1E
S1132250809190048150809390049091B6049111E0
S11322601CC081111AC02091BC043091BD0460913E
S1132270A2017091A301C9010E94D516892B19F4FA
S113228081E08093B6042F5F3F4F3093BD042093C9
S1132290BC0403C085E080939004FF91EF91BF914B
S11322A0AF919F918F917F916F915F914F913F91EA
S11322B02F910F900FBE0F901F9018951F920F92A1
S11322C00FB60F9211242F933F934F935F936F9305
S11322D07F938F939F93AF93BF93EF93FF93A895AF
S11322E085E090E00E94840084339E4F30F4809116
S11322F08B04806280938B0405C080918B048F7D56
S113230080938B048091B4049091B50494FF09C028
S11323101A98E2E9F4E080818E7F80830E94E40EC3
S1132320C5C01A9AE2E9F4E08081816080838091DB
S1132330B4049091B50495FF03C00E94E40EB6C0A6
S113234099231CF40E94E40EB1C0B69B08C080918E
S11323508B04806180938B040E94E40EA7C02091BB
S11323608B042F7E20938B042091930422FD0DC0B7
S113237096FF0BC00E94BA108091B4049091B504EA
S11323809F7B9093B5048093B40485B5877041F026
S11323900E94E00EE3E9F4E080818061808386C0DE
S11323A0E3E9F4E080818F7E8083B79B10C082B321
S11323B08F7C82BB8081846080830E94A2100E94F3
S11323C0D1100E94DA0E81E0809391046FC0809155
S11323D09104882309F46AC082B3806382BBE3E971
S11323E0F4E080818B7F80830E94DD0E0E94AF1019
S11323F04091AC045091AD04480F591F5093AF0461
S11324004093AE049A01ADECBCEC0E94081796957B
S1132410879596958795969587952091B0043091E8
S1132420B104280F391F3093B1042093B0049C01E8
S1132430220F331F880F991F880F991F880F991F28
S1132440820F931F481B590B5093AD044093AC0467
S11324500E94A7100E94DC102091B7043091B804A8
S11324608091B2049091B304820F931F9093B304AC
S11324708093B2041092B8041092B7042091A00182
S11324803091A101220F331F2817390768F41092E5
S1132490B3041092B2048091B4049091B504906492
S11324A09093B5048093B40410929104FF91EF913A
S11324B0BF91AF919F918F917F916F915F914F9158
S11324C03F912F910F900FBE0F901F9018951F9260
S11324D00F920FB60F9211248F938091BB048F5FDC
S11324E08093BB048F910F900FBE0F901F9018958F
S11324F01F920F920FB60F9211240F900FBE0F90E0
S11325001F9018951F920F920FB60F9211242F93BC
S11325103F934F935F936F937F938F939F93AF9367
S1132520BF93EF93FF9388E284BD80918E049091D2
S11325308F04019690938F0480938E042091A401BC
S113254042E3249F900111242817390788F410923C
S11325508F0410928E040E94E40E0E94C110809198
S1132560B9049091BA0401969093BA048093B90483
S1132570FF91EF91BF91AF919F918F917F916F9157
S11325805F914F913F912F910F900FBE0F901F902D
S113259018951F920F920FB60F9211240F900FBE31
S11325A00F901F9018951F920F920FB60F9211243F
S11325B02F933F934F935F936F937F938F939F9347
S11325C0AF93BF93EF93FF938BEF8093890088ECD5
S11325D08093880080918D048F5F863018F48093F7
S11325E08D040BC010928D048091B7049091B804AF
S11325F001969093B8048093B70488E0EEE9F4E080
S1132600DF011D928A95E9F710929A0410929B04B7
S113261010929C0410929D041092960410929704B8
S11326201092980410929904CF010E943F0E8AE9F7
S113263094E00E94560E86E994E00E948D0EFF916C
S1132640EF91BF91AF919F918F917F916F915F9126
S11326504F913F912F910F900FBE0F901F9018959F
S11326601F920F920FB60F9211240F900FBE0F906E
S11326701F901895F8940E94C70E0E94300D0E9476
S11326809D100E94B4100E94C8100E947F000E94F6
S11326903B150E940F150E94C40E0E94CD000E949B
S11326A07C100E94BA102DE088E190E00FB6F894F7
S11326B0A89581BD0FBE21BD789408959F92AF92D5
S11326C0BF92CF92DF92EF92FF920F931F93CF931B
S11326D0DF93CDB7DEB728970FB6F894DEBF0FBEF1
S11326E0CDBF7C016B015A012FEF8FE19AE021509D
S11326F080409040E1F700C00000D7011D921C9279
S1132700FE01319688E0DF011D928A95E9F70E9467
S11327101C01892B09F452C00E945F010E94ED0D37
S11327200E9492019093B1048093B0040E94160E0B
S11327306894992493F88E010F5F1F4FF801292D97
S113274011922A95E9F7C8010E94B801C8010E94B4
S1132750AC0DD801E92D1D92EA95E9F7C8010E9454
S1132760CC010E945B0DD801E92D1D92EA95E9F791
S1132770C8010E943E0122E0A80160E0C7010E9456
S1132780230FD8011D929A94E9F7C5010E94F20122
S11327900E943A029093AD048093AC0486EA94E0DC
S11327A00E94AD020E947E02F601918380830E9402
S11327B00C029093BA048093B9040BC08AE00E947F
S11327C0D0001092AD041092AC041092B104109297
S11327D0B00428960FB6F894DEBF0FBECDBFDF91CC
S11327E0CF911F910F91FF90EF90DF90CF90BF900A
S11327F0AF909F900895CF93DF93CDB7DEB72D9719
S11328000FB6F894DEBF0FBECDBFA69AAE9A0E9453
S11328103A13FE0131968DE0DF011D928A95E9F7A6
S113282044EB54E062EB74E082E994E00E945E13AE
S11328308FEF9FE09093B5048093B40480918B0450
S11328408F6080938B04312C992493940F2EF2EB98
S11328506F2EF4E07F2EF02D0F2EF6EAEF2EF4E02B
S1132860FF2EF02D0F2EF6E08F2EF02D0F2EF0EB15
S11328704F2EF4E05F2EF02D0F2EF7EAAF2EF4E08A
S1132880BF2EF02D0F2EFBE9CF2EF1E0DF2EF02D21
S11328900DEA14E001C0392C0E94BA0282E994E0E6
S11328A00E9437018091B604882361F185B389259C
S11328B085BBBFEFEFE7F3E4B150E040F040E1F750
S11328C000C00000CE0101960E9407109C01215017
S11328D031092E3F3F4F38F49093B5048093B404EC
S11328E01092B604A89A80918B0484FF0BC08FEFDA
S11328F09FEBA6E081509040A040E1F700C00000AB
S11329000E9432108091B4049091B50494FF04C0E5
S113291080E00E948F0AC0CF95FDBECF99230CF4AE
S1132920BBCF20918B04216020938B049F700E9465
S1132930ED0D8091B4049091B5049F700E944B01F9
S113294080918B0485FF0BC0BFEFEFE1FAE0B1503B
S1132950E040F040E1F700C000000E945710809171
S1132960B4049091B5040E94D90182E994E00E94D4
S113297037010E94E71081118ECF332009F48CCFE8
S11329808091AC049091AD040E9426028091B00421
S11329909091B1040E947E018AE994E00E94C501ED
S11329A086E994E00E94B101D3018C910E94540203
S11329B0F701282D11922A95E9F7D2016C91F501BE
S11329C0C70116014081460F4083DC012C9150E081
S11329D0522B910121503109D9012C9130E0322F31
S11329E02227D1017C91272B241735071CF4DC0105
S11329F01C92108232960296B2E02B0E311CE01724
S1132A00F10701F7C7010E94A6028091B0049091DA
S1132A10B1040E94160E0E940701312C3DCF119A79
S1132A20109883B183B91BB81AB8E5E9F0E01082B5
S1132A301092900085E089B98AB1886D8AB9808145
S1132A408660808308955D9BFECF8CB908951F92A4
S1132A500F920FB60F9211240F900FBE0F901F907C
S1132A6018951F920F920FB60F9211240F900FBE5C
S1132A700F901F9018958B9A8A9882B382BB1092FC
S1132A809B00AAE9B0E01C92EDE9F0E010821092FC
S1132A90980085E0809399008C91886D8C93808157
S1132AA0866080830895EBE9F0E0908195FFFDCF87
S1132AB080939C0008951F93CF93DF93EC0188814A
S1132AC0882351F010E00E9453151F5FFE01E10FAF
S1132AD0F11D80818111F7CFDF91CF911F9108956E
S1132AE01F93CF93DF93662341F0C82FD92F162F5E
S1132AF089910E9453151150D9F7DF91CF911F91FD
S1132B000895EBE9F0E080818823ECF780919C0044
S1132B1008951F920F920FB60F9211242F933F9393
S1132B204F935F936F937F938F939F93AF93BF93D1
S1132B30CF93EF93FF930E948115C82F0E94231512
S1132B409091BF0491110BC0CE3349F42091A5019B
S1132B503091A60128603093A6012093A501E92FA6
S1132B60F0E0E35EFA4FC0839F5F9093BF04892F28
S1132B7090E0FC01E45EFA4F20812A3009F0F9C0AC
S1132B80FC01E35EFA4F10821092BF046CEE73E016
S1132B908DE195E00E945717892B49F08091A5019A
S1132BA09091A60182609093A6018093A50168EF9D
S1132BB073E08DE195E00E945717892B49F08091CD
S1132BC0A5019091A60184609093A6018093A5012C
S1132BD060E674E08DE195E00E945717892B49F077
S1132BE08091A5019091A60180619093A6018093A4
S1132BF0A50180911D05882341F061E074E08DE119
S1132C0095E00E945717892B71F08091A50190914E
S1132C10A60180629093A6018093A50180918B0404
S1132C208F7780938B046DE074E08DE195E00E94D2
S1132C305717892B89F08091A5019091A6019C01D9
S1132C4020643093A6012093A50190FD05C08091D6
S1132C508B048F7780938B046AE174E08DE195E0B7
S1132C600E945717892B29F080918B048F778093CA
S1132C708B0468E274E08DE195E00E945717892B7C
S1132C8029F080918B048F7780938B0467E374E041
S1132C908DE195E00E945717892B71F080918B0488
S1132CA08F7780938B048091A5019091A601926007
S1132CB09093A6018093A50165E474E08DE195E00D
S1132CC00E945717892B79F080918B048068809338
S1132CD08B048091A5019091A601806891609093E6
S1132CE0A6018093A50168E574E08DE195E00E945A
S1132CF05717892B71F080918B04806880938B0423
S1132D008091A5019091A60180689093A60180937B
S1132D10A50163E674E08DE195E00E945717892BC5
S1132D2029F080918B04806480938B046AE674E0BC
S1132D308DE195E00E945717892B71F0909124053D
S1132D40905380912305880F8056282F220F220F3D
S1132D50820F890F80938C0460E774E08DE195E025
S1132D600E945717892B29F080918B0480688093E7
S1132D708B04FF91EF91CF91BF91AF919F918F9170
S1132D807F916F915F914F913F912F910F900FBE63
S1132D900F901F9018951F920F920FB60F92112447
S1132DA00F900FBE0F901F901895AA1BBB1B51E1EB
S1132DB007C0AA1FBB1FA617B70710F0A61BB70BA7
S1132DC0881F991F5A95A9F780959095BC01CD014C
S1132DD00895052E97FB1EF400940E94001757FDDA
S1132DE007D00E94171707FC03D04EF40C94001769
S1132DF050954095309521953F4F4F4F5F4F089523
S1132E0090958095709561957F4F8F4F9F4F089552
S1132E10A29FB001B39FC001A39F700D811D112417
S1132E20911DB29F700D811D1124911D0895A1E281
S1132E301A2EAA1BBB1BFD010DC0AA1FBB1FEE1F30
S1132E40FF1FA217B307E407F50720F0A21BB30B7B
S1132E50E40BF50B661F771F881F991F1A9469F7F7
S1132E6060957095809590959B01AC01BD01CF0153
S1132E700895FC0188279927E89421912032E9F3E9
S1132E80293010F02E30C8F32B3241F02D3239F4B2
S1132E90689404C00E947117820F911D21912053E0
S1132EA02A30C0F31EF4909581959F4F0895FB013D
S1132EB051915523A9F0BF01DC014D9145174111F2
S1132EC0E1F759F4CD010190002049F04D914015EE
S1132ED04111C9F3FB014111EFCF81E090E001976B
S1132EE008957AE0979F902D879F802D910D11244E
S1092EF00895F894FFCFE1
S1132EF641542B434950434C4F53450D0A0041540A
S1132F062B43495053544152543D5443502C31326F
S1132F16302E32342E35382E3130312C373137308D
S1132F260D0A0041542B43474143543D312C310D86
S1132F360A0041542B434744434F4E543D312C49D8
S1132F46502C434D4E45540D0A0041542B434741E2
S1132F5654543D310D0A0041542B4353510D0A007C
S1132F6641542B434349440D0A00415445300D0A4C
S1132F760041540D0A00FA60BCF466D6DE70FEF613
S1132F86AF066D4FC6CBEB0EEFCF0D0C0D200C200C
S1132F9605000A0006010041542B43495053454E8F
S1132FA6443D0000000000000000740074000000AE
S1132FB653410055534152543120496E6974210DD1
S1132FC60A006C636420696E69740D0A00000021AE
S1132FD610422063308440A550C660E770088129FA
S1132FE6914AA16BB18CC1ADD1CEE1EFF131121092
S1132FF60273325222B5529442F772D6623993184A
S1133006837BB35AA3BDD39CC3FFF3DEE36224439D
S11330163420040114E664C774A44485546AA54B99
S1133026B528850995EEE5CFF5ACC58DD553367231
S11330362611163006D776F6669556B4465BB77AE9
S1133046A719973887DFF7FEE79DD7BCC7C448E5BD
S1133056588668A7784008611802282338CCC9ED39
S1133066D98EE9AFF9488969990AA92BB9F55AD4D1
S11330764AB77A966A711A500A333A122AFDDBDC89
S1133086CBBFFB9EEB799B588B3BBB1AABA66C87DD
S11330967CE44CC55C222C033C600C411CAEED8FD9
S11330A6FDECCDCDDD2AAD0BBD688D499D977EB671
S11330B66ED55EF44E133E322E511E700E9FFFBE29
S11330C6EFDDDFFCCF1BBF3AAF599F788F8891A9FC
S11330D681CAB1EBA10CD12DC14EF16FE18010A1D3
S11330E600C230E3200450254046706760B98398D7
S11330F693FBA3DAB33DC31CD37FE35EF3B1029023
S113310612F322D2323542145277625672EAB5CBA2
S1133116A5A89589856EF54FE52CD50DC5E234C372
S113312624A01481046674476424540544DBA7FA76
S1133136B79987B8975FE77EF71DC73CD7D326F2C2
S1133146369106B01657667676154634564CD96DC2
S1133156C90EF92FE9C899E9898AB9ABA944586512
S11331664806782768C018E1088238A3287DCB5C16
S1133176DB3FEB1EFBF98BD89BBBAB9ABB754A5462
S11331865A376A167AF10AD01AB32A923A2EFD0FE2
S1133196ED6CDD4DCDAABD8BADE89DC98D267C07B2
S11331A66C645C454CA23C832CE01CC10C1FEF3EB6
S11331B6FF5DCF7CDF9BAFBABFD98FF89F176E3602
S11331C67E554E745E932EB23ED10EF01E413131C1
S11331D6313131313300FCFFBB6666802B434D45EC
S11331E6204552524F523A002B4349505243563AC5
S11331F60057616974696E67202E2E2E002B434991
S113320645563A205245414459002B434D452045E5
S113321652524F523A3530002B434D4520455252B7
S11332264F523A313438002B434D45204552524FC4
S1133236523A3538002B434945563A20736572761F
S11332466963652C20203100434F4E4E454354207C
S11332564F4B002B434349443A002B4353513A0006
S11332662B43474154543A310048656C6C6F2077C0
S10B32766F726C64210D0A0063
S9030000FC
