S00C00006D61696E2E7372656373
S11300000C9446000C9463000C9463000C946300FD
S11300100C9463000C9463000C9463000C946300D0
S11300200C9463000C947F130C9438130C946300A9
S11300300C942E130C9463000C941D130C94EC116B
S11300400C9472110C9463000C9417160C946300B6
S11300500C9421160C94A1000C9463000C9463007E
S11300600C9463000C9463000C94E8130C946300E8
S11300700C9463000C9489130C9483160C94630001
S11300800C94DF170C9463000C94630011241FBEBE
S1130090CFEFD0E1DEBFCDBF14E0A0E0B1E0ECE9EA
S11300A0F0E302C005900D92AE39B107D9F725E00F
S11300B0AEE9B4E001C01D92A836B207E1F70E9490
S11300C0CE140C944C180C94000081B3806381BB53
S11300D082B3806382BBE2E6F0E080818F7180832B
S11300E0E1E6F0E080818F718083089516B880E4A2
S11300F087B980E888B986B1866886B908950E9470
S113010065000E9476000895379897E09A95F1F774
S113011000C097B1907E892B87B987E08A95F1F763
S113012000C086B1806C86B9349BFECF349A97E0C8
S11301309A95F1F700C0379884B125B190E0922BDD
S113014008951F920F920FB60F9211242F938F933D
S11301509F93349A84B190E090939F0480939E047B
S113016025B1922B90939F0480939E043D9B0DC0D8
S11301700024880F991F001C880F991F001C892FC9
S1130180902D90939F0480939E049F918F912F9123
S11301900F900FBE0F901F901895B89AC0980895AD
S11301A0C09A882351F090E0EFEFF7ED3197F1F723
S11301B000C000009F5F8913F7CFC09808951FBA4D
S11301C0662379F0982FE42FF52F860FE199FECF5F
S11301D09EBB21912DBBE29AE198E19A9F5F98130F
S11301E0F5CF0895E199FECF1FBA662359F0982FF1
S11301F0E42FF52F860F9EBBE09A2DB321939F5FCA
S11302009813F9CF089545EC51E062E080E090E066
S11302100E94DF000895CF93DF93EC01AC0162E00C
S113022080E090E00E94F200CE01DF91CF9108952A
S1130230CF93DF9300D000D0CDB7DEB719821A82F6
S11302401B821C82CE0101960E940B0165EC71E0B9
S1130250CE0101960E942A180F900F900F900F90D4
S1130260DF91CF910895AC0162E084E090E00E94B8
S1130270DF000895CF93DF93EC01AC0162E084E0EA
S113028090E00E94F200CE01DF91CF910895CF93C8
S1130290DF9300D0CDB7DEB799838A83AE014F5F79
S11302A05F4F62E088E090E00E94DF000F900F90C3
S11302B0DF91CF910895CF93DF9300D000D0CDB7D5
S11302C0DEB719821A821B821C82AE014F5F5F4F18
S11302D062E088E090E00E94F200898190E0982F2B
S11302E088272A81822B0F900F900F900F90DF9117
S11302F0CF910895CF93DF9300D0CDB7DEB7998324
S11303008A83AE014F5F5F4F62E080E190E00E941C
S1130310DF000F900F90DF91CF910895CF93DF937B
S113032000D000D0CDB7DEB719821A821B821C829E
S1130330AE014F5F5F4F62E080E190E00E94F20007
S1130340898190E0982F88272A81822B0F900F9023
S11303500F900F90DF91CF910895AC0164E088E194
S113036090E00E94DF000895CF93DF93EC01AC018D
S113037064E088E190E00E94F200CE01DF91CF9129
S11303800895AC0164E080E290E00E94DF000895EB
S1130390CF93DF93EC01AC0164E080E290E00E9433
S11303A0F200CE01DF91CF910895CF93DF93CDB7C3
S11303B0DEB728970FB6F894DEBF0FBECDBFAE01EF
S11303C04F5F5F4F28E0FA0111922A95E9F799836C
S11303D01A828B839C8362E088E290E00E94DF00B3
S11303E028960FB6F894DEBF0FBECDBFDF91CF9134
S11303F00895CF93DF9300D000D0CDB7DEB7198234
S11304001A821B821C82AE014F5F5F4F62E088E25A
S113041090E00E94F200898190E0982F88272A8139
S1130420822B0F900F900F900F90DF91CF91089532
S1130430CF93DF9300D0CDB7DEB71A821982AE0115
S11304404F5F5F4F62E08CE290E00E94F20089818E
S113045090E0982F88272A81822B0F900F90DF91AC
S1130460CF910895CF93DF9300D0CDB7DEB79983B2
S11304708A83AE014F5F5F4F62E080E390E00E94A9
S1130480DF000F900F90DF91CF910895CF93DF930A
S113049000D0CDB7DEB71A821982AE014F5F5F4F2D
S11304A062E080E390E00E94F200898190E0982F5E
S11304B088272A81822B0F900F90DF91CF91089586
S11304C00F931F93CF93DF93CDB7DEB728970FB663
S11304D0F894DEBF0FBECDBF8E010F5F1F4F98E0B3
S11304E0F80111929A95E9F7682F70E0C8010E940B
S11304F0B807A80164E084E390E00E94DF00289636
S11305000FB6F894DEBF0FBECDBFDF91CF911F9120
S11305100F9108950F931F93CF93DF93CDB7DEB759
S113052028970FB6F894DEBF0FBECDBF8E010F5FC4
S11305301F4F88E0F80111928A95E9F7A80164E059
S113054084E390E00E94F200C8010E940C182896EF
S11305500FB6F894DEBF0FBECDBFDF91CF911F91D0
S11305600F910895AC0166E08CE390E00E94DF00F7
S11305700895CF93DF93EC01AC0168E08CE390E045
S11305800E94F200CE01DF91CF910895D39ADB9AB5
S1130590D29AC2980895FF920F931F93CF93DF933B
S11305A0CA9973C48091AA0185FF09C02FEF3FE364
S11305B045E6215030404040E1F700C00000C2E071
S11305C004E015E0D4E6F8012D2F11922A95E9F7FD
S11305D01092AB011092AA0181E891E00E944B169F
S11305E02091AA013091AB01C9018A759927892B01
S11305F089F48FEF9FE038EB3A95F1F700002091F2
S1130600AA013091AB01A9014A755527452B11F474
S1130610019789F724FDE0C38091A10486FDDCC322
S11306208091A2048111D8C323FDD6C34FEF8FED6F
S113063090E1415080409040E1F700C0000080917B
S1130640AA0181FF09C0EFEFFFE12AE0E150F04089
S11306502040E1F700C00000C15009F4CBC3B3CF80
S1130660DA9A3FEF4FEB86E0315040408040E1F7AB
S113067000C00000DA989FEFEFE3F5E69150E04008
S1130680F040E1F700C000008091AA0185FDC5C3D8
S113069086E990E0EFEFF7ED3197F1F700C0000045
S11306A02091AA0125FDB9C30197A1F7B3C3809195
S11306B0AA0186FF07C017C081E00E94D000829B78
S11306C0CFCF11C084EF91E0FFEF2FEA31E0F1507A
S11306D020403040E1F700C000002091AA0126FD2F
S11306E002C0019789F71092A2048091A1048F7B24
S11306F08093A104CAC3F8012D2F11922A95E9F71A
S11307001092AB011092AA0180E791E00E944B166F
S11307102091AA013091AB01C9018A759927892BCF
S113072089F48FEF9FE038EB3A95F1F700002091C0
S1130730AA013091AB01A9014A755527452B11F443
S1130740019789F724FD6CC38091A10486FD68C3D9
S11307508091A204811164C323FD62C34FEF8FED26
S113076090E1415080409040E1F700C0000080914A
S1130770AA0181FF09C0EFEFFFE12AE0E150F04058
S11307802040E1F700C00000C15009F47EC3B3CF9C
S1130790F8012D2F11922A95E9F71092AB011092CE
S11307A0AA0187E691E00E944B162091AA0130919C
S11307B0AB01C9018A759927892B89F48FEF9FE0D2
S11307C038EB3A95F1F700002091AA013091AB0182
S11307D0A9014A755527452B11F4019789F724FD82
S11307E02DC38091A10486FD29C38091A2048111A7
S11307F025C323FD23C34FEF8FED90E1415080408B
S11308009040E1F700C000008091AA0181FF09C077
S1130810EFEFFFE12AE0E150F0402040E1F700C0B3
S11308200000C15009F431C3B3CF3FEF4FE583E07B
S1130830315040408040E1F700C000008091A104A5
S113084088235CF422C39FEFEFE5F3E09150E0408E
S1130850F040E1F700C0000007C00F2EF3E0FF2EC8
S1130860F02D04E015E0D4E6C2E0F8012D2F11923A
S11308702A95E9F71092AB011092AA0181E891E060
S11308800E944B162091AA013091AB01C9018A75CF
S11308909927892B89F48FEF9FE038EB3A95F1F78C
S11308A000002091AA013091AB01A9014A75552796
S11308B0452B11F4019789F724FD24C08091A104EC
S11308C086FD20C08091A20481111CC023FD1AC0A2
S11308D04FEF8FED90E1415080409040E1F700C030
S11308E000008091AA0181FF09C0EFEFFFE12AE037
S11308F0E150F0402040E1F700C00000C15009F48D
S1130900A8C2B3CF0F2EF3E0FF2EF02D04E015E0C4
S1130910D4E609C03FEF4FE583E0315040408040CA
S1130920E1F700C00000C2E0F8012D2F11922A95D2
S1130930E9F71092AB011092AA018AE791E00E94B4
S11309404B162091AA013091AB01C9018A759927F0
S1130950892B89F48FEF9FE038EB3A95F1F700008B
S11309602091AA013091AB01A9014A755527452B65
S113097011F4019789F724FD24C08091A10486FD18
S113098020C08091A20481111CC023FD1AC04FEF26
S11309908FED90E1415080409040E1F700C00000AD
S11309A08091AA0181FF09C0EFEFFFE12AE0E15045
S11309B0F0402040E1F700C00000C15009F44DC2EE
S11309C0B3CF8091AA0184FF05C08091A9018E7FD5
S11309D08093A9010F2EF3E0FF2EF02D04E015E023
S11309E0D4E609C03FEF4FE583E0315040408040FA
S11309F0E1F700C00000C2E0F8012D2F11922A9502
S1130A00E9F71092AB011092AA0180E791E00E94ED
S1130A104B162091AA013091AB01C9018A7599271F
S1130A20892B89F48FEF9FE038EB3A95F1F70000BA
S1130A302091AA013091AB01A9014A755527452B94
S1130A4011F4019789F724FD24C08091A10486FD47
S1130A5020C08091A20481111CC023FD1AC04FEF55
S1130A608FED90E1415080409040E1F700C00000DC
S1130A708091AA0181FF09C0EFEFFFE12AE0E15074
S1130A80F0402040E1F700C00000C15009F4E9C182
S1130A90B3CF0F2EF3E0FF2EF02D04E015E0D4E6E3
S1130AA009C03FEF4FE583E0315040408040E1F71B
S1130AB000C00000C2E0F8012D2F11922A95E9F739
S1130AC01092AB011092AA0187E691E00E944B16A6
S1130AD02091AA013091AB01C9018A759927892B0C
S1130AE089F48FEF9FE038EB3A95F1F700002091FD
S1130AF0AA013091AB01A9014A755527452B11F480
S1130B00019789F724FD24C08091A10486FD20C0AB
S1130B108091A20481111CC023FD1AC04FEF8FEDF8
S1130B2090E1415080409040E1F700C00000809186
S1130B30AA0181FF09C0EFEFFFE12AE0E150F04094
S1130B402040E1F700C00000C15009F48EC1B3CFCA
S1130B508091A90181FD0BC068C03FEF4FE583E0A0
S1130B60315040408040E1F700C0000007C0C3E0BE
S1130B7004E015E00F2EF4E6FF2EF02DD2E0F8018C
S1130B802F2D11922A95E9F71092AB011092AA0128
S1130B908AE591E00E944B162091AA013091AB01A5
S1130BA0C9018A759927892B89F48FEF9FE038EB67
S1130BB03A95F1F700002091AA013091AB01A90107
S1130BC04A755527452B11F4019789F724FD24C054
S1130BD08091A10486FD20C08091A20481111CC0D3
S1130BE023FD1AC04FEF8FED90E1415080409040BB
S1130BF0E1F700C000008091AA0181FF09C0EFEF76
S1130C00FFE12AE0E150F0402040E1F700C000009D
S1130C10D15009F42EC1B3CF8091AA0184FF05C03D
S1130C208091A9018D7F8093A9018091A90182FD02
S1130C300BC02BC13FEF4FED80E13150404080406D
S1130C40E1F700C0000007C0C3E004E015E00F2E88
S1130C50F4E6FF2EF02DD2E0F8012F2D11922A9503
S1130C60E9F71092AB011092AA0182E491E00E948C
S1130C704B162091AA013091AB01C9018A759927BD
S1130C80892B89F48FEF9FE038EB3A95F1F7000058
S1130C902091AA013091AB01A9014A755527452B32
S1130CA011F4019789F724FD24C08091A10486FDE5
S1130CB020C08091A20481111CC023FD1AC04FEFF3
S1130CC08FED90E1415080409040E1F700C000007A
S1130CD08091AA0181FF09C0EFEFFFE12AE0E15012
S1130CE0F0402040E1F700C00000D15009F4C5C035
S1130CF0B3CF8091AA0184FD0BC0C7C03FEF4FED75
S1130D0080E1315040408040E1F700C0000007C05E
S1130D10C3E004E015E00F2EF4E6FF2EF02DD2E040
S1130D20F8012F2D11922A95E9F71092AB01109238
S1130D30AA0183E391E00E944B162091AA0130910D
S1130D40AB01C9018A759927892B89F48FEF9FE03C
S1130D5038EB3A95F1F700002091AA013091AB01EC
S1130D60A9014A755527452B11F4019789F724FDEC
S1130D7024C08091A10486FD20C08091A204811129
S1130D801CC023FD1AC04FEF8FED90E1415080400D
S1130D909040E1F700C000008091AA0181FF09C0E2
S1130DA0EFEFFFE12AE0E150F0402040E1F700C01E
S1130DB00000D15009F465C0B3CF8091AA0184FF2B
S1130DC064C08091A10480688093A1048091A901EA
S1130DD08B7F8093A90159C03FEF4FEA81E03150E6
S1130DE040408040E1F700C00000C2E004E015E0AC
S1130DF0D4E681CC1092AB011092AA019FEFEFE5EB
S1130E00F3E09150E040F040E1F700C00000829B25
S1130E1027CC69CC829950CC66CC829948CC63CCDF
S1130E202FEF3FEA41E0215030404040E1F700C05D
S1130E300000C2E004E015E0D4E6AACC8FEF9BE604
S1130E400197F1F700C000008091A2048823E9F023
S1130E50ECCCFA94F110F7CC55CDFA94F1105ACDAC
S1130E60B0CDFA94F110BECD14CEFA94F11019CE8F
S1130E706FCEC15009F071CECFCEC15009F0DACE99
S1130E8038CFC15009F03ACF98CFDF91CF911F915D
S1130E900F91FF900895FC01DB0190818C919827BC
S1130EA090832C9192279C93808198279083089516
S1130EB0EF92FF920F931F93CF93DF93EC01615056
S1130EC07109680F791F009789F08617970770F4E6
S1130ED08B01015011097C012FEFE21AF20A0E94E2
S1130EE04B07C701B801E016F10690F3CE01DF917C
S1130EF0CF911F910F91FF90EF9008951F93CF937F
S1130F00DF93EC01AB01672B71F110E0FE01E10FFF
S1130F10F11D9A01ADECBCEC0E94FD1796958795E6
S1130F2096958795969587959C01220F331F880F78
S1130F30991F880F991F880F991F820F931F9A0179
S1130F40281B390BC901805D80839A010E94FD171B
S1130F50AC015695479556954795569547951F5F0D
S1130F604115510599F6CE01DF91CF911F91089556
S1130F70CF93DF93EC010E947E07FE0101900020D5
S1130F80E9F73197BF016C1B7D0BCE010E94580716
S1130F90CE01DF91CF9108956F927F928F929F92AD
S1130FA0AF92BF92CF92DF92EF92FF920F931F9373
S1130FB0CF93DF93CDB7DEB765970FB6F894DEBF56
S1130FC00FBECDBF8C019091A10499230CF04FC2A8
S1130FD07A01A72EB62E380102E00F2EF4E0CF2EB0
S1130FE0F5E0DF2EF02D14E6D601E12F1D92EA95EF
S1130FF0E9F71092AB011092AA0180E091E00E94FF
S11310004B168091AA019091AB019C012A7533275C
S1131010232B91F42FEF3FE0F8EBFA95F1F7000062
S11310208091AA019091AB01AC014A755527452BDB
S113103019F42150310981F784FD23C02091A104C2
S113104026FD1FC02091A20421111BC083FD19C0DD
S11310502FEF8FED90E1215080409040E1F700C0E8
S113106000008091AA0181FF09C0AFEFBFE1EAE06F
S1131070A150B040E040E1F700C00000015009F089
S1131080B3CFFFEF2FE18AE0F15020408040E1F739
S113109000C0000002E00F2EF4E0CF2EF5E0DF2EBA
S11310A0F02D14E6D601E12F1D92EA95E9F710928E
S11310B0AB011092AA0181E891E00E944B16E091E5
S11310C0AA01F091AB01CF018A759927892B91F47C
S11310D02FEF3FE0F8EBFA95F1F70000E091AA0159
S11310E0F091AB01CF018A759927892B19F421500E
S11310F0310981F7E4FDC1C18091A10486FDBDC120
S11311008091A2048111B9C1E3FDB7C12FEF8FED26
S113111090E1215080409040E1F700C000008091B0
S1131120AA0181FF09C0AFEFBFE1EAE0A150B040DE
S1131130E040E1F700C00000015009F499C0B2CFCB
S1131140D601E82D1D92EA95E9F71092AB011092B1
S1131150AA01FFEF2FEA81E0F15020408040E1F73F
S113116000C000008EE091E00E944B162091AA017D
S11311703091AB01C90182719927892B91F48FEFCA
S1131180AFEFBBE61197F1F700C000002091AA0170
S11311903091AB01A90142715527452B11F48150BF
S11311A079F724FD86C1BFEFEFE1FAE0B150E040EA
S11311B0F040E1F700C000009A949110C1CF74C1CF
S11311C080E2AFEFBBE61197F1F700C00000909109
S11311D0AA0197FD03C08150A1F74AC08AE00E948A
S11311E0D000BFEFEFE1FAE0B150E040F040E1F7AA
S11311F000C000008CE0ECEAF1E0DE011196019001
S11312000D928A95E1F7FE013D9683E0DF011D9280
S11312108A95E9F71D8A1C8A6B2D7A2DCE01449696
S11312200E947E0762E070E0CE0144960E94580757
S113123022E0AE014C5E5F4F6BE0CE0101960E944E
S11312403D0F22E04AE954E06DE0CE0101960E9490
S11312503D0F0F2EF3E0AF2EF02D0F2EF4E0CF2E26
S1131260F5E0DF2EF02D0F2EF4E69F2EF02D6DC04D
S1131270BFEFEFE1FAE0B150E040F040E1F700C029
S1131280000080E01BC112E0D601E92D1D92EA9511
S1131290E9F71092AB011092AA01CE0101960E94C7
S11312A04B162091AA013091AB01C9018A75992787
S11312B0892B89F48FEF9FE0F8EBFA95F1F70000A2
S11312C02091AA013091AB01A9014A755527452BFC
S11312D011F4019789F724FD23C08091A10486FDB0
S11312E01FC08091A20481111BC023FD19C02FEFE0
S11312F08FED90E1215080409040E1F700C0000064
S11313008091AA0181FF09C0AFEFBFE1EAE0A150DB
S1131310B040E040E1F700C00000115009F0B4CF44
S11313206B2DC3010E9461168091AA0182FD10C039
S113133088EEAFEFBBE61197F1F700C00000909183
S1131340AA0192FD05C08150A1F7AA94A1109BCFD8
S1131350188A198A1A8A1B8A22E04CE055E060E058
S1131360CE0140960E943D0FCE0140960E940C187B
S11313708C01982E282F4FE055E060E0C7010E94B1
S11313803D0F6894BB24B1F80F2EF4E0CF2EF5E0A6
S1131390DF2EF02D0F2EF4E6AF2EF02DF6012A2DC0
S11313A011922A95E9F71092AB011092AA0180E0FC
S11313B091E00E944B164091AA015091AB01CA01E1
S11313C08A759927892B91F42FEF3FE088EB8A9552
S11313D0F1F700004091AA015091AB01CA018A754E
S11313E09927892B19F42150310981F744FD23C031
S11313F08091A10486FD1FC08091A20481111BC0AD
S113140043FD19C09FEFAFEDB0E19150A040B04053
S1131410E1F700C000008091AA0181FF09C0EFEF4D
S1131420FFE12AE0E150F0402040E1F700C0000075
S1131430BA94B110B3CF8FEF9FE1AAE081509040EE
S1131440A040E1F700C00000B4E1B91590F4A80190
S113145055274450510960E070E0C7010E941E0FF7
S1131460892B49F088EE0E94D00080E027C080E0FC
S113147025C0802F23C0802F21C0EFEFFFEB26E093
S1131480E150F0402040E1F700C000006894992446
S113149091F80F2EF4E0CF2EF5E0DF2EF02D0F2E75
S11314A0F4E68F2EF02D4CCE8091AA0187FF88CED2
S11314B095CE8091AA0187FF83CE90CE65960FB614
S11314C0F894DEBF0FBECDBFDF91CF911F910F9176
S11314D0FF90EF90DF90CF90BF90AF909F908F9050
S11314E07F906F900895D89AD99A85E28A95F1F7FA
S11314F0D89885E28A95F1F7D99885E28A95F1F72B
S11315000895D898D99A85E28A95F1F7D89A85E210
S11315108A95F1F7D99885E28A95F1F70895D898D4
S1131520D99824E02A95F1F798E0D99880FD02C073
S1131530D89801C0D89A24E02A95F1F7D99A8695CB
S1131540915099F7D998D8980895CF93DF93D82FCD
S1131550D89AD99A0E94730A84E08A95F1F780ECAC
S11315600E948F0AC2E1D89AD99ADD2321F08FEF25
S11315700E948F0A03C080E00E948F0AC15099F72D
S11315800E94810ADF91CF9108950F931F93CF9307
S1131590DF93D89AD99A0E94730A84E08A95F1F766
S11315A080EC0E948F0AC4EED4E006EF14E0D89ACF
S11315B0D99A89910E948F0AC017D107C1F70E9456
S11315C0810ADF91CF911F910F910895D89AD99AEA
S11315D00E94730A84E08A95F1F787E30E948F0AD8
S11315E00E94810A0895CF93DF93D82FC62FD89AEB
S11315F0D99A0E94730A8FEF9BE60197F1F700C016
S1131600000080EC8D0F0E948F0AD89AD99A8FEF30
S11316109BE60197F1F700C000008C2F0E948F0A0F
S11316200E94810ADF91CF9108958091A1048823BB
S113163034F4E4EEF4E08181816081830895E4EE82
S1131640F4E081818E7F818308958091A10484FFD9
S113165006C0E4EEF4E08685806186870895E4EEB2
S1131660F4E086858F7E868708958091A10485FFA6
S113167006C0E4EEF4E08585806185870895E4EE94
S1131680F4E085858F7E858708958091A10483FF8A
S113169006C0E4EEF4E08285806182870895E4EE7A
S11316A0F4E082858F7E828708958091A10482FF71
S11316B006C0E4EEF4E081898061818B0895E4EE54
S11316C0F4E081898F7E818B08958091A10481FF4C
S11316D006C0E4EEF4E08085816080870895E4EE3E
S11316E0F4E080858E7F808708958091A10480FF37
S11316F006C0E4EEF4E08081816080830895E4EE26
S1131700F4E080818E7F808308958091A1048823F2
S113171034F4E4EEF4E08185816081870895E4EE99
S1131720F4E081858E7F818708958091A1048823C8
S11317301CF01092A2040CC08091A204882341F0F2
S1131740E4EEF4E0928191609283893040F40DC01C
S1131750E4EEF4E082818E7F828380E006C0E4EED2
S1131760F4E093819160938305C0E4EEF4E0938107
S11317709E7F9383813130F0E4EEF4E094819160B4
S1131780948305C0E4EEF4E094819E7F94838931D0
S113179030F0E4EEF4E08581816085830895E4EE21
S11317A0F4E085818E7F858308950E94150B0E9445
S11317B0250B0E94750B0E94650B0E94550B0E941D
S11317C0350B0E94450B0E94850B0895EF92FF9202
S11317D00F931F93CF93DF93C82F162F7A01D89AB4
S11317E0D99A0E94730A84E08A95F1F780EC8C0FF1
S11317F00E948F0A112381F0E7011150012F10E09C
S11318000F5F1F4F0E0D1F1DD89AD99A89910E9400
S11318108F0AC017D107C1F70E94810ADF91CF91C7
S11318201F910F91FF90EF900895CF93DF938091D4
S1131830A004823061F128F4882359F08130C1F08A
S113184061C0843009F441C088F1853009F44CC08A
S113185059C0C4EED4E068896F7E688B80E10E9431
S1131860F30A6C8560616C878CE00E94F30A4AC0BD
S1131870E4EEF4E083858061838784858F7E8487AA
S11318804FEE54E062E08BE00E94E60B3BC0C4EEF6
S1131890D4E06B856F7E6B878BE00E94F30A6F81C7
S11318A061606F8387E00E94F30A2CC0E4EEF4E0E9
S11318B087818E7F87838681816086834AEE54E0A8
S11318C062E086E00E94E60B1DC0C4EED4E06E81A7
S11318D06E7F6E8386E00E94F30A6F8560616F8776
S11318E08FE00E94F30A0EC0E4EEF4E087858F7E59
S11318F0878780898061808B43EF54E062E08FE0CA
S11319000E94E60B8091A0048F5F863018F48093C8
S1131910A00402C01092A004DF91CF910895DC01CD
S1131920FC0101900020E9F73197E81BE63008F04C
S1131930E5E0E23079F028F4EE2341F0E13041F0C3
S11319400FC0E33049F0E43049F00AC01092E404D7
S11319501092E5041092E6041092E7041092E80451
S1131960E330E1F028F4E13059F1E23001F1089577
S1131970E43059F0E53059F51496EC911497F0E001
S1131980EA5AFE4F80818093E8041396EC911397F2
S1131990F0E0EA5AFE4F80818093E7041296EC91BE
S11319A01297F0E0EA5AFE4F80818093E604119684
S11319B0EC911197F0E0EA5AFE4F80818093E504A0
S11319C0EC91F0E0EA5AFE4F80818093E40408959C
S11319D0FC01DC010D900020E9F711979A2F9E1B62
S11319E0963008F095E0923079F028F4992341F08C
S11319F0913041F00FC0933049F0943049F00AC05F
S1131A001092ED041092EC041092EB041092EA048C
S1131A101092E9049330E1F028F4913079F1923096
S1131A2011F10895943049F0953091F5A081B0E01A
S1131A30AA5ABE4F8C918093E904DF01A90FB11D0E
S1131A401497AC91B0E0AA5ABE4F8C918093EA04EB
S1131A50DF01A90FB11D1397AC91B0E0AA5ABE4F94
S1131A608C918093EB04DF01A90FB11D1297AC9107
S1131A70B0E0AA5ABE4F8C918093EC04E90FF11D9B
S1131A803197E081F0E0EA5AFE4F80818093ED04C3
S1131A9008958AB383608ABB8BB383608BBB84B3A2
S1131AA08E6084BB8BB38E608BBB0E94E60A2FEFE3
S1131AB08FEB96E0215080409040E1F700C0000099
S1131AC01A9A81E00E94A50A2FEF8FEB91E2215030
S1131AD080409040E1F700C0000085EE93E00E9452
S1131AE0E80C0E94C50A0895CF93DF93FC0101908E
S1131AF00020E9F73197E81BE53008F0E4E0E13035
S1131B0041F028F0E23039F0E33039F008C01092A7
S1131B10EE041092EF041092F0041092F104E230FB
S1131B20D9F018F4E13019F12DC0E33051F0E4306C
S1131B3049F5EC01A881B0E0A05ABE4F2C91209346
S1131B40F104DC01AE0FB11D1397AC91B0E0A05AC3
S1131B50BE4F2C912093F004DC01AE0FB11D1297FF
S1131B60AC91B0E0A05ABE4F2C912093EF048E0F9D
S1131B70911DFC013197E081F0E0E05AFE4F808135
S1131B808093EE04DF91CF910895DC01FC01019074
S1131B900020E9F73197E81BE53008F0E4E0E13094
S1131BA041F028F0E23039F0E33039F008C0109207
S1131BB0F5041092F4041092F3041092F204E2304B
S1131BC0D1F018F4E13001F10895E33059F0E43034
S1131BD011F51396EC911397F0E0E05AFE4F8081D3
S1131BE08093F2041296EC911297F0E0E05AFE4FC3
S1131BF080818093F3041196EC911197F0E0E05A00
S1131C00FE4F80818093F404EC91F0E0E05AFE4FA3
S1131C1080818093F5040895CF93DF93CDB7DEB729
S1131C2028970FB6F894DEBF0FBECDBFFE013196E4
S1131C3028E0DF011D922A95E9F7009749F0BC01DD
S1131C40CF010E94B807CE0101960E948F0C04C0F8
S1131C5082EF93E00E948F0C28960FB6F894DEBFB3
S1131C600FBECDBFDF91CF910895CF93DF93CDB752
S1131C70DEB728970FB6F894DEBF0FBECDBFFE01C6
S1131C80319628E0DF011D922A95E9F7009749F083
S1131C90BC01CF010E94B807CE0101960E94E80C56
S1131CA004C082EF93E00E94E80C28960FB6F894E3
S1131CB0DEBF0FBECDBFDF91CF910895CF93DF93E9
S1131CC0EC010E943111BC01CE010E94B807888149
S1131CD0811105C082EF93E00E94E80C03C0CE019D
S1131CE00E94E80CDF91CF9108959C0180E094E07C
S1131CF0821B930B43E0E0E0F0E0B9010E94E91796
S1131D00DC01AA0FBB1F880F991F880F991F880F2A
S1131D10991F8A0F9B1FDF01AA0FBB1FEE0FFF1F26
S1131D20EE0FFF1FEE0FFF1FEA0FFB1FE60FF71F5B
S1131D30415019F789EF96E0E89F9001E99F300D33
S1131D40F89F300D11243695279536952795ABE7E6
S1131D50B4E10E94FD17969587959695879596957B
S1131D6087950895CF93DF93EC0186E090E00E947D
S1131D7084000E94750EBC01CE010E94B8078881C0
S1131D80882319F0CE010E94C50DDF91CF910895EB
S1131D90CF93DF93EC0187E090E00E9484000E94DF
S1131DA0750EBC01CE010E94B8078881882319F002
S1131DB0CE010E94740DDF91CF910895A09AA89A44
S1131DC00895C29883B18F7383B988B38F7388BB26
S1131DD087B38F7387BBBA9AC29882B1806C82B979
S1131DE083B18F7383B908951F9AC29A0895C298D4
S1131DF01F9808951E9A0E94F40E08950E94F70EEB
S1131E001E9808954423B9F0DC01A60FB11D20E00B
S1131E1080E090E0ED91782F6627E927F0E0EE0F5F
S1131E20FF1FEE51FE4F80819181862797272F5FF8
S1131E304213F0CF089580E090E008950F931F932C
S1131E40CF93DF93FC012081222381F0EC01042F46
S1131E5010E00E94020FC00FD11F298130E0322F01
S1131E6022274881242B8227932702C081E090E017
S1131E70DF91CF911F910F910895CF93DF93EC01E0
S1131E80222379F0FA01DC01A60FB11D215030E0C4
S1131E902F5F3F4F420F531F91919D93E417F50716
S1131EA0D9F7CE01DF91CF9108958F929F92AF928F
S1131EB0BF92CF92DF92EF92FF920F931F93CF9333
S1131EC0DF9300D000D0CDB7DEB78C014B015A01AF
S1131ED0F22E6894EE24E4F8E20EEA82C22ED12CAB
S1131EE080E1C80ED11CD98224E04DEE53E060E0BD
S1131EF0C8010E943D0F22E0AE014F5F5F4F64E0D6
S1131F00C8010E943D0F28E042EE53E066E0C8019C
S1131F100E943D0F22E0A4016EE0C8010E943D0F23
S1131F202F2DA50160E1C8010E943D0FA60160E0CC
S1131F3070E0C8010E94020F8B839C8322E0AE01F3
S1131F404D5F5F4F6E2DC8010E943D0F62E16F0D22
S1131F5022E04BEE53E0C8010E943D0FC8010F90F0
S1131F600F900F900F90DF91CF911F910F91FF90E1
S1131F70EF90DF90CF90BF90AF909F908F90089597
S1131F808F929F92AF92BF92CF92DF92EF92FF9285
S1131F900F931F93CF93DF9300D0CDB7DEB76C01BF
S1131FA04A0159011A82198222E0AB0160E00E94C1
S1131FB03D0FC4010E940C189983C4010E940C189F
S1131FC08A8322E0AE014F5F5F4F62E0C6010E9448
S1131FD03D0FC5010E940C189983C5010E940C187D
S1131FE08A8322E0AE014F5F5F4F64E0C6010E9426
S1131FF03D0F19830A8322E0AE014F5F5F4F66E015
S1132000C6010E943D0F83E0898321E0AE014F5F4A
S11320105F4F68E0C6010E943D0F26E0A70169E01A
S1132020C6010E943D0F8FE00F900F90DF91CF917A
S11320301F910F91FF90EF90DF90CF90BF90AF90E2
S11320409F908F900895CF92DF92EF92FF921F930B
S1132050CF93DF93CDB7DEB7C456D1090FB6F8944A
S1132060DEBF0FBECDBF142F69019E012F5F3F4F0E
S1132070790124E6F70111922A95E9F7242FAB019F
S1132080BC01C7010E94550F612F70E06C5E7F4F49
S1132090A601C7010E94CC07CC59DF4F0FB6F894B4
S11320A0DEBF0FBECDBFDF91CF911F91FF90EF90A8
S11320B0DF90CF900895EF92FF921F93CF93DF9319
S11320C0CDB7DEB7C456D1090FB6F894DEBF0FBE44
S11320D0CDBF79019E012F5F3F4F0E9423108531B0
S11320E058F01CEE180F212FAE014F5E5F4F60E0D9
S11320F0C7010E943D0F01C010E0812FCC59DF4F72
S11321000FB6F894DEBF0FBECDBFDF91CF911F9104
S1132110FF90EF900895CF93DF9300D000D000D0CC
S1132120CDB7DEB7462F198229E02A831B821C8291
S11321301D821E829E012D5F3F4FBC01CE01019680
S11321400E945B10882339F08B8190E0982F8827B8
S11321502C81822B02C08FEF9FEF26960FB6F89446
S1132160DEBF0FBECDBFDF91CF910895CF93DF9334
S113217000D000D000D0CDB7DEB7198284E08A83C6
S11321801B821C8282E08D838FEF8E839E012A5FE7
S11321903F4F43E0BE016D5F7F4FCE0101960E9429
S11321A05B108E8126960FB6F894DEBF0FBECDBFAE
S11321B0DF91CF910895CF93DF9300D000D000D06A
S11321C0CDB7DEB780E189831A821B821C8284E04A
S11321D08D838FEF8E839E012A5F3F4F43E0BE01C4
S11321E06F5F7F4FCE0104960E945B108E8126960E
S11321F00FB6F894DEBF0FBECDBFDF91CF91089527
S113220013BE84E982BF85E981BF83B7876083BF3A
S113221087B7836087BF0895969A8E9808951FBCE8
S11322201BBC1ABC19BC18BC10927900109278001F
S11322301DBC1CBC8FEF87BD86BD87B7846087BF7C
S113224008950E940C110E940F1108951FBC8EB5B1
S113225087608EBD08958EB5887F8EBD1092DF0491
S113226008958DB58CB58CB59DB5089515BC88E2DF
S113227084BD8FEF83BD089585B5856085BD87B71F
S1132280806C87BF089585B58A7F85BD87B78F73B6
S113229087BF089510928B008BEF8093890088ECA0
S11322A0809388008FEF87BD86BD0895EAE8F0E04B
S11322B0808185608083EDE7F0E0808184608083A5
S11322C00895EAE8F0E080818A7F8083EDE7F0E01A
S11322D080818B7F80831DBC1CBC089580918A0003
S11322E0877008951F920F920FB60F9211242F93A7
S11322F03F934F935F936F937F938F939F93AF938A
S1132300BF93EF93FF9384E982BF8091E2048F5FD0
S11323108A3118F48093E2044EC01092E20495B31B
S113232080E4892785BB8091A604882349F08091A5
S1132330D6049091D70494FD19C00E94150C16C0C0
S1132340839905C08091A1048F778093A10486E0CE
S11323508093A6048091D6049091D70494FD28C05C
S11323600E94D50B0E94950B0E94C50A8091A60479
S113237081508093A6049091D80491111CC08111BE
S11323801AC02091E0043091E1046091A30170919E
S1132390A401C9010E94E917892B19F481E08093F3
S11323A0D8042F5F3F4F3093E1042093E00403C02F
S11323B085E08093A604FF91EF91BF91AF919F9127
S11323C08F917F916F915F914F913F912F910F90DA
S11323D00FBE0F901F9018951F920F920FB60F9279
S11323E011242F933F934F935F936F937F938F9316
S11323F09F93AF93BF93EF93FF93A89585E090E0ED
S11324000E948400883C924034F48091A10480624C
S11324108093A10405C08091A1048F7D8093A104C1
S11324208091D6049091D70494FF09C01A98E8EAE1
S1132430F4E080818E7F80830E94FE0EEDC01A9AA4
S1132440E8EAF4E08081816080838091D6049091F1
S1132450D70495FF03C00E94FE0EDEC099231CF42E
S11324600E94FE0ED9C0B69B08C08091A104806171
S11324708093A1040E94FE0ECFC02091A1042F7E60
S11324802093A1042091A90422FD0DC096FF0BC046
S11324900E943C118091D6049091D7049F7B909325
S11324A0D7048093D60485B5877041F00E94FA0E54
S11324B0E8EAF4E0818180618183AEC0E8EAF4E077
S11324C081818F7E8183B79B10C082B38F7C82BB56
S11324D08181846081830E9426110E9456110E948A
S11324E0F40E81E08093A70497C08091A704882309
S11324F009F492C082B3806382BBE8EAF4E081818C
S11325008B7F81830E94F70E0E9431112091C804B1
S11325103091C904820F931F9093CB048093CA0413
S11325206091A7017091A8010E94E9172091CC0441
S11325303091CD04620F731F7093CD046093CC046B
S11325409093C9048093C8040E942B110E946111C6
S11325502091DB043091DC048091C2049091C30487
S1132560820F931F9093C5048093C4046091A501C6
S11325707091A6010E94E9172091C6043091C70406
S1132580620F731F7093C7046093C6049093C304CF
S11325908093C2048091CA049091CB046091A701F6
S11325A07091A8010E94E9177093DA046093D9042A
S11325B08091CC049091CD049093D5048093D4045D
S11325C08091C8049091C9049093D3048093D20459
S11325D08091CE049091CF04680F791F7093CF043B
S11325E06093CE048091A1019091A2018617970770
S11325F068F41092CF041092CE048091D604909186
S1132600D70490649093D7048093D6041092DC048A
S11326101092DB041092A704FF91EF91BF91AF9148
S11326209F918F917F916F915F914F913F912F91E6
S11326300F900FBE0F901F9018951F920F920FB618
S11326400F9211248F938091DF048F5F8093DF04B6
S11326508F910F900FBE0F901F9018951F920F929D
S11326600FB60F9211240F900FBE0F901F90189564
S11326701F920F920FB60F9211242F933F934F93F3
S11326805F936F937F938F939F93AF93BF93EF93D6
S1132690FF9388E284BD8091A4049091A5040196DF
S11326A09093A5048093A4042091A00142E3249F65
S11326B0900111242817390788F41092A504109268
S11326C0A4040E94FE0E0E9443118091DD049091A7
S11326D0DE0401969093DE048093DD04FF91EF9174
S11326E0BF91AF919F918F917F916F915F914F9126
S11326F03F912F910F900FBE0F901F9018951F922E
S11327000F920FB60F9211240F900FBE0F901F90CF
S113271018951F920F920FB60F9211242F933F9387
S11327204F935F936F937F938F939F93AF93BF93D5
S1132730EF93FF938BEF8093890088EC809388005C
S11327408091A3048F5F8093A304863078F095B3BF
S113275081E0892785BB1092A3048091DB049091CA
S1132760DC0401969093DC048093DB0488E0E4EBC2
S1132770F4E0DF011D928A95E9F784E0E0EBF4E0F0
S1132780DF01982F1D929A95E9F7ECEAF4E0DF0156
S11327901D928A95E9F784EB94E00E945E0E80EB2B
S11327A094E00E94B20E8CEA94E00E94C80EFF915D
S11327B0EF91BF91AF919F918F917F916F915F91B5
S11327C04F913F912F910F900FBE0F901F9018952E
S11327D01F920F920FB60F9211240F900FBE0F90FD
S11327E01F901895F8940E94C6020E94E10E0E9460
S11327F0490D0E9421110E9436110E944A110E9423
S11328007F000E942B160E94DE0E0E94CD002FEF47
S11328108FE395E6215080409040E1F700C000002E
S113282080E00E948F0A0E9400110E943C119DE0EA
S113283088E10FB6F894A89581BD0FBE91BD789438
S113284008958F929F92AF92BF92CF92DF92FF92A0
S11328500F931F93CF93DF93CDB7DEB728970FB6AF
S1132860F894DEBF0FBECDBF6C015B014A012FEFB0
S11328708FE19AE0215080409040E1F700C00000D1
S1132880D6011D921C92FE01319688E0DF011D9253
S11328908A95E9F70E941801892B09F452C00E9415
S11328A05B010E940C0E0E948E019093D5048093CC
S11328B0D4040E94350E6894FF24F3F88E010F5F50
S11328C01F4FF8012F2D11922A95E9F7C8010E9494
S11328D0B401C8010E94C50DD801EF2D1D92EA95DF
S11328E0E9F7C8010E94C8010E94740DD801EF2DB8
S11328F01D92EA95E9F7C8010E943A0122E0A80175
S113290060E0C6010E943D0FD8011D92FA94E9F7D8
S1132910C4010E94F9010E9446029093D30480935B
S1132920D2048CEB94E00E94B9020E948A02F50161
S1132930918380830E9418029093DE048093DD04C7
S11329401BC08AE00E94D0001092D3041092D204DB
S11329501092D5041092D40481EF93E00E94C50D27
S113296081EF93E00E94740D82EF93E00E94E80CE3
S113297084EF93E00E948F0C28960FB6F894DEBF84
S11329800FBECDBFDF91CF911F910F91FF90DF90CC
S1132990CF90BF90AF909F908F900895CF93DF9387
S11329A0CDB7DEB72F970FB6F894DEBF0FBECDBFFD
S11329B0A69AAE9A0E94F213FE0131968FE0DF01CF
S11329C01D928A95E9F782E0898380E18A8391E008
S11329D09E83888780E2898746ED54E060ED74E049
S11329E088EA94E00E9421148FEF9FE09093D7042B
S11329F08093D6048091A1048F608093A104512C0C
S1132A000F2EF0ED6F2EF4E07F2EF02D0F2EFCEB49
S1132A10CF2EF4E0DF2EF02D0F2EF6E02F2EF02D2A
S1132A200F2EF4ED8F2EF4E09F2EF02D0F2EF2ECEE
S1132A30AF2EF4E0BF2EF02D412C3324339401C08B
S1132A40532CDA98EFEFFBE63197F1F700C0000062
S1132A5082990AC0FFEF2FE543E0F1502040404047
S1132A60E1F700C00000DA9A0E94CB028091D804FA
S1132A70882309F43FC00E94F9019093D7048093FE
S1132A80D6048FEF9FE7A3E481509040A040E1F784
S1132A9000C000000091D4041091D50476012CEA02
S1132AA034E040EB54E068EA74E0CE0101960E9401
S1132AB0C00F682FCE0101960E948B109C012150FB
S1132AC031092E3F3F4F30F49093D7048093D604BE
S1132AD04092D8048091A10484FF41C0EFEFFFEB42
S1132AE026E0E150F0402040E1F700C000000E94E1
S1132AF0B61035C08091D6049091D70494FF0EC0CF
S1132B00842D0E94A50A8091D6049091D7040E9436
S1132B10D50188EA94E00E94330193CF95FF07C062
S1132B200E94D50188EA94E00E9433018ACF992358
S1132B303CF40E94D50188EA94E00E94330181CFDD
S1132B402091A10421602093A1049F700E940C0E87
S1132B508091D6049091D7049F700E944701809180
S1132B60A10485FF0BC04FEF8FE19AE041508040F4
S1132B709040E1F700C000000E94DB108091D60471
S1132B809091D7040E94D50188EA94E00E94330111
S1132B900E946E11811154CF552009F452CF8091B7
S1132BA0D2049091D3040E9432028091D404909173
S1132BB0D5040E947A0180EB94E00E94C1018CEA62
S1132BC094E00E94AD01D3018C910E946002F60151
S1132BD0222D11922A95E9F7D4014C91ECEBF4E003
S1132BE0AAE9B1E08181840F8183208190E0922B56
S1132BF02C9130E0322F222711965C911197252BCE
S1132C002817390714F41082118232961296EA15A5
S1132C10FB0541F7C6010E94B2028091D404909151
S1132C20D5040E94350E0E940301542C0ACF1F9232
S1132C300F920FB60F9211240F900FBE0F901F909A
S1132C4018951F920F920FB60F9211240F900FBE7A
S1132C500F901F9018958B9A8A9882B382BB10921A
S1132C609B00AAE9B0E01C92EDE9F0E0108210921A
S1132C70980085E0809399008C91886D8C93808175
S1132C80866080830895EBE9F0E0908195FFFDCFA5
S1132C9080939C0008950F931F93CF93FC01808130
S1132CA0882359F08F01C0E00E944316CF5FF801DA
S1132CB0EC0FF11D80818111F7CFCF911F910F91FE
S1132CC008950F931F93CF93DF934FEF460F66231F
S1132CD069F0EC01042F10E00F5F1F4F080F191F5C
S1132CE089910E944316C017D107D1F7DF91CF9184
S1132CF01F910F910895EBE9F0E080818823ECF7B0
S1132D0080919C0008951F920F920FB60F92112488
S1132D102F933F934F935F936F937F938F939F93DF
S1132D20AF93BF93EF93FF930E947B169091E304BC
S1132D3091110BC08E3349F42091AA013091AB015B
S1132D4028603093AB012093AA01E92FF0E0EC5FF7
S1132D50FA4F80839F5F9093E304892F90E0FC01F6
S1132D60ED5FFA4F20812A3009F018C1FC01EC5FB5
S1132D70FA4F10821092E3046AEF73E084E095E066
S1132D800E942A18892B49F08091AA019091AB01E5
S1132D9082609093AB018093AA0166E074E084E0C2
S1132DA095E00E942A18892B49F08091AA019091FC
S1132DB0AB0184609093AB018093AA016EE774E049
S1132DC084E095E00E942A18892B49F08091AA0199
S1132DD09091AB0180619093AB018093AA018091A3
S1132DE00405882341F06FE074E084E095E00E94DC
S1132DF02A18892B89F08091AA019091AB018062F5
S1132E009093AB018093AA018091A1048F77809362
S1132E10A1048FEF8093A9016BE174E084E095E055
S1132E200E942A18892B89F08091AA019091AB0104
S1132E309C0120643093AB012093AA0190FD05C04E
S1132E408091A1048F778093A10468E274E084E008
S1132E5095E00E942A18892B29F08091A1048F778C
S1132E608093A10466E374E084E095E00E942A184C
S1132E70892B29F08091A1048F778093A1046DE3BD
S1132E8074E084E095E00E942A18892B49F080912F
S1132E90AA019091AB0182609093AB018093AA0147
S1132EA06CE474E084E095E00E942A18892B29F0F0
S1132EB08091A10480688093A10465E574E084E0B6
S1132EC095E00E942A18892B71F08091A1048F77D4
S1132ED08093A1048091AA019091AB019260909398
S1132EE0AB018093AA0163E674E084E095E00E945C
S1132EF02A18892B79F08091A10480688093A10419
S1132F008091AA019091AB01806891609093AB018C
S1132F108093AA0166E774E084E095E00E942A1891
S1132F20892B71F08091A10480688093A104809121
S1132F30AA019091AB0180689093AB018093AA01A0
S1132F4061E874E084E095E00E942A18892B29F056
S1132F508091A10480648093A10468E874E084E013
S1132F6095E00E942A18892BC9F0E4E0F5E08681F7
S1132F70880F8056982F990F990F890F9781905336
S1132F80890F8093A204882331F08091A104806882
S1132F908093A10403C08FEF8093A901FF91EF9167
S1132FA0BF91AF919F918F917F916F915F914F915D
S1132FB03F912F910F900FBE0F901F9018951F9265
S1132FC00F920FB60F9211240F900FBE0F901F9007
S1132FD01895AA1BBB1B51E107C0AA1FBB1FA6174C
S1132FE0B70710F0A61BB70B881F991F5A95A9F7AE
S1132FF080959095BC01CD010895A29FB001B39F27
S1133000C001A39F700D811D1124911DB29F700DED
S1133010811D1124911D0895FC0188279927E894A6
S113302021912032E9F3293010F02E30C8F32B32ED
S113303041F02D3239F4689404C00E944418820F80
S1133040911D219120532A30C0F31EF4909581954F
S11330509F4F0895FB0151915523A9F0BF01DC0155
S11330604D9145174111E1F759F4CD01019000202C
S113307049F04D9140154111C9F3FB014111EFCFC6
S113308081E090E0019708957AE0979F902D879FC3
S10F3090802D910D11240895F894FFCFB9
S113309C41542B434950434C4F53450D0A00415462
S11330AC2B43495053544152543D5443502C3132C8
S11330BC302E32342E35382E3130312C37313730E6
S11330CC0D0A0041542B43474143543D312C310DDF
S11330DC0A0041542B434744434F4E543D312C4931
S11330EC502C434D4E45540D0A0041542B4347413B
S11330FC54543D310D0A0041542B4353510D0A00D5
S113310C41542B434349440D0A00415445300D0AA4
S113311C0041540D0A00FA60BCF466D6DE70FEF66B
S113312CAF066D4FC6CBEB0EEFCF0D0C0D200C2064
S113313C0605000A0005001405FF010041542B4349
S113314C495053454E443D000000000000000074FB
S113315C0074000000533700555341525431204938
S113316C6E6974210D0A006C636420696E69740DB8
S113317C0A0000002110422063308440A550C66030
S113318CE770088129914AA16BB18CC1ADD1CEE114
S113319CEFF13112100273325222B5529442F7728B
S11331ACD662399318837BB35AA3BDD39CC3FFF364
S11331BCDEE36224433420040114E664C774A4449B
S11331CC85546AA54BB528850995EEE5CFF5ACC5B4
S11331DC8DD55336722611163006D776F66695566B
S11331ECB4465BB77AA719973887DFF7FEE79DD704
S11331FCBCC7C448E5588668A778400861180228FB
S113320C2338CCC9EDD98EE9AFF9488969990AA953
S113321C2BB9F55AD44AB77A966A711A500A333ACA
S113322C122AFDDBDCCBBFFB9EEB799B588B3BBBA3
S113323C1AABA66C877CE44CC55C222C033C600C5A
S113324C411CAEED8FFDECCDCDDD2AAD0BBD688DF3
S113325C499D977EB66ED55EF44E133E322E511EAA
S113326C700E9FFFBEEFDDDFFCCF1BBF3AAF599F43
S113327C788F8891A981CAB1EBA10CD12DC14EF1E3
S113328C6FE18010A100C230E32004502540467049
S113329C6760B9839893FBA3DAB33DC31CD37FE374
S11332AC5EF3B1029012F322D23235421452776299
S11332BC5672EAB5CBA5A89589856EF54FE52CD544
S11332CC0DC5E234C324A0148104667447642454E9
S11332DC0544DBA7FAB79987B8975FE77EF71DC754
S11332EC3CD7D326F2369106B01657667676154639
S11332FC34564CD96DC90EF92FE9C899E9898AB9A4
S113330CABA94458654806782768C018E108823888
S113331CA3287DCB5CDB3FEB1EFBF98BD89BBBABB3
S113332C9ABB754A545A376A167AF10AD01AB32AD8
S113333C923A2EFD0FED6CDD4DCDAABD8BADE89D03
S113334CC98D267C076C645C454CA23C832CE01C28
S113335CC10C1FEF3EFF5DCF7CDF9BAFBABFD98F93
S113336CF89F176E367E554E745E932EB23ED10E78
S113337CF01E413131313133373800FCFFBB666606
S113338C803030003838383838002B434D452045D0
S113339C52524F523A002B4349505243563A00571B
S11333AC616974696E67202E2E2E002B4349455695
S11333BC3A205245414459002B434D452045525225
S11333CC4F523A3530002B43545A563A002B434D46
S11333DC45204552524F523A313438002B43474121
S11333EC54543A31002B434D45204552524F523AD6
S11333FC3538002B434945563A2073657276696318
S113340C652C20203100434F4E4E454354204F4BE6
S113341C002B434349443A002B4353513A0048652B
S111342C6C6C6F20776F726C64210D0A0000C7
S9030000FC
