:100000000C9446000C9463000C9463000C94630001
:100010000C9463000C9463000C9463000C946300D4
:100020000C9463000C9463000C9463000C946300C4
:100030000C9463000C9463000C9463000C946300B4
:100040000C94EE060C9463000C94D8000C9463009E
:100050000C9463000C9463000C9463000C94630094
:100060000C9463000C9463000C9463000C94630084
:100070000C9463000C9463000C94FD000C946300DA
:100080000C9463000C9463000C94630011241FBE55
:10009000CFEFD0E1DEBFCDBF13E0A0E0B1E0EEEAEC
:1000A000F1E302C005900D92AA3DB107D9F715E022
:1000B000AAEDB3E001C01D92AB3EB107E1F70E948B
:1000C00063090C94D5180C94000081E085BB8FEB7C
:1000D00084BB8EEF82B984EC83B983EF82BB91B38A
:1000E0009B6391BB10926200109261008BBB8FEEFC
:1000F0008ABB8FE387BB84EF88BB83E08093650076
:1001000088E08093640008955D9BFECF8CB90895CC
:10011000EBE9F0E0908195FFFDCF80939C0008957E
:100120001AB81BB886E08093950085E089B91092D3
:10013000900088E98AB90895EAE9F0E01082109207
:100140009B00ADE9B0E08C9186608C9385E0809354
:10015000990010929800808188698083089516B86C
:1001600080E687B980E888B986B1866886B986B99D
:10017000089597B1907E982B97B9E7EAF1E6319709
:10018000F1F700C00000369A349BFECF349A90E01D
:1001900024B1FC01B196EE0FFF1FEC58FB4F2083FA
:1001A00025B1FC01EE0FFF1FEB54FB4F2083089598
:1001B0001F920F920FB60F9211248F939F93EF937C
:1001C000FF935F9BFECF8091FA039CB1EFE7F5E0D0
:1001D000E80FF11D90838F5F8093FA031092410521
:1001E000853610F01092FA03FF91EF919F918F9155
:1001F0000F900FBE0F901F9018951F920F920FB681
:100200000F9211248F939F93EF93FF93EBE9F0E00C
:1002100080818823ECF78091FB0390919C00E5E3BB
:10022000F4E0E80FF11D90838F5F8093FB03109241
:100230001304853610F01092FB03FF91EF919F910C
:100240008F910F900FBE0F901F9018950F931F93D3
:10025000CF93DF93882379F002E415E0E80121963B
:100260008150C80FD11DF80181918F010E94840037
:100270000C171D07C1F7DF91CF911F910F910895C2
:100280000F931F93CF93DF93882379F00BEB15E047
:10029000E80121968150C80FD11DF80181918F018D
:1002A0000E9484000C171D07C1F7DF91CF911F91A9
:1002B0000F9108950F931F93CF93DF93882379F0C5
:1002C0000BEB15E0E80121968150C80FD11DF80114
:1002D00081918F010E9488000C171D07C1F7DF91E3
:1002E000CF911F910F91089513BE12BE8FEF81BF62
:1002F00087B7816087BF08951FBC1EBC1DBC1CBC96
:100300001BBC1ABC19BC18BC109279001092780062
:100310008FEF87BD86BD089515BC14BC13BC87B78D
:10032000806487BF1092FD030895CF93DF93ABE8FD
:10033000B0E01C92EAE8F0E0108210928900C8E870
:10034000D0E01882198218821092870010928600DD
:100350001092850010928400109283001092820007
:100360008FEF80938100809380001C921082DF9138
:10037000CF910895F8941CBE10926D000E94650004
:100380000E9490000E949C000E94AF0015BE109237
:100390006A001ABE19BE17BE10927D000E94740139
:1003A0000E947C010E948C010E949501789408951E
:1003B000E199FECF9FBB8EBB6DBBE29AE19A089597
:1003C000FA011FBA662391F061509A01260F311D80
:1003D0002F5F3F4FE199FECF8EBB019641914DBB00
:1003E000E29AE198E19AE217F307A1F70895E199FB
:1003F000FECF9FBB8EBBE09A8DB30895FA01E199C1
:10040000FECF1FBA662371F061509F01260F311D88
:100410002F5F3F4F8EBB0196E09A4DB34193E21799
:10042000F307C1F70895AC98000098E0AB9880FD01
:1004300002C0AA9801C0AA9A0000AB9A8695915072
:10044000A9F70895CF93DF93D82FAC9AAA9AAC9AC4
:1004500080E40E941302AC9A80EC0E941302C0E177
:10046000DD2321F08FEF0E94130203C080E00E9481
:100470001302C150A9F7AC9A000087E90E94130249
:10048000AC9ADF91CF9108950F931F93CF93DF9391
:10049000AC9AAA9AAC9A80E40E941302AC9A80ECBF
:1004A0000E941302C4E1D4E08E01005F1F4F8991C6
:1004B0000E941302C017D107D1F7AC9A000087E958
:1004C0000E941302AC9A0000DF91CF911F910F910F
:1004D00008950000AC9AAA9A88E00E941302AC9A90
:1004E000000087E90E941302AC9A00000895CF93A0
:1004F000DF93D82FC62FAC9AAA9AAC9A84E40E94B4
:100500001302AC9A8D2F80540E9413028C2F0E94EC
:100510001302AC9A000087E90E941302AC9ADF91A3
:10052000CF910895C09A882351F090E0E7E8F3E175
:100530003197F1F700C000009F5F9817B9F7C09896
:100540000895CF93DF9382EC93E09093040480931B
:1005500003049C012D5F3F4F8217930790F4FC0129
:10056000C5ECD3E080810E948800E0910304F09103
:1005700004043196F0930404E0930304EC17FD07A0
:1005800088F38FE493EC0197F1F700C0000010921C
:10059000FB0382E8E5E3F4E09081913609F482C13F
:1005A000A7EAB1E61197F1F700C000008150A1F76A
:1005B00087EA91E60197F1F700C0000081E60E940A
:1005C0008800AFE4B3EC1197F1F700C0000010927F
:1005D000FB0384E6E6E3F4E090819F3609F469C109
:1005E000A7EAB1E61197F1F700C000008150A1F72A
:1005F00087EA91E60197F1F700C0000089EB93E0EC
:1006000090930404809303049C01285F3F4F82175A
:10061000930790F4FC01C1ECD3E080810E94880034
:10062000E0910304F09104043196F0930404E09304
:100630000304EC17FD0788F38DE00E9488008AE030
:100640000E94880010923604AFE4B3EC1197F1F7E2
:1006500000C000001092FB0384E6E6E3F4E0908122
:100660009F3609F42DC1A7EAB1E61197F1F700C052
:1006700000008150A1F787EA91E60197F1F700C0E9
:1006800000008CEA93E090930404809303049C019F
:10069000245F3F4F8217930790F4FC01C8EBD3E02F
:1006A00080810E948800E0910304F0910404319657
:1006B000F0930404E0930304EC17FD0788F38DE046
:1006C0000E9488008AE00E94880010923604AFE4FD
:1006D000B3EC1197F1F700C000001092FB0384E621
:1006E000E6E3F4E090819F3609F4F1C0A7EAB1E6B1
:1006F0001197F1F700C000008150A1F78FE39DE052
:10070000A3E081509040A040E1F700C0000083E8E2
:1007100093E090930404809303049C01285D3F4F71
:100720008217930790F4FC01CBEAD3E080810E940A
:100730008800E0910304F09104043196F0930404DE
:10074000E0930304EC17FD0788F38DE00E94880016
:100750008AE00E94880010923604AFE4B3EC11974F
:10076000F1F700C000001092FB0384E6E6E3F4E03A
:1007700090819F3609F4B2C0A7EAB1E61197F1F76C
:1007800000C000008150A1F787EA91E60197F1F7D8
:1007900000C0000086E793E0909304048093030474
:1007A0009C01245F3F4F8217930790F4FC01C2E83D
:1007B000D3E080810E948800E0910304F09104045A
:1007C0003196F0930404E0930304EC17FD0788F3DB
:1007D0008DE00E9488008AE00E9488001092360412
:1007E000AFE4B3EC1197F1F700C000001092FB03E7
:1007F00084E6E6E3F4E090819F3609F476C0A7EA48
:10080000B1E61197F1F700C000008150A1F787EA27
:1008100091E60197F1F700C000008EE693E0909317
:100820000404809303049C01295F3F4F82179307C0
:1008300090F4FC01C5E7D3E080810E948800E0913C
:100840000304F09104043196F0930404E09303044C
:10085000EC17FD0788F38DE00E9488008AE00E9473
:10086000880010923604AFE4B3EC1197F1F700C0A2
:1008700000001092FB0384E6E6E3F4E090819F36EB
:10088000D9F1A7EAB1E61197F1F700C00000815055
:10089000A9F787EA91E60197F1F700C00000DF9120
:1008A000CF910895A7EAB1E61197F1F700C00000D3
:1008B0007FCE87EA91E60197F1F700C0000098CE5D
:1008C000A7EAB1E61197F1F700C00000D4CE87EA9D
:1008D00091E60197F1F700C0000010CFA7EAB1E65A
:1008E0001197F1F700C000004FCF87EA91E601971A
:1008F000F1F700C000008BCFA7EAB1E61197F1F73E
:1009000000C00000C6CF6623E9F0ABEBB5E0AD0157
:100910004F5F5F4F6150460F511D80E090E060E0F7
:1009200071E0ED91382F2227E927F0E0EE0FFF1F4D
:10093000E60FF71F8081918182279327A417B507BF
:1009400081F702C080E090E09093ED048093EC0486
:1009500008959CEA9093BB0523E32093BC05209364
:10096000BD0590E89093BE051092BF059DE0909361
:10097000C00592E49093C10591E39093C2059093D2
:10098000C3059093C4059093C5059093C605209325
:10099000C70596E39093C8051092C90596E1909318
:1009A000CA058093CB0580E061E10E9483048091B9
:1009B000EC048093CC058091ED048093CD058CEF01
:1009C0008093CE058FEF8093CF0585E10E945A0179
:1009D00008958CEA8093BB0593E39093BC059093B4
:1009E000BD0580E88093BE051092BF058DE0809321
:1009F000C00582E48093C10581E38093C2058093A2
:100A0000C3058093C4058093C5058093C605909364
:100A1000C70586E38093C8051092C90586E08093D8
:100A2000CA0580E060E10E9483048091EC04809319
:100A3000CB058091ED048093CC058CEF8093CD05A0
:100A40008FEF8093CE0584E10E945A0108958CEACD
:100A50008093BB0593E39093BC059093BD0580E81C
:100A60008093BE051092BF058DE08093C00582E49F
:100A70008093C10581E38093C2058093C305809371
:100A8000C4058093C5058093C6059093C70586E38A
:100A90008093C8051092C90584E08093CA058091AF
:100AA000960482FF06C08091D80488608093D804A1
:100AB00005C08091D804877F8093D80480917D04FD
:100AC0008093CB0580917E048093CC0580917F0438
:100AD0008093CD0580E063E10E9483048091EC0463
:100AE0008093CE058091ED048093CF058CEF8093A9
:100AF000D0058FEF8093D10587E10E945A0187EAE4
:100B000091E60197F1F700C000000895CF93DF93BD
:100B10008CEA8093BB0593E39093BC059093BD054D
:100B200080E88093BE051092BF058AE18093C005DE
:100B300082E48093C10581E38093C2058093C3055D
:100B40008093C4058093C5058093C6059093C7051F
:100B500086E38093C8051092C90583E08093CA0597
:100B60008091AF048093CB058091B0048093CC0535
:100B70008091B1048093CD058091B2048093CE051D
:100B800086E08093CF05809198048093D005809172
:100B900099048093D10580919A048093D205809125
:100BA0009B048093D30580919C048093D40580910D
:100BB0009D048093D50580919E048093D6058091F5
:100BC0009F048093D7058091A0048093D8058091DD
:100BD000A2048093D905CFEAD4E08091A304809346
:100BE000DA0580E060E20E9483048DAD8093DB052E
:100BF0008EAD8093DC058CEF8093DD058FEF8093C5
:100C0000DE0584E20E945A0187EA91E60197F1F736
:100C100000C0000084E20E944001DF91CF9108955E
:100C20008CEA8093BB0593E39093BC059093BD053C
:100C300080E88093BE051092BF058AE18093C005CD
:100C400082E48093C10581E38093C2058093C3054C
:100C50008093C4058093C5058093C6059093C7050E
:100C600086E38093C8051092C90582E08093CA0587
:100C70008091C1048093CB058091C2048093CC0500
:100C80008091C3048093CD058091C4048093CE05E8
:100C90008091BA048093CF051092D0058091B8045A
:100CA0008093D1051092D2051092D3051092D405ED
:100CB00080E06AE10E9483048091EC048093D50572
:100CC0008091ED048093D6058CEF8093D7058FEF4C
:100CD0008093D8058EE10E945A0187EA91E6019738
:100CE000F1F700C000008EE10E94400108958CEAF7
:100CF0008093BB0593E39093BC059093BD0580E87A
:100D00008093BE051092BF0582E18093C00582E406
:100D10008093C10581E38093C2058093C3058093CE
:100D2000C4058093C5058093C6059093C70586E3E7
:100D30008093C8051092C90581E08093CA0580910F
:100D400094048093CB05809195048093CC0580E03A
:100D500062E10E9483048091EC048093CD05809130
:100D6000ED048093CE058CEF8093CF058FEF8093B9
:100D7000D00586E10E945A018FE39DE0A3E08150F7
:100D80009040A040E1F700C0000008956623F9F00C
:100D9000482F50E0DA01AB5CBB4F4A5C5B4F6150BF
:100DA000460F511D80E090E060E071E0ED91382F3A
:100DB0002227E927F0E0EE0FFF1FE60FF71F8081E3
:100DC000918182279327A417B50781F702C080E09D
:100DD00090E09093EF048093EE0408951F920F9299
:100DE0000FB60F9211242F923F924F925F926F9203
:100DF0007F928F929F92AF92BF92CF92DF92EF92AB
:100E0000FF920F931F932F933F934F935F936F9393
:100E10007F938F939F93AF93BF93EF93FF93CF9362
:100E2000DF9300D000D0CDB7DEB712BE80910A04A8
:100E30008F5F80930A04853178F110920A048091C3
:100E4000E7038F5F8093E703833190F01092E7030D
:100E500095B381E0892785BB8091F4038F5F8093F0
:100E6000F4038E3028F08091F50381608093F503C0
:100E70008CB59DB58F31910578F08091F20280613B
:100E80008093F2028091DC038F5F8093DC03813FCB
:100E900018F080EF8093DC03809113048F5F8093C0
:100EA0001304803108F46CC1109213048091FB0389
:100EB000813108F463C190E00397181619060CF00D
:100EC0005AC100E010E020E00F2EF5E3EF2EF4E031
:100ED000FF2EF02D0F2EF5E1CF2EF4E0DF2EF02DBA
:100EE00046010894811C911C66247724689461F85B
:100EF0006C0C7D1C0F2EF3E04F2E5524F02D4C0C66
:100F00005D1C0F2EF5E92F2EF4E03F2EF02D0F2E55
:100F1000F2EDAF2EF4E0BF2EF02DA5014F5F5F4F35
:100F20005A834983F701E00FF11F80818B3B09F061
:100F300017C1F701E00FF11F8181863609F010C15A
:100F4000F701E00FF11F8281863609F009C1F70130
:100F5000E00FF11F8381803809F002C11092F7037E
:100F60001092F603D6018C9181608C93F4018081FC
:100F700081608083D3018C9181608C93F2018081A8
:100F800081608083D60114968C91149781601496A9
:100F90008C931497F101808188233CF080688083D2
:100FA0008091F20288608093F202C8010596AC013C
:100FB0004E0D5F1D5C834B83822FDA016C910E9482
:100FC000C606EB81FC8180819801280F311DF70155
:100FD000E20FF31FAEEEB4E09C918081981709F008
:100FE000BBC0F701E20FF31F11968C919181891715
:100FF00009F0B2C0F701E00FF11F8785813031F4AD
:101000009091DA0391709093DA0310C0823031F43A
:101010009091DA0392709093DA0310C0833031F428
:101020009091DA0394709093DA030DC0843031F418
:101030008091DA0388708093DA038EC0853019F4CA
:101040001092DD0389C0863009F086C08091F203DA
:1010500084608093F203F701E00FF11F8089982FDD
:1010600091509E3208F078C0833001F1843030F422
:10107000813071F0823009F06FC011C0843109F401
:101080005CC0853109F448C0863009F065C014C0E1
:101090001A9A8091E00381608093E0035DC01A9802
:1010A0008091E00382608093E00356C08091E0036A
:1010B00084608093E00350C098012F5E3F4FEFE7BC
:1010C000F5E0E20FF31F80818150863008F044C0C4
:1010D000F701E20FF31F208130E0C9014196880F2C
:1010E000991F8C589B4FFC011082C901880F991FD2
:1010F0008C589B4FDC0193961C9293972C583B4F36
:10110000F701E00FF11F8489F901818F8091E003DD
:1011100080628093E00320C0F701E00FF11F818916
:101120008A3A11F08B3BC1F4ACE8B4E08C93809127
:10113000E00380688093E0030FC0F701E00FF11F28
:101140008189D5018C938289E981FA81808380919C
:10115000E00380618093E0032091FB031092FB0386
:101160002F5F022F10E08091FB0390E00397081798
:1011700019070CF4D7CE1092FB0302C01092FB03A8
:101180002496DEBFCDBFDF91CF91FF91EF91BF914C
:10119000AF919F918F917F916F915F914F913F910F
:1011A0002F911F910F91FF90EF90DF90CF90BF9004
:1011B000AF909F908F907F906F905F904F903F90F7
:1011C0002F900F900FBE0F901F901895D89AD99A14
:1011D00083E08A95F1F70000D89883E08A95F1F7CB
:1011E0000000D99883E08A95F1F700000895D89817
:1011F000D99A83E08A95F1F70000D89A83E08A951E
:10120000F1F70000D99883E08A95F1F7000008957E
:10121000D898D998000098E0D99880FD02C0D89855
:1012200001C0D89A0000D99A86959150A9F7D9980B
:10123000D8980895CF93DF93D82FD89AD99A0E943F
:10124000E608000080EC0E940809C2E1D89AD99A09
:10125000DD2321F08FEF0E94080903C080E00E9487
:101260000809C15099F70E94F708DF91CF910895BE
:101270000F931F93CF93DF93D89AD99A0E94E608D1
:10128000000080EC0E940809C4E1D4E08E010E5EEB
:101290001F4FD89AD99A89910E940809C017D1077F
:1012A000C1F70E94F708DF91CF911F910F91089528
:1012B000D89AD99A0E94E608000087E30E9408099C
:1012C0000E94F7080895CF93DF93CDB7DEB7EA9772
:1012D0000FB6F894DEBF0FBECDBF0E94BA012FE358
:1012E0003DE043E0215030404040E1F700C00000C5
:1012F000A89884E60E949202DB984FE956E861E0E4
:10130000415050406040E1F700C00000DA9A6FE3BE
:1013100072E48FE0615070408040E1F700C000004F
:10132000DA98DB9AE4E7F4E08F0184EE94E011921E
:10133000E817F907E1F789E090E00E94F7018A3A9F
:1013400009F09FC089E190E00E94F70180938C042E
:101350008BE190E00E94F701C82E8CE190E00E94A2
:10136000F7018093AF048DE190E00E94F701809334
:10137000B0048EE190E00E94F7018093B1048FE108
:1013800090E00E94F7018093B20481E290E00E9415
:10139000F70180933E0583E290E00E94F7018C877D
:1013A00084E290E00E94F7018C8385E290E00E9445
:1013B000F701F82E86E290E00E94F701282FF092C4
:1013C000D0048093D1049F2D80E0DC01A20FB11DD9
:1013D000BE83AD8387E290E00E94F7010F2EFEE806
:1013E000EF2EF4E0FF2EF02D0F2EFEE4AF2EBB24E7
:1013F000F02DC5010E94F701F70181937F01089448
:10140000A11CB11CF4E5AF16B10499F70F2EF8E951
:10141000EF2EF4E0FF2EF02D0F2EF6E5AF2EBB24BD
:10142000F02DC5010E94F701D7018D937D0108942D
:10143000A11CB11CB2E6AB16B10499F782E690E0AC
:101440000E94F70183E690E00E94F7018093F30386
:1014500084E690E00E94F7018093340481E790E0F5
:101460000E94F7018093720483E790E00E94F701E5
:101470008093D20484E790E00E94F7018093D30424
:10148000E6C08AEA80938C0489E190E06AEA0E94CF
:10149000D8018BE190E06FE50E94D8011092AF0473
:1014A0001092B0041092B1041092B2048CE190E05A
:1014B00060E00E94D8018DE190E06091B0040E944C
:1014C000D8018EE190E06091B1040E94D8018FE1D3
:1014D00090E06091B2040E94D80183E290E060E065
:1014E0000E94D80184E290E060E00E94D80187E287
:1014F00090E06AE00E94D8010F2EFFE0FF2EF02D51
:10150000F0923E0581E290E06FE00E94D80185E014
:101510008093D00484E18093D10485E290E065E07B
:101520000E94D80186E290E064E10E94D8018BE23B
:1015300090E06AEA0E94D80189E090E06AEA0E949D
:10154000D801F0928E048EE490E06FE00E94D80102
:10155000F0928F048FE490E06FE00E94D8010F2E8C
:10156000FEE1FF2EF02DF092900480E590E06EE118
:101570000E94D801F092910481E590E06EE10E9412
:10158000D80189E18093920482E590E069E10E94AC
:10159000D8018DE08093930483E590E06DE00E9494
:1015A000D8010F2EF8E9EF2EF4E0FF2EF02D0F2ECC
:1015B000F6E5CF2EDD24F02DF70111927F01C60153
:1015C00060E00E94D8010894C11CD11CF2E6CF163D
:1015D000D10491F782E690E06AEA0E94D801109265
:1015E000F30383E690E060E00E94D8018EE18093EF
:1015F000340484E690E06EE10E94D80182E1809399
:10160000720481E790E062E10E94D8011092E10348
:1016100082E790E060E00E94D8011092D20480EA54
:101620008093D30483E790E060E00E94D80184E7D0
:1016300090E06091D3040E94D80124E135E03E831C
:101640002D831C821C860F2EFFE5CF2EF02DC0921D
:101650008D041092FC031092E90510923D05109242
:101660003C0510927D0510927C0510920C0410929E
:101670000B0484E390E00E94F7018093F4048A3A1B
:10168000B1F50F2EF5EFEF2EF4E0FF2EF02D0F2E1B
:10169000F9E9CF2EDD24F02DC00ED11E84EB9FEF93
:1016A000AC01401B510B8A01C60167017C01C801D6
:1016B0008C0D9D1D0E94F701D6018D936D01AE1515
:1016C000BF05A9F70DE015E00F2EF5E6EF2EFF247C
:1016D000F02DC7010E94F701F80181938F01089452
:1016E000E11CF11CF1E7EF16F10499F734C0E6EFC5
:1016F000F4E0C8018A559F4F10823296E817F90727
:10170000D9F787E08093F50499E09093F70421E1FD
:101710002093F90433E13093FB0448E14093FD0446
:1017200051E25093FF0480930105909303052093A9
:101730000505309307054093090550930B058093E9
:101740000D0590930F0520931105309313054093D9
:1017500015055093170585E083BF84E090E00E9453
:10176000F701182F85E090E00E94F701082F13334E
:1017700028F084E090E064E10E94D801033328F06F
:1017800085E090E06FE00E94D8018AEA8093B4047B
:101790008093740482E30E9492021A9A0E94690262
:1017A0008FE493EC0197F1F700C0000081E00E9404
:1017B0002202A7EAB1E61197F1F700C000000E94EB
:1017C0005809EFE4F3EC3197F1F700C0000081E035
:1017D0000E941A092FEB37E249E021503040404087
:1017E000E1F700C0000080E00E941A098091C70361
:1017F0008093190480931A0480931B048091C90379
:1018000080931C048091CC0380931D040E943809AE
:101810004FE754E86EE1415050406040E1F700C0AE
:1018200000001092190410921A0410921B041092D6
:101830001C0410921D0480E00E941A096FE77AE1EF
:1018400086E0615070408040E1F700C000001092D7
:10185000210481E0809394041092950488E08093A1
:10186000F20280918C048B3B41F480E00E941A09C3
:101870000F2EF0E3FF2EF02D01C0FF24109215046F
:10188000109216041092170481E080931404909132
:10189000D20480E02091D304FC01E20FF11DCF01BE
:1018A00060E177E20E948418662349F086EC93E0B9
:1018B000860F911DDC018C91816080931404862F2A
:1018C00090E020EF38ED829FA001839F500D929F02
:1018D000500D1124E40FF51FCF0168EE73E00E9454
:1018E0008418662341F086EC93E0860F911DDC019D
:1018F0008C9180931504862F90E028E13CEF829F25
:10190000A001839F500D929F500D1124E40FF51FED
:10191000CF0164E670E00E948418662341F086ECF3
:1019200093E0860F911DDC018C9180931604862F25
:1019300090E02CE93FEF829FA001839F500D929F82
:10194000500D11249A012E0F3F1FC9016AE070E06B
:101950000E948418662341F086EC93E0860F911D67
:10196000FC0180818093170486EF9FEF689F802D94
:101970001124280F86EC93E0820F911DDC018C91DD
:101980008093180410927D0410927E0410927F04BC
:101990001DBC1CBC1FBC87E08EBD87E290E00E948E
:1019A000F7018983882319F0C29A1F9A1E9ABAE018
:1019B000B9A31E861FA61EA6E2ECE9876624FAEFED
:1019C000FDA721E029AB1D861CAA1BAA18AA1AAAEA
:1019D00031E03AA77724EE240F2EFCE84F2EF4E0F6
:1019E0005F2EF02DA201485F5F4F5DA34CA364E919
:1019F00074E06F5F7F4F7CA76BA70F2EF8E9AF2EC7
:101A0000F4E0BF2EF02DC50101969FA38EA3AFEA8F
:101A1000B4E01196B8A3AF8FE1EBF4E03196F9A7EB
:101A2000E8A70F2EF0E2CF2EF4E0DF2EF02D160106
:101A3000089421083108F4E6FA95F1F700C0809186
:101A4000F0039091F10301969093F1038093F003DA
:101A500022E0893F920778F31092F1031092F0038D
:101A600087E893E10197F1F700C000008091E3035C
:101A7000882309F464C080FF11C084E690E060917F
:101A800034040E94D80181E790E0609172040E94C2
:101A9000D8018091E3038E7F8093E3038091E30379
:101AA00083FF29C08EE490E060918E040E94D801EB
:101AB0008FE490E060918F040E94D80180E590E06F
:101AC000609190040E94D80181E590E060919104BA
:101AD0000E94D80182E590E0609192040E94D801B2
:101AE00083E590E0609193040E94D8018091E30324
:101AF000877F8093E3038091E3038823D4F48501F7
:101B0000A6E5B0E0BB83AA83F80161918F018A81C9
:101B10009B810E94D8012A813B812F5F3F4F3B83ED
:101B20002A832236310581F78091E3038F778093F2
:101B3000E3038FE493EC0197F1F700C0000080917C
:101B4000E20380FF09C08E7F8093E203AFE4B3EC31
:101B50001197F1F700C000008091E00384FFB7C047
:101B600083E790E06091D2040E94D80184E790E07E
:101B70006091D3040E94D80180E00E94A904809162
:101B8000E0038F7E8093E00380911404282F21705E
:101B9000209314048091150481708A838093150426
:101BA0008091160481708A878093160480911704AF
:101BB000182F11701093170480911804082F0170CA
:101BC0009090D20488248091D304F401E80FF11D91
:101BD000CF0160E177E20E948418662349F086EC29
:101BE00093E0860F911DDC018C91822B809314046D
:101BF000862F90E020EF38ED829FA001839F500D4B
:101C0000929F500D1124E40FF51FCF0168EE73E091
:101C10000E948418662351F086EC93E0860F911D94
:101C2000DC018C912A81822B80931504862F90E011
:101C300028E13CEF829FA001839F500D929F500DA1
:101C40001124E40FF51FCF0164E670E00E948418B0
:101C5000662351F086EC93E0860F911DDC018C9198
:101C60002A85822B80931604862F90E02CE93FEF83
:101C7000829FA001839F500D929F500D1124E40F6D
:101C8000F51FCF016AE070E00E948418662349F0D6
:101C900086EC93E0860F911DDC018C91812B809363
:101CA0001704862F90E0880F991F9C01220F331F85
:101CB000220F331F820F931FBE2FB81B26EC33E079
:101CC0002B0F311DF9018081802B80931804FF2098
:101CD00011F00C94A2162FE73AE146E02150304073
:101CE0004040E1F700C00000E39438E03E1510F1F9
:101CF00044E0E41609F432C24E1560F052E0E516F5
:101D000009F450C15E1508F408C261E0E61609F056
:101D100023C612C076E0E71609F409C4E71608F4F2
:101D2000B7C287E0E81609F4BCC498E0E91609F0E8
:101D300013C6CEC4EE24E394D6018C9180618C93BB
:101D4000F10180818F7E8083F601359780818E7FBF
:101D50008083F601369780818E7F808313968C91E5
:101D600013978F7E13968C93139714968C911497D8
:101D70008F7E14968C93B9A1BB2309F4EDC5B150A5
:101D8000B9A394989598E7EAF1E63197F1F700C086
:101D9000000086E00E94B90087E00E94B900949A92
:101DA000959AF091C104FEAB1DAA8091C2042DA9A1
:101DB0003EA9280F311DC901A0E0B0E02FEF3FEF91
:101DC00040E050E0281B390B4A0B5B0BCA01B901FC
:101DD00024E630E040E050E00E949818822F932FD4
:101DE000AC01569547955B834A835093C1041A8191
:101DF0004093C2045091C30458AF1FAA8091C404F9
:101E00006FA978AD680F711DCB01A0E0B0E02FEF96
:101E10003FEF40E050E0281B390B4A0B5B0BCA0137
:101E2000B90124E630E040E050E00E949818822F8B
:101E3000932F9C01369527953093C304022F20934E
:101E4000C4044091B8045AA9541799F45091BA04A3
:101E500068A9561771F47BA9872F90E0AA81BB81EE
:101E60008A179B0731F4BCA98B2F90E08217930748
:101E700069F08091DD03882351F4E091BA04E8AB66
:101E80000CAB1BAB4AABF1E0FD8701C058AB80E166
:101E900080932504809121048071809321048A819C
:101EA0009B8164E670E00E948418662371F080EDE7
:101EB00093E0FC01E60FF11D80912404982F9071AE
:101EC0008081892B8093240405C080912404807133
:101ED000809324048CE9689F802D1124A82FA10FE2
:101EE0008A2F6AE00E947818682F40ED53E0FA01CB
:101EF000E80FF11D80912304982F90718081892B28
:101F000080932304862F880F982F990F990F890F9C
:101F1000E3E2F4E0A81B4A0F511D8291982F9071C3
:101F2000DA018C91892B8083C90164E670E00E94FC
:101F30008418662369F080ED93E0FC01E60FF11D43
:101F4000D6018C91982F90718081892B8C9304C03D
:101F5000F6018081807180838CE9689F802D112437
:101F6000382F300F832F6AE00E947818282FE0ED79
:101F7000F3E0DF01A80FB11D80911F04982F90712D
:101F80008C91892B80931F04822F880F982F990F93
:101F9000990F890F381BE30FF11D808180618093B9
:101FA0001E04DAC4D6018C918F7E8C93F10180815E
:101FB00080618083F601359780818E7F8083F60172
:101FC000369780818E7F808313968C9113978F7EB6
:101FD00013968C93139714968C9114978F7E149666
:101FE0008C93BD85BF5FBD87BD30A8F5B23019F5B4
:101FF000E985E23098F48091DA0380FF03C00E9403
:1020000077060CC082FF03C00E94860507C083FFCD
:1020100003C00E94270502C00E9410068FE493ECC3
:102020000197F1F700C00000A3ECB9E01197F1F7B8
:1020300000C0000037C0BD85B43071F4EFE4F3ECAC
:102040003197F1F700C0000083EC99E00197F1F7B8
:1020500000C0000027C01D86A3ECB9E01197F1F77E
:1020600000C00000BD85B830E9F48091F20283FF22
:1020700019C08091DD038823A9F4E985E23090F44A
:1020800087EA91E60197F1F700C000008091F20223
:10209000877F8093F2028091DA0381608093DA0374
:1020A0000E9477068091F6039091F7030196909332
:1020B000F7038093F6038233910521F5809195040F
:1020C0008F77809395048091F20288608093F2026A
:1020D000809115048E7F80931504809116048E7F65
:1020E00080931604809117048E7F8093170480914B
:1020F00018048E7F80931804809119048E7F80933A
:1021000019042AC48135910508F426C41092F703F6
:102110001092F60399EC99871FC4D6018C918F7E9B
:102120008C93F10180818F7E8083F60135978081C9
:1021300081608083F601369780818E7F808313963D
:102140008C9113978F7E13968C93139714968C9182
:1021500014978F7E14968C931497FEC3F60180819A
:102160008F7E8083D1018C918F7E8C9383818F7E33
:10217000838384818F7E8483EFEAF4E0F081FBA384
:102180001AA2AF8DB8A18C91EAA1FBA1E80FF11DB5
:10219000CF0160E177E20E948418462F50E0B6013B
:1021A0006750704026EC33E0240F351FDB018C9123
:1021B000982F9170D9018C91892BDB018C9380EF42
:1021C00098ED489F9001499F300D589F300D112484
:1021D00089010E0F1F1FC80168EE73E00E9484186A
:1021E000462F50E0E6ECF3E0E40FF51F80818160BC
:1021F00080931A0488E19CEF489F9001499F300D1D
:10220000589F300D1124020F131FC80164E670E0BF
:102210000E948418462F50E0E6ECF3E0E40FF51F2F
:10222000808180931B048CE99FEF489F9001499F18
:10223000300D589F300D1124020F131FC8016AE0A2
:1022400070E00E948418262F30E0E6ECF3E0E20F05
:10225000F31F8081816080931C04A901440F551FE6
:10226000C901880F991F880F991F880F991F840F24
:10227000951F202F281BF6013397A6ECB3E0A20F81
:10228000B11D8081982F91708C91892B808364C3BC
:10229000F60180818F7E8083D1018C918F7E8C931B
:1022A000359780818E7F8083F601369780818E7F7F
:1022B0008083F60183818061838384818F7E848320
:1022C0008091F90382FF0BC089E290E06091710474
:1022D0000E94D8018091F9038B7F8093F90380914C
:1022E000E00380FF09C080E00E94A9041A9A80914F
:1022F000E0038E7F8093E0038091E00381FF3BC089
:1023000080E00E94A9041A988091E0038D7F809359
:10231000E0031D981C989091F202892F887F80938A
:10232000F2021F981E988091F5038D7F8093F5032C
:10233000E5E6F0E08081877F8083C198C298892F8D
:10234000807F8093F202A4E9B4E01C92EBA5FCA587
:1023500010822FE33DE043E0215030404040E1F760
:1023600000C000000E94770680E00E941A090F2E2C
:10237000FAE2FF2EF02D8091E00382FF25C080E07D
:102380000E94A9048091E0038B7F8093E00387E2A1
:1023900090E00E94F7018983C29A1F9A1E9A809149
:1023A00095048061809395044FE35DE063E04150C4
:1023B00050406040E1F700C000008091DA03816086
:1023C0008093DA030E94770659815523D1F051504A
:1023D00059835523B1F4C2981F981E988091950493
:1023E0008F7E809395046FE37DE083E061507040C1
:1023F0008040E1F700C000008091F2028860809385
:10240000F2028091E00385FF41C08EE490E060918C
:102410008E040E94D8018FE490E060918F040E94A6
:10242000D80180E590E0609190040E94D80181E598
:1024300090E0609191040E94D80182E590E0609163
:1024400092040E94D80183E590E0609193040E9479
:10245000D80108E914E086E590E09B838A83D801DF
:102460006D918D018A819B810E94D801EA81FB8157
:102470003196FB83EA83E236F10589F780E00E941A
:10248000A9048091E0038F7D8093E0038091E003B5
:1024900088230CF061C289E190E0D2016C910E9426
:1024A000D80180E00E94A9048091E0038F77809397
:1024B000E003F20180818B3B09F04EC21A988091B3
:1024C000E0038F778093E0031D981C989091F202AF
:1024D000892F887F8093F2021F981E988091F503C0
:1024E0008D7F8093F503E5E6F0E08081877F808330
:1024F000C198C298892F807F8093F202A4E9B4E04A
:102500001C92EBA5FCA510822FE33DE043E0215097
:1025100030404040E1F700C000000E94770680E0B4
:102520000E941A090F2EF0E3FF2EF02D15C2D601DE
:102530008C918F7E8C93F10180818F7E8083F60158
:10254000359780818E7F8083F601369780818E7FDC
:10255000808313968C9113978F7E13968C93139789
:1025600014968C911497806114968C931497809193
:10257000150480FF39C0B9A9BB23B1F1E985E23068
:1025800098F58FE493EC0197F1F700C0000080917B
:10259000DA038D608093DA032FE73AE146E02150B9
:1025A00030404040E1F700C000000E9477064FE74E
:1025B0005AE166E0415050406040E1F700C0000041
:1025C0000E9427056FE77AE186E061507040804005
:1025D000E1F700C000000E9486058FE493EC0197AC
:1025E000F1F700C0000019AA85E00E94B900A7EA2F
:1025F000B1E61197F1F700C000008091BF04893C5B
:1026000058F0809121048F7E8093210480917D0475
:102610008F7E80937D0426C02FE53AEE40E0215066
:1026200030404040E1F700C0000085E00E94B90062
:1026300087EA91E60197F1F700C000008091BF049E
:10264000883C80F4809121048061809321048091F2
:102650007D04806180937D0482E30E949202C2988F
:102660001F981E981091BF04193C20F09DA5993C1D
:1026700048F072C1ADA5A93C08F46EC1B985B2306D
:1026800008F06AC18091DA0388608093DA030E94BF
:102690002705EFE4F3EC3197F1F700C000001DA728
:1026A0005BC180917F0481FF04C0FAA5F4FF04C0E0
:1026B00053C12AA524FF50C180E13AA538273AA783
:1026C0008091DA0388608093DA030E94270544C171
:1026D0004985442309F440C1415049874F3B81F16A
:1026E000403C88F4443A09F4E8C0453A20F4423AC0
:1026F00009F032C12EC159855A3A09F471C05B3ACA
:1027000009F02AC11FC06985633CB1F0643C20F424
:10271000613C09F021C112C07985753C29F0773CF4
:1027200009F01AC1DB9818C1DA9A83EC99E0019795
:10273000F1F700C0000010C1DA980EC1DB9A0CC19D
:10274000DB9A0AC11092FB0386E693E0909304049F
:10275000809303049C012C5F3F4F8217930790F4F2
:102760000AE613E0DC018C910E948800809103044A
:1027700090910404019690930404809303048017BD
:10278000910780F38DE00E9488008AE00E94880013
:1027900010923604EFE4F3EC3197F1F700C000003B
:1027A0001092FB0344E625E334E08091FB03B9017A
:1027B000680F711DCB010397DC018C918F3409F4F4
:1027C00043C3EBE7F2E93197F1F700C00000415055
:1027D00061F787EA91E60197F1F700C00000BCC0FD
:1027E0001092FB038AE093E0909304048093030427
:1027F0009C012B5D3F4F8217930790F40FE213E08B
:10280000DC018C910E948800809103049091040463
:10281000019690930404809303048017910780F33A
:102820008DE00E9488008AE00E94880010923604A1
:102830002FE73DE84BE5215030404040E1F700C034
:1028400000004FEF58E06DE3415050406040E1F729
:1028500000C000006FE774E88EE161507040804076
:10286000E1F700C000008FE794E8AEE181509040AE
:10287000A040E1F700C0000048EC25E334E080917F
:10288000FB03D901A80FB11DCD010397FC01808185
:102890008F3409F4E0C28FE493EC0197F1F700C0A4
:1028A0000000415061F72FE33DE043E0215030400C
:1028B0004040E1F700C000004FC01092FB038CEFD6
:1028C00092E090930404809303049C01235F3F4FA4
:1028D0008217930790F409E013E0DC018C910E94C9
:1028E000880080910304909104040196909304045D
:1028F000809303048017910780F38DE00E94880085
:102900008AE00E94880010923604EFE4F3EC3197DD
:10291000F1F700C0000044E625E334E08091FB03BA
:10292000B901680F711DCB010397DC018C918F34C5
:1029300009F498C2E7EAF1E63197F1F700C0000028
:10294000415061F787EA91E60197F1F700C0000076
:1029500003C0198691E09D87A981AA2309F0D9C0F7
:10296000FF2009F0D6C0B79B24C0E2E2F4E08081EA
:102970008F7E8083B69918C0C2981F981E98809148
:10298000DC03893C50F01092DC0387E290E00E9467
:10299000F7018983C29A1F9A1E9A80917F048D7FC6
:1029A00080937F041E86B5C0C2981F981E981E860D
:1029B000B0C0B699A0C08091210484FD96C08091DA
:1029C000D204882359F48091D304882339F489EF01
:1029D00090E00197F1F700C0000087C0C29A1F9AEB
:1029E0001E98A2E2B4E08C918F7E8C93BE85BF5F6F
:1029F000BE87BD3308F469C00CB51DB5EEA5FFA5B3
:102A0000E017F10709F044C02FEB37E249E021500D
:102A100030404040E1F700C000008CB59DB5E8179C
:102A2000F907D9F480917F0486FD52C080648093B9
:102A30007F044FE55AEE60E0415050406040E1F7BE
:102A400000C000008091DA0388608093DA030E945E
:102A5000270556E059A31E8648C080917F0486FF53
:102A60003BC08F7B80937F046FE57AEE80E06150FE
:102A700070408040E1F700C000008091DA03886078
:102A80008093DA030E94270576E079A31E862DC085
:102A900080917F0486FF24C08F7B80937F048FE525
:102AA0009AEEA0E081509040A040E1F700C0000005
:102AB0008091DA0388608093DA030E9427051FA7BC
:102AC0000EA796E099A31E8610C0A6E0A9A30DC08C
:102AD000B6E0B9A31E8609C0E6E0E9A31E8605C0DC
:102AE0001FA70EA7F6E0F9A31E8680917F048D7FB5
:102AF00080937F040EC0C2981F981E98A2E2B4E093
:102B00008C9180618C9380917F04826080937F049C
:102B10001E868091F20284FF0CC12CB53DB51DBC10
:102B20001CBC8F7E8093F202BC85B8871F828F8188
:102B30009885EC818E0F911D280F391FC9016D8179
:102B40007E810E948418162F462F50E05B874A87AB
:102B50006D817E81469FC001479F900D569F900DCD
:102B60001124A901481B590B5C87169F802D112445
:102B7000722F781B7C8383E290E0652F0E94D8013E
:102B800084E290E06C810E94D801112309F4D1C045
:102B9000812F90E09B838A83D501BC91B88B1F86DF
:102BA000EEA1FFA180812F853889280F311DC90131
:102BB0004A815B81840F951FD5019C938083129677
:102BC000BC91BA8B198AF501838129893A89280F2A
:102BD000311DC901840F951F9283838334813C8BFF
:102BE0001B8A85814B895C89480F511DCA016A8106
:102BF0007B81860F971F9483858376817E8B1D8AC8
:102C00008781AD89BE89A80FB11DCD01EA81FB8105
:102C10008E0F9F1FD50116969C93169717968C932F
:102C200017971896BC91B88F1F8AF50181852F8957
:102C3000388D280F311DC9014A815B81840F951F92
:102C40009087818752855A8F198E8385698D7A8DF9
:102C5000680F711DCB01AA81BB818A0F9B1F9287D0
:102C600083878501E6E5F0E0FAAFE9AFD8016D9121
:102C70008D0189AD9AAD0E94D801E9ADFAAD3196CA
:102C8000FAAFE9AFE236F10589F7AFEAB4E0BC91FB
:102C9000BC8F1B8EEF8DF8A180812B8D3C8D280F72
:102CA000311DC9014A815B81840F951F692F9C9357
:102CB0008083B091B104BE8F1D8E8091B204ED8DE2
:102CC000FE8DE80FF11DCF012A853B852E173F07AA
:102CD00018F4821B930B02C080E090E0A1EBB4E0FB
:102CE0009C93E8A5F9A580838CE190E00E94D8012F
:102CF0008DE190E06091B0040E94D8018EE190E0F7
:102D0000A1EBB4E06C910E94D8018FE190E0E8A5BE
:102D1000F9A560810E94D80187EA91E60197F1F751
:102D200000C000008091DA0384608093DA030E947F
:102D30008605FF2011F40E943809739496E09715D8
:102D400008F47724AAE2FA1609F041C02FE33DE027
:102D500043E0215030404040E1F700C00000809146
:102D6000E00380FF2DC080E00E94A9041A9A8091A0
:102D7000E0038E7F8093E00381E0A4E9B4E08C93CC
:102D8000EBA5FCA510828091F20288608093F2028C
:102D90002FE33DE043E0215030404040E1F700C0E8
:102DA00000000E9477064FE35DE063E04150504031
:102DB0006040E1F700C0000082E30E949202FF241D
:102DC00063945CE3561518F40E947706662460E36A
:102DD000F61611F00C941B0D8FEB97E2A9E08150D1
:102DE0009040A040E1F700C00000D2018C918A3AE7
:102DF00011F00C941B0D80E00E94A9041A9A89E13D
:102E000090E0F20160810E94D8018091E0038F7709
:102E10008093E00381E0ACA1BDA18C93F201118607
:102E20008091F20288608093F2022FEB37E249E052
:102E3000215030404040E1F700C0000082E30E9492
:102E40009202FF240C941B0D8BE792E90197F1F796
:102E500000C00000BECCAFE4B3EC1197F1F700C0A6
:102E6000000021CDE7EAF1E63197F1F700C000005C
:102E700069CDCF93DF93D82FC62FD89AD99A0E94C5
:102E8000E60883EC99E00197F1F700C000008D2F70
:102E900080540E940809D89AD99A83EC99E0019746
:102EA000F1F700C000008C2F0E9408090E94F7086B
:102EB000DF91CF910895CF93DF931092FB0386E6C5
:102EC00093E090930404809303049C012C5F3F4F94
:102ED0008217930790F4FC01CAE6D3E080810E9438
:102EE0008800E0910304F09104043196F093040407
:102EF000E0930304EC17FD0788F38DE00E9488003F
:102F00008AE00E948800109236048FE493EC0197C7
:102F1000F1F700C000001092FB0324E685E394E083
:102F20003091FB03FC01E30FF11D339730813F34F7
:102F300009F4C6C0ABE7B2E91197F1F700C0000091
:102F4000215071F7E7EAF1E63197F1F700C0000090
:102F50001092FB038AE093E09093040480930304AF
:102F60009C012B5D3F4F8217930790F4FC01CFE249
:102F7000D3E080810E948800E0910304F091040472
:102F80003196F0930404E0930304EC17FD0788F3F3
:102F90008DE00E9488008AE00E948800109236042A
:102FA0004FE75DE86BE5415050406040E1F700C0FD
:102FB00000006FE77DE88BE5615070408040E1F7ED
:102FC00000C000008FE794E8AEE181509040A0403F
:102FD000E1F700C000004FE754E86EE14150504077
:102FE0006040E1F700C0000028EC85E394E03091F8
:102FF000FB03FC01E30FF11D339730813F3409F4EB
:1030000066C04FE35DE063E0415050406040E1F74F
:1030100000C00000215059F76FE37DE083E061506C
:1030200070408040E1F700C000001092FB038CEF7D
:1030300092E090930404809303049C01235F3F4F2C
:103040008217930790F4FC01C9E0D3E080810E94CD
:103050008800E0910304F09104043196F093040495
:10306000E0930304EC17FD0788F38DE00E948800CD
:103070008AE00E948800109236048FE493EC019756
:10308000F1F700C0000024E685E394E03091FB03F3
:10309000FC01E30FF11D339730813F3411F1A7EAB2
:1030A000B1E61197F1F700C00000215079F7E7EA87
:1030B000F1E63197F1F700C00000DF91CF9108955C
:1030C0008BE792E90197F1F700C000003BCF4FE397
:1030D0005DE063E0415050406040E1F700C0000017
:1030E0009BCF87EA91E60197F1F700C00000DFCFA0
:1030F000991B79E004C0991F961708F0961B881F4A
:103100007A95C9F780950895AA1BBB1B51E107C0AA
:10311000AA1FBB1FA617B70710F0A61BB70B881F67
:10312000991F5A95A9F780959095BC01CD010895F6
:1031300097FB092E05260ED057FD04D014D00AD0D7
:10314000001C38F450954095309521953F4F4F4FD6
:103150005F4F0895F6F790958095709561957F4F34
:103160008F4F9F4F0895A1E21A2EAA1BBB1BFD0192
:103170000DC0AA1FBB1FEE1FFF1FA217B307E40756
:10318000F50720F0A21BB30BE40BF50B661F771FAE
:10319000881F991F1A9469F760957095809590958E
:0E31A0009B01AC01BD01CF010895F894FFCF53
:1031AE0000002110422063308440A550C660E770B5
:1031BE00088129914AA16BB18CC1ADD1CEE1EFF15D
:1031CE003112100273325222B5529442F772D66205
:1031DE00399318837BB35AA3BDD39CC3FFF3DEE3AD
:1031EE006224433420040114E664C774A444855455
:1031FE006AA54BB528850995EEE5CFF5ACC58DD5FD
:10320E005336722611163006D776F6669556B446A4
:10321E005BB77AA719973887DFF7FEE79DD7BCC74C
:10322E00C448E5588668A7784008611802282338F4
:10323E00CCC9EDD98EE9AFF9488969990AA92BB99C
:10324E00F55AD44AB77A966A711A500A333A122A44
:10325E00FDDBDCCBBFFB9EEB799B588B3BBB1AABEC
:10326E00A66C877CE44CC55C222C033C600C411C94
:10327E00AEED8FFDECCDCDDD2AAD0BBD688D499D3C
:10328E00977EB66ED55EF44E133E322E511E700EE4
:10329E009FFFBEEFDDDFFCCF1BBF3AAF599F788F8C
:1032AE008891A981CAB1EBA10CD12DC14EF16FE16C
:1032BE008010A100C230E3200450254046706760A4
:1032CE00B9839893FBA3DAB33DC31CD37FE35EF3BC
:1032DE00B1029012F322D2323542145277625672F4
:1032EE00EAB5CBA5A89589856EF54FE52CD50DC50C
:1032FE00E234C324A0148104667447642454054444
:10330E00DBA7FAB79987B8975FE77EF71DC73CD75B
:10331E00D326F2369106B016576676761546345693
:10332E004CD96DC90EF92FE9C899E9898AB9ABA9AB
:10333E004458654806782768C018E1088238A328E3
:10334E007DCB5CDB3FEB1EFBF98BD89BBBAB9ABBFB
:10335E00754A545A376A167AF10AD01AB32A923A33
:10336E002EFD0FED6CDD4DCDAABD8BADE89DC98D4B
:10337E00267C076C645C454CA23C832CE01CC10C83
:10338E001FEF3EFF5DCF7CDF9BAFBABFD98FF89F9B
:10339E00176E0841542B5253543D310041542B4368
:1033AE004950544D4F44453D310041542B434950F3
:1033BE0053544152543D5443502C77696F742E63CD
:1033CE0068616374696F6E2E636E2C37313730000F
:1033DE0041542B43474143543D312C310041542B32
:1033EE00434744434F4E543D312C49502C434D4E90
:1033FE0045540041542B43474154543D31004154F0
:10340E002B4343494400415445300041540041543C
:10341E002B454E544D0041542B534D54534C3D614E
:10342E0069720041542B4E4554503D5443502C4329
:10343E004C49454E542C373137302C77696F742EEA
:10344E006368616374696F6E2E636E0041542B570F
:10345E004D4F44453D5354410041542B453D6F66FD
:10346E0066002B2B2B00FA60BCF466D6DE70FEF6DF
:0A347E00AF066D4FC6CBEB0EEFCF8B
:00000001FF
