S01300004E422D494F545F746573742E7372656349
S11300000C9446000C9463000C9463000C946300FD
S11300100C9463000C9463000C9463000C946300D0
S11300200C9463000C9463000C9463000C946300C0
S11300300C9463000C9463000C9463000C946300B0
S11300400C9463000C9463000C9428010C946300DA
S11300500C9463000C9465000C9463000C9463008E
S11300600C9463000C9463000C9463000C94630080
S11300700C9463000C9463000C944C010C94630086
S11300800C9463000C9463000C94630011241FBE51
S1130090CFEFD0E1DEBFCDBF11E0A0E0B1E0ECEEE8
S11300A0F2E002C005900D92A030B107D9F722E02A
S11300B0A0E0B1E001C01D92A33AB207E1F70E94AB
S11300C086000C9474010C9400001F920F920FB6DA
S11300D00F9211242F938F939F93EF93FF9384B1E7
S11300E025B1E0910001F0E0EE0FFF1FEF5FFE4F3E
S11300F090E0922B91838083FF91EF919F918F9158
S11301002F910F900FBE0F901F9018950E9406011B
S11301100E94EE0081E00E94C100FFCFD89AD99AD4
S113012085E28A95F1F7D89885E28A95F1F7D9980E
S113013085E28A95F1F70895D898D99A85E28A9547
S1130140F1F7D89A85E28A95F1F7D99885E28A95EC
S1130150F1F70895D898D99824E02A95F1F791E019
S1130160D998282F292311F0D89A01C0D89824E0CF
S11301702A95F1F7D99A990F913890F3D998D8988C
S11301800895CF93DF93D82FD89AD99A0E948E00DE
S113019084E08A95F1F780EC0E94AA00C2E1D89A23
S11301A0D99ADD2321F08FEF0E94AA0003C080E0DA
S11301B00E94AA00C15099F70E949C00DF91CF9140
S11301C00895D89AD99A0E948E0084E08A95F1F70E
S11301D087E30E94AA000E949C0008950E94E10007
S11301E02FEF8FEB96E0215080409040E1F700C064
S11301F0000081E00E94C1002FEF8FEB91E22150BB
S113020080409040E1F700C0000008958AB38F60F9
S11302108ABBE2E6F0E080818F718083E1E6F0E062
S113022080818F718083119A109883B183B98B9ADE
S11302308A9882B382BBA09AA89AB89AC098129A54
S11302401A9A8AB383608ABB8BB383608BBB08958D
S11302501F920F920FB60F9211248F939F93EF93D7
S1130260FF935F9BFECF8091DA019CB1E82FF0E011
S1130270E552FE4F90838F5F883C18F48093DA0137
S113028002C01092DA01FF91EF919F918F910F902C
S11302900FBE0F901F9018951F920F920FB60F92DA
S11302A011248F939F93EF93FF93EBE9F0E0808108
S11302B08823ECF78091110190919C00E82FF0E0E5
S11302C0EE5EFE4F90838F5F883C18F4809311019B
S11302D002C010921101FF91EF919F918F910F90A5
S10F02E00FBE0F901F901895F894FFCFEC
S9030000FC
