:100000000C9446000C9463000C9463000C94630001
:100010000C9463000C9463000C9463000C946300D4
:100020000C9463000C9463000C9463000C946300C4
:100030000C9463000C9463000C9463000C946300B4
:100040000C9463000C9463000C9422070C946300DE
:100050000C9463000C9465000C9463000C94630092
:100060000C9463000C9463000C9463000C94630084
:100070000C9463000C9463000C9447070C94630089
:100080000C9463000C9463000C94630011241FBE55
:10009000CFEFD0E1DEBFCDBF15E0A0E0B1E0EAE6F2
:1000A000FFE002C005900D92A835B107D9F72AE00C
:1000B000A8E5B5E001C01D92AC35B207E1F70E949A
:1000C00091000C94B3070C9400001F920F920FB68E
:1000D0000F9211242F938F939F93EF93FF9384B1EB
:1000E00025B1E0915805F0E0EE0FFF1FE75AFA4FF7
:1000F00090E0922B91838083FF91EF919F918F915C
:100100002F910F900FBE0F901F901895F8940E949A
:1001100095060E94B6050E94C5060E94D0067894F6
:1001200008950E9486000E945C048FEF90E00E9478
:100130007806FFCF8EEB91E00E94E90687EE91E012
:100140000E94E90620915807E0915707822F90E01E
:100150008E1B91090F9731F083E092E00E94E9062F
:1001600080E00895F0E030E0E217F30758F4E65B32
:10017000F94FAEE3BAE0265B394F81918D93E217D8
:10018000F307D9F786E292E00E94E9068EE39AE04F
:100190000E94E9068CEF92E00E94E90681E0089552
:1001A000CF93DF9300D000D01F92CDB7DEB785E0AC
:1001B000ECEAF2E0DE01119601900D928A95E1F7EA
:1001C0008EEB91E00E94E9068AE392E00E94E90644
:1001D000BE016F5F7F4F8AE496E00E949907892BEA
:1001E00009F43FC060914B0781E0860F30914907C9
:1001F000831770F13CC0482F50E0FA01E65BF94FDD
:1002000090819D3011F40BC020E0E22FF0E0E85D1A
:10021000F54F96832F5F8F5F831768F328C0461BC7
:1002200051094031510531F086E592E00E94E9061E
:1002300080E01DC08AE792E00E94E9068EE29AE023
:100240000E94E9068CEF92E00E94E90681E00FC06F
:10025000482F50E0FA01E65BF94F90819D30A1F6FE
:10026000DECF8FE892E00E94E90680E000C00F90A8
:100270000F900F900F900F90DF91CF910895CF9333
:10028000DF9300D000D000D0CDB7DEB786E0E0E04D
:10029000F3E0DE01119601900D928A95E1F78EEB65
:1002A00091E00E94E90681EB92E00E94E906BE011E
:1002B0006F5F7F4F8AE496E00E949907892B89F14E
:1002C00080914B078F5F30914907831710F12FC042
:1002D000E82FF0E0E65BF94F90819D3011F40BC000
:1002E00020E0E22FF0E0E85DF54F90832F5F8F5F15
:1002F000831770F31CC08DEC92E00E94E90688E23F
:100300009AE00E94E9068CEF92E00E94E90681E003
:100310000EC0E82FF0E0E65BF94F90819D3001F7C9
:10032000EACF82EE92E00E94E90680E000C02696C5
:100330000FB6F894DEBF0FBECDBFDF91CF91089509
:10034000CF93DF9300D000D0CDB7DEB783E493E541
:100350009A83898381E590E09C838B838EEB91E087
:100360000E94E90686E093E00E94E906BE016F5F05
:100370007F4F8AE496E00E949907892B99F180913A
:100380004B078F5F30914907831720F180E02FC022
:10039000E82FF0E0E65BF94F90819C3211F40CC03D
:1003A00020E0E22FF0E0E85DF54F93832F5F8F5F51
:1003B000831770F380E01BC081E293E00E94E9069E
:1003C0008BE29AE00E94E9068CEF92E00E94E90637
:1003D00081E00DC0E82FF0E0E65BF94F90819C32A0
:1003E000F9F6EACF85E393E00E94E90680E00F90FA
:1003F0000F900F900F90DF91CF9108950F931F935F
:10040000CF93DF9300D000D000D0CDB7DEB786E029
:10041000EFEBF3E0DE01119601900D928A95E1F782
:100420008EEB91E00E94E90681E593E00E94E906E7
:10043000BE016F5F7F4F8AE496E00E949907892B87
:10044000B9F180914D0790E020914B0730E0AC016D
:10045000421B530B4230510589F5FC01E65BF94F15
:100460008181813331F08CE693E00E94E90680E0DF
:1004700026C008E21AE0F901E65BF94F8181F80134
:1004800087A381E380A78FE893E00E94E906F80143
:1004900087A10E94E5068CE20E94E506F80180A58E
:1004A0000E94E5068CEF92E00E94E90681E007C019
:1004B00083EA93E00E94E90680E001C080E026968E
:1004C0000FB6F894DEBF0FBECDBFDF91CF911F9165
:1004D0000F9108950F931F93CF93DF9300D000D017
:1004E00000D0CDB7DEB786E0E7E3F4E0DE01119699
:1004F00001900D928A95E1F78EEB91E00E94E9065A
:1005000085EC93E00E94E906BE016F5F7F4F8AE4AD
:1005100096E00E949907892B11F1E0914B07F0E0DA
:10052000E65BF94F8181813311F0813091F408E26B
:100530001AE0F80186A38BEE93E00E94E906F80129
:1005400086A10E94E5068CEF92E00E94E90681E018
:1005500013C08AE094E00E94E90680E00DC08BEEB3
:1005600093E00E94E90681E394E00E94E9068CEFA3
:1005700092E00E94E90680E026960FB6F894DEBF6E
:100580000FBECDBFDF91CF911F910F910895CF93F3
:10059000DF9300D000D01F92CDB7DEB785E0EBE847
:1005A000F4E0DE01119601900D928A95E1F78EEB51
:1005B00091E00E94E9068DE394E00E94E906BE0105
:1005C0006F5F7F4F8AE496E00E949907892B09F4B8
:1005D00064C080914C07823031F089E594E00E943C
:1005E000E90680E061C020914D0730E080914B0723
:1005F00090E0A901481B590B4230510509F053C046
:10060000E0914E074E2F50E0BA01621B730B62302F
:100610007105E9F5DC01A65BB94F11968C918093C9
:10062000510AFA012091490730E0E217F30720F15F
:1006300080E03AC081918D3041F0982FE217F307A6
:10064000C9F79093520A80E02FC09093520A86E730
:1006500094E00E94E9068091510A0E94E5068CE22E
:100660000E94E50682E59AE00E94E9068CEF92E09E
:100670000E94E90681E018C0DF01A65BB94F9C919A
:100680009D3029F3E55BF94F265B394FD7CF89E5DC
:1006900094E00E94E90680E007C089E594E00E94AA
:1006A000E90680E001C080E00F900F900F900F905E
:1006B0000F90DF91CF9108956FE579E08AE496E09D
:1006C0000E9492070E941A07EAE4F6E001900020D7
:1006D000E9F73197EA54F640E093490780E994E05E
:1006E0000E94E90661E575E08AE496E00E949907B8
:1006F000892B21F00E941A0781E008956BE475E0D0
:100700008AE496E00E949907892B21F40E941A0737
:1007100080E0089580E00895CF93C82F6FE579E0D9
:100720008AE496E00E9492070E941A07EAE4F6E043
:1007300001900020E9F73197EA54F640E093490729
:100740008FEA94E00E94E90661E575E08AE496E0AC
:100750000E949907892BD1F14091490750E041153A
:100760005105B1F17091570780E090E0FC01E65B24
:10077000F94F20812D3011F57723A1F070935707A1
:10078000809358078C2F90E0FC01EE0FFF1FE80FBD
:10079000F91FEE0FFF1FE050FF4F0480F581E02DA1
:1007A000099517C09C012F5F3F4FF901E65BF94F98
:1007B00060816A3019F471E0720FC90101968417E3
:1007C0009507A0F27093570780E003C080E001C056
:1007D00080E0CF910895CF93C82F6FE579E08AE448
:1007E00096E00E9492070E941A078AE496E00E940F
:1007F000E90610924C0761E575E08AE496E00E94F4
:100800009907892B09F451C06BE270E08AE496E005
:100810000E948707892B09F44AC06AE370E08AE4E2
:1008200096E00E948707892B09F443C0EAE4F6E0CA
:1008300001900020E9F73197EA54F6402E2FE0931B
:100840004907EE2311F140914A0750914B07EAE422
:10085000F6E030E080E091919B3259F09A3359F004
:100860009C3251F4A32FB0E0A35BB84F8C933F5F51
:1008700003C0482F01C0582F8F5F2813ECCF40933F
:100880004A0750934B0730934C078C2F90E0FC01A4
:10089000EE0FFF1FE80FF91FEE0FFF1FE050FF4F95
:1008A0000480F581E02D099505C080E003C080E05B
:1008B00001C080E0CF910895AF92BF92CF92DF92B6
:1008C000EF92FF920F931F93CF93DF930F2EF0E0E1
:1008D000EF2EF1E0FF2EF02D10E00F2EFAE4AF2EF8
:1008E000F6E0BF2EF02D0F2EFFE0CF2EDD24D394A7
:1008F000F02DE7018A819B810E940F072FEF8FEF78
:1009000096E8215080409040E1F700C000008881C7
:10091000823029F1833009F452C0813009F073C06C
:100920000E945C038130B1F46EC08A819B810E9479
:100930000F07FFEF2FEF86E8F15020408040E1F7EE
:1009400000C000000E945C03813009F45CC00150CB
:1009500011F459C00AE08981813039F354C0812FE4
:100960000E94EB03813029F1F501C6011192019734
:10097000E9F789818130E9F40AE08A819B810E944C
:100980000F079FEFEFEFF6E89150E040F040E1F7FE
:1009900000C00000812F0E94EB03813051F0F5016F
:1009A000C60111920197E9F7015019F08981813050
:1009B00021F3F501C60111920197E9F724C0812FB7
:1009C0000E948C038130B1F419C08A819B810E94FE
:1009D0000F079FEFEFEFF6E89150E040F040E1F7AE
:1009E00000C00000812F0E948C03813039F001503B
:1009F00011F404C00AE08981813039F3F501C601A0
:100A000011920197E9F71F5F96E0E90EF11C1A3089
:100A100009F06FCFDF91CF911F910F91FF90EF9071
:100A2000DF90CF90BF90AF900895D89AD99A85E281
:100A30008A95F1F7D89885E28A95F1F7D99885E2F9
:100A40008A95F1F70895D898D99A85E28A95F1F7B1
:100A5000D89A85E28A95F1F7D99885E28A95F1F7D7
:100A60000895D898D99824E02A95F1F798E0D99874
:100A700080FF02C0D89A01C0D89824E02A95F1F7E7
:100A8000D99A8695915099F7D998D8980895CF9387
:100A9000DF93D82FD89AD99A0E94150584E08A95B9
:100AA000F1F780EC0E943105C2E1D89AD99ADD2392
:100AB00021F08FEF0E94310503C080E00E943105D4
:100AC000C15099F70E942305DF91CF910895D89ADC
:100AD000D99A0E94150584E08A95F1F787E30E9470
:100AE00031050E9423050895CF93DF93D82FC62F99
:100AF000D89AD99A0E9415058FEF9BE60197F1F7D6
:100B000000C0000080EC8D0F0E943105D89AD99A60
:100B10008FEF9BE60197F1F700C000008C2F0E9439
:100B200031050E942305DF91CF910895EF92FF9246
:100B30001F93CF93DF939FEF960F662389F0EA010F
:100B4000E92EF12C9FEFE91AF90AE40EF51E6991DE
:100B500011E0180F0E947405812FCE15DF05B9F73B
:100B6000DF91CF911F91FF90EF9008950E9467054C
:100B70002FEF8FEB96E0215080409040E1F700C0CE
:100B8000000081E00E9447052FEF8FEB91E221509A
:100B900080409040E1F700C0000080E00E944705DF
:100BA00008950F931F93CF93DF938C01EB019C016A
:100BB000ADECBCEC0E947807AC0156954795569574
:100BC0004795569547959A01220F331FCA01880F02
:100BD000991F880F991F880F991F820F931FF80183
:100BE000E81BF90BEC54FE4F8081806188839A01E9
:100BF0000E947807969587959695879596958795FF
:100C00009C01220F331F880F991F880F991F880F8F
:100C1000991F820F931F481B590BFA01EC54FE4F8A
:100C20008081898398013695279536952795ABE77E
:100C3000B4E10E947807AC01569547959A01ADEC56
:100C4000BCEC0E9478079695879596958795969522
:100C500087959C01220F331F880F991F880F991FBA
:100C6000880F991F820F931F481B590BFA01EC54F0
:100C7000FE4F80818A839801369527953695279572
:100C800036952795A5ECB0E20E947807AC01529505
:100C900042954F7045275F7045279A01ADECBCEC3B
:100CA0000E9478079695879596958795969587954E
:100CB0009C01220F331F880F991F880F991F880FDF
:100CC000991F820F931F481B590BFA01EC54FE4FDA
:100CD00080818B8390915E09992319F080618B83C9
:100CE00002C08F7E8B83DF91CF911F910F9108956A
:100CF000CF93DF9300D000D0CDB7DEB719821A8230
:100D00001B821C82BE016F5F7F4F0E94D105AE0126
:100D10004F5F5F4F64E08AE00E9496050F900F904E
:100D20000F900F90DF91CF9108958AB38F608ABBA7
:100D3000E2E6F0E080818F718083E1E6F0E080817F
:100D40008F718083119A109883B183B98B9A8A9896
:100D500082B382BBA09AA89AB89AC098129A1A9A9B
:100D60008AB383608ABB8BB383608BBB82B1806C98
:100D700082B983B18F7383B9BA9AC29887B38F73DC
:100D800087BB88B3806C88BB089586E0809395000C
:100D900087E489B9109290008AB188698AB9089568
:100DA000EDE9F0E08081866080838FE88093990090
:100DB00010929800EBE9F0E0808182608083EAE99C
:100DC000F0E080818869808308955D9BFECF8CB9B7
:100DD0000895CF93DF93EC018881882331F0219629
:100DE0000E94E50689918111FBCFDF91CF91089593
:100DF000EBE9F0E0908195FFFDCF80939C00089592
:100E0000CF93DF93EC018881882331F021960E94F3
:100E1000F80689918111FBCFDF91CF910895CF938F
:100E2000DF93EC010E94E906CE010E940007DF91EA
:100E3000CF91089589ECEFE5F9E0DF011D928A95E5
:100E4000E9F708951F920F920FB60F9211248F9316
:100E50009F93EF93FF9380916905883C10F0109267
:100E600069055F9BFECF809169059CB1E82FF0E09A
:100E7000E659FA4F90838F5F80936905FF91EF9158
:100E80009F918F910F900FBE0F901F9018951F92FA
:100E90000F920FB60F9211248F939F93AF93BF932E
:100EA000EF93FF938091270A883C10F01092270A55
:100EB000EBE9F0E080818823ECF7A7E2BAE08C91BF
:100EC00090919C00E82FF0E0E15AF64F90838F5FFD
:100ED0008C9395B381E0892785BBFF91EF91BF91FA
:100EE000AF919F918F910F900FBE0F901F9018950B
:100EF000A29FB001B39FC001A39F700D811D11245B
:100F0000911DB29F700D811D1124911D0895FC014A
:100F10008191861721F08823D9F799270895319771
:100F2000CF010895FB01DC0101900D920020E1F753
:100F30000895FB0151915523A9F0BF01DC014D91AA
:100F400045174111E1F759F4CD010190002049F016
:100F50004D9140154111C9F3FB014111EFCF81E0E3
:0A0F600090E001970895F894FFCF88
:100F6A000101AF0100000100A30100000201970185
:100F7A003F0102018B01D000030081019A000101A7
:100F8A0074010000020168016A0202005F01A00107
:100F9A0002005401C70202014801FE0100000000DC
:100FAA00000000000000000041542B434552454711
:100FBA003F0D0A0041542B434F50533F0D0A004145
:100FCA00542B4353510D0A0041542B434741545467
:100FDA003F0D0A0041542B43474154543D310D0AF9
:100FEA000041542B43494D490D0A0041542B4347B4
:100FFA00534E3D310D0A0041542B4E42414E443F5F
:10100A000D0A0041542B434D45453D300D0A004120
:10101A00540D0A00AF066D4FC6CBEB0EEFCF2D2D48
:10102A002D2D2D2D2D2D2D2D2D2D2D2D2D2D2D2DE6
:10103A002D2D2D2D2D2D2D2D2D2D2D2D2D2D2D2DD6
:10104A002D2D2D2D0D0A0062633935206765742018
:10105A00696D73692069732072756E202E2E2E2099
:10106A000D0A00626339352067657420696D7369FA
:10107A00202D2D2D3E204E554D424552204552528F
:10108A004F52200D0A006263393520676574206962
:10109A006D7369202D2D2D3E20006263393520673E
:1010AA00657420696D65692069732072756E202EDA
:1010BA002E2E200D0A006263393520676574206977
:1010CA006D6569202D2D2D2D3E204E554D424552E0
:1010DA00204552524F52200D0A006263393520676B
:1010EA00657420696D6569202D2D2D2D3E200062C5
:1010FA006339352067657420696D6569202D2D2D4A
:10110A002D3E204552524F52200D0A004347534E5E
:10111A000062633935206765742062616E642069F4
:10112A00732072756E202E2E2E200D0A00626339EE
:10113A0035206765742062616E64202D2D2D2D3E49
:10114A00200062633935206765742062616E64200D
:10115A002D2D2D2D3E204552524F5220200D0A0092
:10116A004E42414E440062633935206765742063FC
:10117A0073712069732072756E202E2E2E200D0A2F
:10118A0000626339352067657420637371202D2DE1
:10119A002D2D3E2000626339352067657420637304
:1011AA0071202D2D2D2D3E204552524F52200D0AD1
:1011BA00006263393520676574206570732069732E
:1011CA002072756E202E2E2E200D0A00626339358C
:1011DA002067657420657073202D2D2D2D3E204EBD
:1011EA00554D424552204552524F52200D0A006237
:1011FA006339352067657420657073202D2D2D2D78
:10120A003E2000626339352067657420657073205B
:10121A002D2D2D2D3E204552524F52200D0A0043AE
:10122A0045524547006263393520676574207072FC
:10123A006F66696C652073746174757320697320B5
:10124A0072756E202E2E2E200D0A0062633935200B
:10125A006765742070726F66696C65207374617457
:10126A007573202D2D2D2D3E2000626339352067A0
:10127A0065742070726F66696C6520737461747529
:10128A0073202D2D2D2D3E204552524F52200D0AEE
:10129A00004552524F520043474154540062633949
:1012AA00352067657420706C6D6E206973207275C5
:1012BA006E202E2E2E200D0A0062633935206765B6
:1012CA007420706C6D6E202D2D2D2D3E20455252AE
:1012DA004F52200D0A006263393520676574207009
:1012EA006C6D6E202D2D2D2D3E2000434F50530046
:1012FA0062633935207365742070726F6365737326
:10130A002069732072756E202E2E2E200D0A00621F
:10131A0063393520696E666F2070726F6365737307
:10132A002069732072756E202E2E2E200D0A0062FF
:10133A0063393520737461727420637265617465F0
:10134A0020736F636B6574202E2E2E200D0A0062A7
:10135A006339352063726561746520736F636B65E9
:10136A007420636F6D6D616E64202D2D2D3E2000FB
:10137A0041542B4E534F43523D444752414D2C3119
:10138A00372C006263393520737461727420736577
:10139A006E6420736F636B6574202E2E2E200D0AE7
:1013AA000041542B4E534F53543D004552524F5215
:0813BA00000D0A4F4B0D0A0063
:00000001FF
