S01300004E422D494F545F746573742E7372656349
S11300000C9446000C9463000C9463000C946300FD
S11300100C9463000C9463000C9463000C946300D0
S11300200C9463000C9463000C9463000C946300C0
S11300300C9463000C9463000C9463000C946300B0
S11300400C9463000C9463000C9406020C946300FB
S11300500C9463000C9465000C9463000C9463008E
S11300600C9463000C9463000C9463000C94630080
S11300700C9463000C9463000C942A020C946300A7
S11300800C9463000C9463000C94630011241FBE51
S1130090CFEFD0E1DEBFCDBF11E0A0E0B1E0E2E1FF
S11300A0F5E002C005900D92AA30B107D9F722E01D
S11300B0AAE0B1E001C01D92AD3AB207E1F70E9497
S11300C086000C9487020C9400001F920F920FB6C6
S11300D00F9211242F938F939F93EF93FF9384B1E7
S11300E025B1E0910A01F0E0EE0FFF1FE55FFE4F3E
S11300F090E0922B91838083FF91EF919F918F9158
S11301002F910F900FBE0F901F9018950E94E4013D
S11301100E94BC0180E00E94C000FFCFD89AD99A07
S113012085E28A95F1F7D89885E28A95F1F7D9980E
S113013085E28A95F1F70895D898D99A85E28A9547
S1130140F1F7D89A85E28A95F1F7D99885E28A95EC
S1130150F1F70895D898D99824E02A95F1F798E012
S1130160D99880FD02C0D89801C0D89A24E02A9575
S1130170F1F7D99A8695915099F7D998D898089516
S1130180CF93DF93D82FD89AD99A0E948E0084E017
S11301908A95F1F780EC0E94AA00C2E1D89AD99A14
S11301A0DD2321F08FEF0E94AA0003C080E00E94AB
S11301B0AA00C15099F70E949C00DF91CF91089545
S11301C0D89AD99A0E948E0084E08A95F1F787E341
S11301D00E94AA000E949C000895CF93DF93D82F19
S11301E0C62FD89AD99A0E948E008FEF9BE601976A
S11301F0F1F700C0000080EC8D0F0E94AA00D89A8D
S1130200D99A8FEF9BE60197F1F700C000008C2F7D
S11302100E94AA000E949C00DF91CF910895EF9262
S1130220FF921F93CF93DF939FEF960F662389F07E
S1130230EA01E92EF12C9FEFE91AF90AE40EF51E02
S1130240699111E0180F0E94ED00812FCE15DF0592
S1130250B9F7DF91CF911F91FF90EF900895EF923E
S1130260FF920F931F93CF93DF9300D000D01F9280
S1130270CDB7DEB77B018E010F5F1F4F25E0F8017C
S113028011922A95E9F74AE0B8010E945202F80156
S113029001900020E9F731978E2F801B863008F0FB
S11302A085E08330F1F028F48130A9F1823031F116
S11302B03CC0843049F08530C1F5E981F0E0E05379
S11302C0FF4F9081F7019083EDEFFFEFEC0FFD1FDF
S11302D0E80FF11DE081F0E0E053FF4F9081F7015A
S11302E09183EEEFFFEFEC0FFD1FE80FF11DE081AE
S11302F0F0E0E053FF4F9081F7019283EFEFFFEFBF
S1130300EC0FFD1FE80FF11DE081F0E0E053FF4F1B
S11303109081F7019383FE01E80FF11DE081F0E085
S1130320E053FF4F8081F70184830F900F900F906B
S11303300F900F90DF91CF911F910F91FF90EF904D
S11303400895CF93DF9300D000D01F92CDB7DEB7CE
S1130350BE016F5F7F4F0E942F01AE014F5F5F4F61
S113036065E085E00E940F010F900F900F900F90B1
S11303700F90DF91CF9108950E94E0002FEF8FEB53
S113038096E0215080409040E1F700C0000081E0F9
S11303900E94C0002FEF8FEB91E2215080409040EB
S11303A0E1F700C0000080E00E94C00089E793E10B
S11303B00E94A1012FEF8FEB98EA215080409040DA
S11303C0E1F700C0000008958AB38F608ABBE2E6BB
S11303D0F0E080818F718083E1E6F0E080818F71AD
S11303E08083119A109883B183B98B9A8A9882B3C7
S11303F082BBA09AA89AB89AC098129A1A9A8AB3F9
S113040083608ABB8BB383608BBB08951F920F926A
S11304100FB60F9211248F939F93EF93FF935F9BDB
S1130420FECF8091E4019CB1E82FF0E0EB51FE4F48
S113043090838F5F883C18F48093E40102C010928B
S1130440E401FF91EF919F918F910F900FBE0F9058
S11304501F9018951F920F920FB60F9211248F932D
S11304609F93EF93FF93EBE9F0E080818823ECF70F
S113047080911B0190919C00E82FF0E0E45EFE4F18
S113048090838F5F883C18F480931B0102C0109204
S11304901B01FF91EF919F918F910F900FBE0F90D1
S11304A01F901895BB274A3031F4992322F4BDE2FA
S11304B0909581959F4F0C945E02BB27FB015527B5
S11304C0AA27880F991FAA1FA41710F0A41B8395AD
S11304D05051B9F7A05DAA3308F0A95DA193009724
S11304E079F7B111B1931192CB010C947702DC012D
S11304F0FC01672F71917723E1F7329704C07C9157
S11305006D9370836291AE17BF07C8F30895F89492
S1050510FFCF17
S10D0512FA60BCF466D6DE70FEF653
S9030000FC
