:100000000C9446000C9463000C9463000C94630001
:100010000C9463000C9463000C9463000C946300D4
:100020000C9463000C9463000C9463000C946300C4
:100030000C9463000C9463000C9463000C946300B4
:100040000C9463000C9463000C944F050C946300B3
:100050000C9463000C9465000C9463000C94630092
:100060000C9463000C9463000C9463000C94630084
:100070000C9463000C9463000C9474050C9463005E
:100080000C9463000C9463000C94630011241FBE55
:10009000CFEFD0E1DEBFCDBF12E0A0E0B1E0E8E0FD
:1000A000FCE002C005900D92A631B107D9F726E019
:1000B000A6E1B2E001C01D92AA3EB207E1F70E949C
:1000C0009B000C9402060C9400001F920F920FB636
:1000D0000F9211242F938F939F93EF93FF9384B1EB
:1000E00025B1E0911602F0E0EE0FFF1FE95EFD4F33
:1000F00090E0922B91838083FF91EF919F918F915C
:100100002F910F900FBE0F901F9018958FE690E0E3
:100110000E94AA040895F8940E94C7040E94220332
:100120000E94F7040E9402050E94FF01789408953E
:10013000FC01099508950E948B0084EE96E00E94D0
:10014000B0050E94E60386E890E00E949800FFCF89
:10015000089580E0089580E0089580E0089580E0AB
:100160000895CF93DF9300D000D000D0CDB7DEB795
:1001700086E0E2EDF1E0DE01119601900D928A95A4
:10018000E1F7BE016F5F7F4F81ED93E00E94E005D4
:10019000892B19F18091D2048F5F3091D00483179D
:1001A000D8F4E82FF0E0EF52FC4F90819D3051F4ED
:1001B00081E016C0E82FF0E0EF52FC4F90819D30B7
:1001C00011F40DC020E0E22FF0E0EC51F94F9083E4
:1001D0002F5F8F5F831770F303C080E001C081E061
:1001E00026960FB6F894DEBF0FBECDBFDF91CF913C
:1001F0000895CF93DF9300D000D0CDB7DEB783E46E
:1002000093E59A83898381E590E09C838B83BE018B
:100210006F5F7F4F81ED93E00E94E005892B21F114
:100220008091D2048F5F3091D0048317F8F4E82FC7
:10023000F0E0EF52FC4F90819C3251F481E019C004
:10024000E82FF0E0EF52FC4F90819C3211F410C087
:1002500020E0E22FF0E0EC51F94F93832F5F8F5FA6
:10026000831770F380E005C080E003C080E001C028
:1002700081E00F900F900F900F90DF91CF91089534
:10028000CF93DF93CDB7DEB727970FB6F894DEBFD5
:100290000FBECDBF87E0E4EEF1E0DE0111960190E4
:1002A0000D928A95E1F76EE072E0CE0101960E9410
:1002B000E005892B21F00E94470581E00DC068E030
:1002C00072E0CE0101960E94E005892B21F40E9484
:1002D000470580E001C080E027960FB6F894DEBFA6
:1002E0000FBECDBFDF91CF9108951F93CF93DF93C2
:1002F000CDB7DEB763970FB6F894DEBF0FBECDBFA4
:10030000182F83E1E8EDF1E0DE01119601900D92E6
:100310008A95E1F7BE016F5F7F4F81ED93E00E9408
:10032000D9050E9447051092D3046EE072E0CE0119
:1003300001960E94E005892B09F452C06BE270E03F
:10034000CE0101960E94CE05892B09F44BC06AE3C9
:1003500070E0CE0101960E94CE05892B09F444C0BD
:10036000DE011196FD0101900020E9F73197EA1BAB
:10037000FB0B2E2FE093D004EE2311F14091D1041A
:100380005091D204E1EDF3E030E080E091919B32B6
:1003900059F09A3359F09C3251F4A32FB0E0AC528B
:1003A000BB4F8C933F5F03C0482F01C0582F8F5F16
:1003B0002813ECCF4093D1045093D2043093D3044C
:1003C000812F90E0FC01EE0FFF1FE80FF91FEE0FE9
:1003D000FF1FE050FF4F0480F581E02D099505C017
:1003E00080E003C080E001C080E063960FB6F8941F
:1003F000DEBF0FBECDBFDF91CF911F910895AF92A9
:10040000BF92CF92DF92EF92FF920F931F93CF9301
:10041000DF93C0E0D1E0F12C0F2EF1EDAF2EF3E031
:10042000BF2EF02D0F2EFDE0CF2EDD24D394F02D26
:100430008E018A819B810E943C058FEF9BE601978C
:10044000F1F700C000008881813021F0823009F08E
:1004500048C021C00E9440018130A1F442C0F8018F
:10046000828193810E943C058FEF9BE60197F1F713
:1004700000C000000E944001813099F1EA94E1102F
:1004800005C02FC00F2EFAE0EF2EF02DF80181816C
:10049000813029F326C08F2D0E947501813009F12A
:1004A000F501C60111920197E9F70F2EFAE0EF2E40
:1004B000F02D13C0F801828193810E943C058FEFDB
:1004C0009BE60197F1F700C000008F2D0E94750197
:1004D000813039F0EA94EE2021F0F80181818130F9
:1004E00049F3F3942696FCE0FF12A2CFDF91CF915F
:1004F0001F910F91FF90EF90DF90CF90BF90AF9042
:100500000895D89AD99A85E28A95F1F7D89885E224
:100510008A95F1F7D99885E28A95F1F70895D898E8
:10052000D99A85E28A95F1F7D89A85E28A95F1F70A
:10053000D99885E28A95F1F70895D898D99824E05A
:100540002A95F1F798E0D99880FF02C0D89A01C0A7
:10055000D89824E02A95F1F7D99A8695915099F781
:10056000D998D8980895CF93DF93D82FD89AD99A4D
:100570000E94810284E08A95F1F780EC0E949D023E
:10058000C2E1D89AD99ADD2321F08FEF0E949D0213
:1005900003C080E00E949D02C15099F70E948F0223
:1005A000DF91CF910895D89AD99A0E94810284E070
:1005B0008A95F1F787E30E949D020E948F020895B9
:1005C000CF93DF93D82FC62FD89AD99A0E94810251
:1005D0008FEF9BE60197F1F700C0000080EC8D0FD4
:1005E0000E949D02D89AD99A8FEF9BE60197F1F766
:1005F00000C000008C2F0E949D020E948F02DF919C
:10060000CF910895EF92FF921F93CF93DF939FEFC7
:10061000960F662389F0EA01E92EF12C9FEFE91A83
:10062000F90AE40EF51E699111E0180F0E94E0022C
:10063000812FCE15DF05B9F7DF91CF911F91FF9084
:10064000EF9008950E94D3022FEF8FEB96E0215098
:1006500080409040E1F700C0000081E00E94B302BA
:100660002FEF8FEB91E2215080409040E1F700C0E6
:10067000000080E00E94B3020895EF92FF921F9362
:10068000CF93DF937C01EB019C01ADECBCEC0E94AD
:10069000A105AC01569547955695479556954795B2
:1006A0009A01220F331FCA01880F991F880F991FC3
:1006B000880F991F820F931FF701E81BF90BE8536E
:1006C000FE4F108118839A010E94A1059695879587
:1006D00096958795969587959C01220F331F880FD5
:1006E000991F880F991F880F991F820F931F481B0E
:1006F000590BFA01E853FE4F8081898397013695A3
:10070000279536952795ABE7B4E10E94A105AC018A
:10071000569547959A01ADECBCEC0E94A1059695C3
:10072000879596958795969587959C01220F331FFF
:10073000880F991F880F991F880F991F820F931F89
:10074000481B590BFA01E853FE4F80818A839701B9
:10075000369527953695279536952795A5ECB0E2E1
:100760000E94A105AC01529542954F7045275F70DC
:1007700045279A01ADECBCEC0E94A10596958795A2
:1007800096958795969587959C01220F331F880F24
:10079000991F880F991F880F991F820F931F481B5D
:1007A000590BFA01E853FE4F808180618B83809161
:1007B000E106813019F41061188302C01F7E18838E
:1007C000DF91CF911F91FF90EF900895CF93DF932A
:1007D00000D000D0CDB7DEB719821A821B821C82EE
:1007E000BE016F5F7F4F0E943D03AE014F5F5F4FC1
:1007F00064E08EE00E9402030F900F900F900F9024
:10080000DF91CF9108950F931F93CF93DF938C01C6
:10081000EB019C01ADECBCEC0E94A105AC0156952E
:10082000479556954795569547959A01220F331F40
:10083000CA01880F991F880F991F880F991F820F6F
:10084000931FF801E81BF90BE853FE4F808180618C
:1008500088839A010E94A10596958795969587951C
:10086000969587959C01220F331F880F991F880F3B
:10087000991F880F991F820F931F481B590BFA016C
:10088000E853FE4F808189839801369527953695E8
:100890002795ABE7B4E10E94A105AC0156954795B9
:1008A0009A01ADECBCEC0E94A105969587959695B2
:1008B0008795969587959C01220F331F880F991F66
:1008C000880F991F880F991F820F931F481B590B80
:1008D000FA01E853FE4F80818A8398013695279567
:1008E0003695279536952795A5ECB0E20E94A1058F
:1008F000AC01529542954F7045275F7045279A018C
:10090000ADECBCEC0E94A1059695879596958795D0
:10091000969587959C01220F331F880F991F880F8A
:10092000991F880F991F820F931F481B590BFA01BB
:10093000E853FE4F80818B839091E306992319F051
:1009400080618B8302C08F7E8B83DF91CF911F915B
:100950000F910895CF93DF9300D000D0CDB7DEB7CD
:1009600019821A821B821C82BE016F5F7F4F0E9418
:100970000304AE014F5F5F4F64E08AE00E94020310
:100980000F900F900F900F90DF91CF9108958AB341
:100990008F608ABBE2E6F0E080818F718083E1E6C0
:1009A000F0E080818F718083119A109883B183B9B0
:1009B0008B9A8A9882B382BBA09AA89AB89AC09858
:1009C000129A1A9A8AB383608ABB8BB383608BBBFB
:1009D00082B1806C82B983B18F7383B9BA9AC2989D
:1009E00087B38F7387BB88B3806C88BB089586E01C
:1009F0008093950087E489B9109290008AB1886944
:100A00008AB90895EDE9F0E080818660808387E40B
:100A10008093990010929800EAE9F0E0808188695B
:100A2000808308955D9BFECF8CB90895CF93DF93AB
:100A3000EC018881882331F021960E94120589916A
:100A40008111FBCFDF91CF910895EBE9F0E0908128
:100A500095FFFDCF80939C000895CF93DF93EC0129
:100A60008881882331F021960E9425058991811182
:100A7000FBCFDF91CF910895CF93DF93EC010E94DC
:100A80001605CE010E942D05DF91CF91089588ECC7
:100A9000E8E2F2E0DF011D928A95E9F708951F92DE
:100AA0000F920FB60F9211248F939F93EF93FF93A2
:100AB0008091F002883C10F01092F0025F9BFECF14
:100AC0008091F0029CB1E82FF0E0EF50FD4F908351
:100AD0008F5F8093F002FF91EF919F918F910F9024
:100AE0000FBE0F901F9018951F920F920FB60F9286
:100AF00011248F939F93EF93FF9380912702883C5B
:100B000010F010922702EBE9F0E080818823ECF7E7
:100B10008091270290919C00E82FF0E0E85DFD4F66
:100B200090838F5F8093270295B381E0892785BBEF
:100B3000FF91EF919F918F910F900FBE0F901F909B
:100B40001895A29FB001B39FC001A39F700D811D96
:100B50001124911DB29F700D811D1124911D0895C6
:100B6000FC0188279927E89421912032E9F3293064
:100B700010F02E30C8F32B3241F02D3239F4689446
:100B800004C00E94FA05820F911D219120532A3042
:100B9000C0F31EF4909581959F4F0895FC018191BB
:100BA000861721F08823D9F7992708953197CF0127
:100BB0000895FB01DC0101900D920020E1F70895FA
:100BC000FB0151915523A9F0BF01DC014D9145175F
:100BD0004111E1F759F4CD010190002049F04D9108
:100BE00040154111C9F3FB014111EFCF81E090E0C5
:100BF000019708957AE0979F902D879F802D910D02
:080C000011240895F894FFCFC0
:100C08000101C30100000100B70100000300AD01AC
:100C180000000300A301000002009701B1000200D8
:100C28008B01A80003008101A900010174010000E3
:100C380002016801AD0002005F01F90002005401E1
:100C4800AF0002014801AB0041542B4345524547D0
:100C58003F0D0A0041542B434F50533F0D0A0041AA
:100C6800542B4353510D0A0041542B4347415454CC
:100C78003F0D0A0041542B43474154543D310D0A5E
:100C88000041542B43494D490D0A0041542B434719
:100C9800534E3D310D0A0041542B4E42414E443FC4
:100CA8000D0A0041542B43474D4D0D0A0041542B6A
:100CB80043474D490D0A0041542B434D45453D31AD
:100CC8000D0A0041540D0A00AF066D4FC6CBEB0E5E
:100CD800EFCF4E42414E44000D0A2B4E42414E4446
:100CE8003A350D0A0D0A4F4B0D0A0041542B4E534D
:100CF8004F43523D444752414D2C31372C0041540B
:100D08002B4E534F53543D004552524F52000D0A3B
:060D18004F4B0D0A000024
:00000001FF
