:100000000C9446000C9463000C9463000C94630001
:100010000C9463000C9463000C9463000C946300D4
:100020000C9463000C9463000C9463000C946300C4
:100030000C9463000C9463000C9463000C946300B4
:100040000C9463000C9463000C94DC080C94630023
:100050000C9463000C9489000C9463000C9463006E
:100060000C9463000C9463000C9463000C94630084
:100070000C9463000C9463000C9401090C946300CD
:100080000C9463000C9463000C94630011241FBE55
:10009000CFEFD0E1DEBFCDBF17E0A0E0B1E0E0EDF3
:1000A000F3E102C005900D92A033B107D9F72CE01F
:1000B000A0E3B7E001C01D92A134B207E1F70E94AE
:1000C0003B010C94E6090C94000016B880E487B953
:1000D00080E888B986B1866886B90895E82F87B127
:1000E000807E8E2B87B986B1806C86B9349BFECF1B
:1000F000349A87E08A95F1F700C084B125B190E089
:10010000922BF0E0EE0FFF1FEF5CF84F918380839E
:1001100008951F920F920FB60F9211242F933F93C1
:100120004F935F936F937F938F939F93AF93BF93FF
:10013000EF93FF93CF93DF93CDB7DEB72A97DEBF60
:10014000CDBF8AEE91E00E94A30884E292E00E9473
:10015000A30864B185B170E0782BE0913007F0E03E
:10016000EE0FFF1FEF5CF84F71836083CE010196A5
:100170002AE0FC0111922A95E9F74AE00E94B109B0
:100180000E94A30880913007863071F0873019F003
:100190008530D9F412C080913F0790914007909329
:1001A0003E0B80933D0B11C080913D0790913E071F
:1001B00090933C0B80933B0B08C080913B07909140
:1001C0003C079093400B80933F0B2A960FB6F89410
:1001D000DEBF0FBECDBFDF91CF91FF91EF91BF91F9
:1001E000AF919F918F917F916F915F914F913F91CF
:1001F0002F910F900FBE0F901F9018958AEE91E0EF
:100200000E94A30882E392E00E94A30887E00E9474
:100210006E0090933E0B80933D0B08958AEE91E023
:100220000E94A30882E592E00E94A30886E00E9453
:100230006E0090933C0B80933B0B08958AEE91E007
:100240000E94A30881E792E00E94A30885E00E9433
:100250006E009093400B80933F0B0895F8940E949A
:100260000A080E94EF070E947F080E948A080E94E5
:100270006500789408950E942E010E9406060E944F
:10028000FC06CAE0DCE00F2EF4E3EF2EFBE0FF2ECD
:10029000F02D11E08DA9882329F01DAA8AE892E0AB
:1002A0000E94A3088CA9882349F00E94D4081CAAA4
:1002B0008CE992E00E94A3080E9406060E94EA06CA
:1002C000892B19F4F701108302C00E94F0060E94E6
:1002D000FC06FFEF2FE783E4F15020408040E1F778
:1002E00000C00000D7CF8AEE91E00E94A3088DEAFB
:1002F00092E00E94A30820913009E0912F09822FFB
:1003000090E08E1B91090F9731F089EC92E00E94EA
:10031000A30880E00895F0E030E0E217F30758F416
:10032000EE5DF74FA0E2BCE02E5D374F81918D93DB
:10033000E217F307D9F78CEE92E00E94A30880E25F
:100340009CE00E94A30882EC93E00E94A30881E055
:100350000895CF93DF9300D000D01F92CDB7DEB7C2
:1003600085E0E2E7F3E0DE01119601900D928A95B7
:10037000E1F78AEE91E00E94A30880E093E00E94FA
:10038000A308BE016F5F7F4F82E298E00E94970949
:10039000892B09F43FC06091230981E0860F3091D9
:1003A0002109831770F13CC0482F50E0FA01EE5D3F
:1003B000F74F90819D3011F40BC020E0E22FF0E068
:1003C000E65FF34F96832F5F8F5F831768F328C034
:1003D000461B51094031510531F08CE193E00E94F8
:1003E000A30880E01DC080E493E00E94A30880E1A0
:1003F0009CE00E94A30882EC93E00E94A30881E0A5
:100400000FC0482F50E0FA01EE5DF74F90819D300C
:10041000A1F6DECF85E593E00E94A30880E000C04E
:100420000F900F900F900F900F90DF91CF91089544
:10043000CF93DF9300D000D000D0CDB7DEB786E0F9
:10044000E6ECF3E0DE01119601900D928A95E1F75A
:100450008AEE91E00E94A30887E793E00E94A30838
:10046000BE016F5F7F4F82E298E00E949709892B5F
:1004700089F1809123098F5F30912109831710F151
:100480002FC0E82FF0E0EE5DF74F90819D3011F422
:100490000BC020E0E22FF0E0E65FF34F90832F5F88
:1004A0008F5F831770F31CC083E993E00E94A30859
:1004B0008AE09CE00E94A30882EC93E00E94A308DB
:1004C00081E00EC0E82FF0E0EE5DF74F90819D30A7
:1004D00001F7EACF88EA93E00E94A30880E000C019
:1004E00026960FB6F894DEBF0FBECDBFDF91CF9139
:1004F0000895CF93DF9300D000D0CDB7DEB783E46B
:1005000093E59A83898381E590E09C838B838AEECF
:1005100091E00E94A3088CEC93E00E94A308BE0126
:100520006F5F7F4F82E298E00E949709892B99F1D3
:10053000809123098F5F30912109831720F180E09A
:100540002FC0E82FF0E0EE5DF74F90819C3211F460
:100550000CC020E0E22FF0E0E65FF34F93832F5FC3
:100560008F5F831770F380E01BC087EE93E00E94DB
:10057000A3088DE09CE00E94A30882EC93E00E9417
:10058000A30881E00DC0E82FF0E0EE5DF74F908109
:100590009C32F9F6EACF8BEF93E00E94A30880E04B
:1005A0000F900F900F900F90DF91CF9108950F93C0
:1005B0001F93CF93DF9300D000D000D0CDB7DEB72C
:1005C00086E0E5E8F4E0DE01119601900D928A954F
:1005D000E1F78AEE91E00E94A30887E194E00E948F
:1005E000A308BE016F5F7F4F82E298E00E949709E7
:1005F000892BB9F18091250990E02091230930E001
:10060000AC01421B530B4230510589F5FC01EE5DF4
:10061000F74F8181813331F082E394E00E94A30897
:1006200080E026C00AE01CE0F901EE5DF74F818111
:10063000F80187A381E380A785E594E00E94A308E1
:10064000F80187A10E949F088CE20E949F08F80190
:1006500080A50E949F0882EC93E00E94A30881E09D
:1006600007C089E694E00E94A30880E001C080E012
:1006700026960FB6F894DEBF0FBECDBFDF91CF91A7
:100680001F910F9108950F931F93CF93DF9300D085
:1006900000D000D0CDB7DEB786E0EDEFF4E0DE01AC
:1006A000119601900D928A95E1F78AEE91E00E94F1
:1006B000A3088BE894E00E94A308BE016F5F7F4F00
:1006C00082E298E00E949709892B11F1E0912309B9
:1006D000F0E0EE5DF74F8181813311F0813091F4CC
:1006E0000AE01CE0F80186A381EB94E00E94A308D5
:1006F000F80186A10E949F0882EC93E00E94A30863
:1007000081E013C080ED94E00E94A30880E00DC05A
:1007100081EB94E00E94A30887EF94E00E94A30875
:1007200082EC93E00E94A30880E026960FB6F8942E
:10073000DEBF0FBECDBFDF91CF911F910F91089506
:10074000CF93DF9300D000D01F92CDB7DEB785E006
:10075000E1E5F5E0DE01119601900D928A95E1F751
:100760008AEE91E00E94A30883E095E00E94A3082E
:10077000BE016F5F7F4F82E298E00E949709892B4C
:1007800009F469C080912409823031F08FE195E04D
:100790000E94A30880E066C02091250930E0809186
:1007A000230990E0A901481B590B4230510509F07B
:1007B00058C0A09126094A2F50E0BA01621B730B62
:1007C0006230710509F041C0FC01EE5DF74F818197
:1007D0008093330CCA0101964091210950E084179F
:1007E000950740F180E03EC08D918D3071F0E92F8A
:1007F000F0E0E65FF34F82A79F5F9D0122523840F1
:100800002417350788F380E02DC08CE395E00E9423
:10081000A3088091330C0E949F088CE20E949F08DD
:1008200084E39CE00E94A30882EC93E00E94A3086A
:1008300081E018C0FC01EE5DF74F80818D3029F317
:10084000B0E0AC5DB74F90E0D2CF8FE195E00E9471
:10085000A30880E007C08FE195E00E94A30880E034
:1008600001C080E00F900F900F900F900F90DF91DC
:10087000CF91089561E47BE082E298E00E949009C4
:100880000E94D408E2E2F8E001900020E9F73197F5
:10089000E252F840E093210986E595E00E94A30822
:1008A0006BEC76E082E298E00E949709892B21F0B8
:1008B0000E94D40881E0089565EC76E082E298E039
:1008C0000E949709892B21F40E94D40880E00895A2
:1008D00080E00895CF93C82F61E47BE082E298E046
:1008E0000E9490090E94D408E2E2F8E00190002002
:1008F000E9F73197E252F840E093210985E795E066
:100900000E94A3086BEC76E082E298E00E949709CF
:10091000892BD1F14091210950E041155105B1F1E8
:1009200070912F0980E090E0FC01EE5DF74F20818F
:100930002D3011F57723A1F070932F0980933009A2
:100940008C2F90E0FC01EE0FFF1FE80FF91FEE0F58
:10095000FF1FE050FF4F0480F581E02D099517C07F
:100960009C012F5F3F4FF901EE5DF74F60816A30C8
:1009700019F471E0720FC901019684179507A0F26E
:1009800070932F0980E003C080E001C080E0CF9128
:100990000895CF93C82F61E47BE082E298E00E9443
:1009A00090090E94D40882E298E00E94A308109265
:1009B00024096BEC76E082E298E00E949709892B8B
:1009C00009F451C06BE270E082E298E00E94850970
:1009D000892B09F44AC06AE370E082E298E00E9441
:1009E0008509892B09F443C0E2E2F8E00190002078
:1009F000E9F73197E252F8402E2FE0932109EE23D8
:100A000011F14091220950912309E2E2F8E030E02F
:100A100080E091919B3259F09A3359F09C3251F415
:100A2000A32FB0E0AB5DB64F8C933F5F03C0482F60
:100A300001C0582F8F5F2813ECCF409322095093A9
:100A40002309309324098C2F90E0FC01EE0FFF1F47
:100A5000E80FF91FEE0FFF1FE050FF4F0480F581F4
:100A6000E02D099505C080E003C080E001C080E072
:100A7000CF91089581EE91E00E94C9080895EF9208
:100A8000FF920F931F93CF93DF93CDB7DEB7E1971C
:100A90000FB6F894DEBF0FBECDBF8AEE91E00E9484
:100AA000A30885E995E00E94A3088E010F5F1F4F00
:100AB0008EE1F80111928A95E9F783E1E8E1F6E029
:100AC000DE015F9601900D928A95E1F7BE01615EAD
:100AD0007F4FC8010E947A090F2EF4EBEF2EF1E050
:100AE000FF2EF02DF70162817381C8010E947A09FF
:100AF0006CE270E0C8010E947A09F701668170E03B
:100B0000C8010E947A09F80101900020E9F73197A5
:100B10008DE09AE09183808312820E94D408C801FC
:100B20000E94C90885EB95E00E94A308C8010E94B5
:100B3000A30883EC93E00E94A30861E47BE082E2D7
:100B400098E00E949009E1E4FBE001900020E9F7C1
:100B500031978F0101541B40009321096BEC76E023
:100B600082E298E00E949709892BE9F1A8015527B4
:100B700041155105F1F170912F0980E090E0FC01E1
:100B8000EE5DF74F20812D3039F57723C9F0709352
:100B90002F0904EB11E0E72FF0E0EE5DF74F8081C5
:100BA000F801878386ED95E00E94A308F80187810C
:100BB0000E949F0883EC93E00E94A30881E019C083
:100BC0009C012F5F3F4FF901EE5DF74F60816A3066
:100BD00019F471E0720FC90101968417950778F234
:100BE00070932F0906C083EF95E00E94A30885E665
:100BF00000C0E1960FB6F894DEBF0FBECDBFDF9107
:100C0000CF911F910F91FF90EF900895AF92BF92F7
:100C1000CF92DF92EF92FF920F931F93CF93DF93C8
:100C20000F2EF0E0EF2EF1E0FF2EF02D10E00F2E52
:100C3000F2E2AF2EF8E0BF2EF02D0F2EFFE0CF2E08
:100C4000DD24D394F02DE7018A819B810E94C9089D
:100C50002FEF8FEB96E0215080409040E1F700C0ED
:100C600000008881823029F1833009F452C081303C
:100C700009F073C00E943A048130B1F46EC08A81D9
:100C80009B810E94C908FFEF2FEB86E0F1502040C6
:100C90008040E1F700C000000E943A04813009F46E
:100CA0005CC0015011F459C00EE18981813039F3E3
:100CB00054C0812F0E94C904813029F1F501C60179
:100CC00011920197E9F789818130E9F40EE18A8177
:100CD0009B810E94C9089FEFEFEBF6E09150E04046
:100CE000F040E1F700C00000812F0E94C90481306C
:100CF00051F0F501C60111920197E9F7015019F081
:100D00008981813021F3F501C60111920197E9F73C
:100D100024C0812F0E946A048130B1F419C08A81F5
:100D20009B810E94C9089FEFEFEBF6E09150E040F5
:100D3000F040E1F700C00000812F0E946A0481307A
:100D400039F0015011F404C00EE18981813039F38A
:100D5000F501C60111920197E9F71F5F96E0E90ED0
:100D6000F11C1A3009F06FCF0E943F058093400CB0
:100D7000853629F584ED91E00E94C908EFEFFFEB7D
:100D800026E0E150F0402040E1F700C000008BE297
:100D900096E00E94A3080E943F058093400C853690
:100DA00041F08FE596E00E94A30881E08093400C1B
:100DB00006C087E896E00E94A3080E943A05DF91EA
:100DC000CF911F910F91FF90EF90DF90CF90BF9048
:100DD000AF90089586B386FB882780F990E0089548
:100DE00086B3082E000C990B80959095892F881F4B
:100DF0008827881F90E00895BF92CF92DF92EF92EC
:100E0000FF920F931F93CF93DF9300D000D000D0B9
:100E1000CDB7DEB70F2EFBE3CF2EFBE0DF2EF02D9C
:100E20000F2EF6E0BF2EF02DF6018B2D11928A9534
:100E3000E9F782B38F7C82BB0E94FE000E940E0104
:100E40000E941E0182B3806382BBF6018081918182
:100E50000E9442080F2EF4E3EF2EFBE0FF2EF02D50
:100E6000F70194838383F601828193810E94420873
:100E7000F701968385838E010F5F1F4FF801119252
:100E8000BA94E9F78AEE91E00E94A30882ED96E019
:100E90000E94A3088CEE96E00E94A3084AE0B801E5
:100EA000F601848195810E94B109C8010E94A308BE
:100EB00083EC93E00E94A3088AEF96E00E94A308C7
:100EC0004AE0B801F701838194810E94B109C80109
:100ED0000E94A30883EC93E00E94A3088AE097E0B5
:100EE0000E94A3084AE0B801F701858196810E941B
:100EF000B109C8010E94A30883EC93E00E94A308F3
:100F000026960FB6F894DEBF0FBECDBFDF91CF910E
:100F10001F910F91FF90EF90DF90CF90BF900895B9
:100F2000D89AD99A85E28A95F1F7D89885E28A9578
:100F3000F1F7D99885E28A95F1F70895D898D99A6A
:100F400085E28A95F1F7D89A85E28A95F1F7D998E2
:100F500085E28A95F1F70895D898D99824E02A95E2
:100F6000F1F798E0D99880FF02C0D89A01C0D898CC
:100F700024E02A95F1F7D99A8695915099F7D99856
:100F8000D8980895CF93DF93D82FD89AD99A0E94F2
:100F9000900784E08A95F1F780EC0E94AC07C2E1EB
:100FA000D89AD99ADD2321F08FEF0E94AC0703C0B5
:100FB00080E00E94AC07C15099F70E949E07DF9124
:100FC000CF910895D89AD99A0E94900784E08A9583
:100FD000F1F787E30E94AC070E949E0708950E94E4
:100FE000E2072FEF8FEB96E0215080409040E1F731
:100FF00000C0000081E00E94C2072FEF8FEB91E25A
:10100000215080409040E1F700C0000080E00E9445
:10101000C20708958AB38F608ABBE2E6F0E0808160
:101020008F718083E1E6F0E080818F71808381B3EE
:10103000806381BB82B3806382BB119A109883B1B5
:1010400083B98B9A8A9882B382BBA09AA89AB89ADD
:10105000C098129A1A9A8AB383608ABB8BB3836052
:101060008BBB82B1806C82B983B18F7383B9BA9A1A
:10107000C29887B38F7387BB88B3806C88BB8E9808
:10108000969A08959C0180E094E0821B930B43E0C4
:10109000E0E0F0E0B9010E945709DC01AA0FBB1F94
:1010A000880F991F880F991F880F991F8A0F9B1F00
:1010B000DF01AA0FBB1FEE0FFF1FEE0FFF1FEE0F8A
:1010C000FF1FEA0FFB1FE60FF71F415019F789EFCB
:1010D00096E0E89F9001E99F300DF89F300D1124B4
:1010E0003695279536952795ABE7B4E10E946B09B5
:1010F000969587959695879596958795089586E018
:101100008093950087E489B9109290008AB188692C
:101110008AB90895EDE9F0E08081866080838FE8E8
:101120008093990010929800EBE9F0E08081826052
:101130008083EAE9F0E080818869808308955D9B7F
:10114000FECF8CB90895CF93DF93EC01888188237B
:1011500031F021960E949F0889918111FBCFDF9188
:10116000CF910895EBE9F0E0908195FFFDCF80935A
:101170009C000895CF93DF93EC018881882331F0A0
:1011800021960E94B20889918111FBCFDF91CF9106
:101190000895CF93DF93EC010E94A308CE010E9433
:1011A000BA08DF91CF91089589ECE1E4FBE0DF011B
:1011B0001D928A95E9F708951F920F920FB60F922C
:1011C00011248F939F93EF93FF9380914107883C65
:1011D00010F0109241075F9BFECF809141079CB1B8
:1011E000E82FF0E0EE5BF84F90838F5F809341072C
:1011F000FF91EF919F918F910F900FBE0F901F90D5
:1012000018951F920F920FB60F9211242F933F93B0
:101210004F935F936F937F938F939F93AF93BF93FE
:10122000EF93FF938091090C883C10F01092090C09
:10123000EBE9F0E080818823ECF7A9E0BCE08C9139
:1012400090919C00E82FF0E0EF5BF44F90838F5F6C
:101250008C938A30B8F06CE177E081E49BE00E94E7
:101260009709892B21F081E080933F0C0BC065E248
:1012700077E081E49BE00E949709892B19F081E0D7
:1012800080933E0C95B381E0892785BBFF91EF9158
:10129000BF91AF919F918F917F916F915F914F918E
:1012A0003F912F910F900FBE0F901F901895AA1B82
:1012B000BB1B51E107C0AA1FBB1FA617B70710F041
:1012C000A61BB70B881F991F5A95A9F78095909573
:1012D000BC01CD010895A29FB001B39FC001A39F9F
:1012E000700D811D1124911DB29F700D811D11245F
:1012F000911D0895FB01DC010D900020E9F7119785
:1013000001900D920020E1F70895FC01819186176C
:1013100021F08823D9F7992708953197CF010895AF
:10132000FB01DC0101900D920020E1F70895FB0123
:1013300051915523A9F0BF01DC014D914517411191
:10134000E1F759F4CD010190002049F04D9140158D
:101350004111C9F3FB014111EFCF81E090E001970A
:101360000895BB274A3031F4992322F4BDE29095C9
:1013700081959F4F0C94BD09BB27FB015527AA27D8
:10138000880F991FAA1FA41710F0A41B8395505112
:10139000B9F7A05DAA3308F0A95DA193009779F78A
:1013A000B111B1931192CB010C94D609DC01FC016F
:1013B000672F71917723E1F7329704C07C916D9389
:1013C00070836291AE17BF07C8F30895F894FFCFFA
:1013D0000101AF0100000100A3010000020197011B
:1013E000180202018B01A9010300810173010101AF
:1013F0007401000002016801430302005F017902E9
:1014000002005401A00302014801D70200000000BD
:10141000000000000000000041542B4345524547A6
:101420003F0D0A0041542B434F50533F0D0A0041DA
:10143000542B4353510D0A0041542B4347415454FC
:101440003F0D0A0041542B43474154543D310D0A8E
:101450000041542B43494D490D0A0041542B434749
:10146000534E3D310D0A0041542B4E42414E443FF4
:101470000D0A0041542B434D45453D300D0A0041B6
:10148000540D0A00C601BC01C101010033313030E6
:101490000033303030003131392E32332E32352E98
:1014A0003139350041542B4E534F434C3D300D0ADA
:1014B0000041542B4E52420D0A002D2D2D2D2D2D65
:1014C0002D2D2D2D2D2D2D2D2D2D2D2D2D2D2D2D4C
:1014D0002D2D2D2D2D2D2D2D2D2D2D2D2D2D2D2D3C
:1014E0000D0A00616463207374617274202E2E2EC5
:1014F000200D0A00616463206F6B202E2E2E200DBC
:101500000A00737461727420676574207075726567
:1015100020776174657220746473202E2E2E200D46
:101520000A00737461727420676574207261772099
:10153000776174657220746473202E2E2E200D0A3C
:1015400000737461727420676574206C65616B61EF
:101550006765202E2E2E200D0A00626339355F68E4
:101560006176655F726563656976650062633935CA
:101570005F686176655F7265626F6F740062633980
:10158000352067657420696D7369206973207275F1
:101590006E202E2E2E200D0A0062633935206765DD
:1015A0007420696D7369202D2D2D3E204E554D42BE
:1015B0004552204552524F52200D0A006263393580
:1015C0002067657420696D7369202D2D2D3E2000E4
:1015D000626339352067657420696D6569206973B8
:1015E0002072756E202E2E2E200D0A006263393572
:1015F0002067657420696D6569202D2D2D2D3E2095
:101600004E554D424552204552524F52200D0A0030
:10161000626339352067657420696D6569202D2DF9
:101620002D2D3E2000626339352067657420696D79
:101630006569202D2D2D2D3E204552524F52200DF3
:101640000A004347534E00626339352067657420B2
:1016500062616E642069732072756E202E2E2E20BA
:101660000D0A0062633935206765742062616E641B
:10167000202D2D2D2D3E20006263393520676574A5
:101680002062616E64202D2D2D2D3E204552524F3B
:101690005220200D0A004E42414E4400626339350B
:1016A00020676574206373712069732072756E20E2
:1016B0002E2E2E200D0A00626339352067657420B6
:1016C000637371202D2D2D2D3E200062633935204E
:1016D00067657420637371202D2D2D2D3E2045529A
:1016E000524F52200D0A006263393520676574201D
:1016F0006570732069732072756E202E2E2E200D5A
:101700000A00626339352067657420657073202D87
:101710002D2D2D3E204E554D424552204552524FC3
:1017200052200D0A006263393520676574206570A8
:1017300073202D2D2D2D3E200062633935206765E5
:101740007420657073202D2D2D2D3E204552524F53
:1017500052200D0A00434552454700626339352047
:101760006765742070726F66696C6520737461744C
:1017700075732069732072756E202E2E2E200D0A2F
:101780000062633935206765742070726F66696C1A
:101790006520737461747573202D2D2D2D3E2000EE
:1017A00062633935206765742070726F66696C6595
:1017B00020737461747573202D2D2D2D3E2045529C
:1017C000524F52200D0A004552524F52004347419A
:1017D000545400626339352067657420706C6D6EF7
:1017E0002069732072756E202E2E2E200D0A006245
:1017F0006339352067657420706C6D6E202D2D2D3A
:101800002D3E204552524F52200D0A006263393559
:101810002067657420706C6D6E202D2D2D2D3E205F
:1018200000434F5053006263393520736574207054
:10183000726F636573732069732072756E202E2E2C
:101840002E200D0A006263393520696E666F2070A4
:10185000726F636573732069732072756E202E2E0C
:101860002E200D0A00626339352073746172742072
:1018700063726561746520736F636B6574202E2ECF
:101880002E200D0A0062633935206372656174652C
:1018900020736F636B657420636F6D6D616E642080
:1018A0002D2D2D3E2000626339352067657420732D
:1018B0006F636B6574206E756D626572202D2D2DC2
:1018C0003E2000626339352067657420736F636B57
:1018D0006574206E756D626572202D2D2D3E20453C
:1018E00052524F52200D0A0041542B4E534F435237
:1018F0003D444752414D2C31372C0062633935202D
:10190000736F636B657420637265617465206572C3
:10191000726F722074727920746F20636C6F7365BC
:1019200020736F636B6574202E2E2E200D0A0062CB
:1019300063393520736F636B65742074727920721C
:1019400065636F6E6E65637420737563636573732F
:10195000202E2E2E0D0A0062633935207265626FCB
:101960006F74696E67202E2E2E200D0A0062633977
:10197000352073746172742073656E6420736F63B5
:101980006B6574202E2E2E200D0A0041542B4E53D1
:101990004F53543D004552524F52000D0A4F4B0DCC
:1019A0000A0067657420616C6C2061646320697350
:1019B0002072756E202E2E2E200D0A006C65616B34
:1019C000616765202D2D2D3E20007261775F776164
:1019D000746572202D2D2D3E2000707572655F7725
:1019E0006172746572202D2D2D3E20002B4E534FB9
:1019F0004E4D493A005245424F4F545F43415500C6
:00000001FF
