S01300004E422D494F545F746573742E7372656349
S11300000C9446000C9463000C9463000C946300FD
S11300100C9463000C9463000C9463000C946300D0
S11300200C9463000C9463000C9463000C946300C0
S11300300C9463000C9463000C9463000C946300B0
S11300400C9463000C9463000C9453070C946300A9
S11300500C9463000C9465000C9463000C9463008E
S11300600C9463000C9463000C9463000C94630080
S11300700C9463000C9463000C9478070C94630054
S11300800C9463000C9463000C94630011241FBE51
S1130090CFEFD0E1DEBFCDBF13E0A0E0B1E0E4ECF0
S11300A0FFE002C005900D92A83DB107D9F728E002
S11300B0A8EDB3E001C01D92AF3CB207E1F70E9486
S11300C093000C94E0070C9400001F920F920FB65B
S11300D00F9211242F938F939F93EF93FF9384B1E7
S11300E025B1E091D803F0E0EE0FFF1FE752FC4F7B
S11300F090E0922B91838083FF91EF919F918F9158
S11301002F910F900FBE0F901F901895F8940E9496
S1130110CB060E9426050E94FB060E9406070E9449
S1130120CC03789408950E9486008FEF90E00E949B
S1130130AE06FFCF80E0089580E008958EEB91E055
S11301400E941A072091A106E091A006822F90E058
S11301508E1B91090F9771F08AED91E00E941A07A6
S11301608EEE91E00E941A0789E492E00E941A0739
S113017080E00895F0E030E0E217F30758F4ED561C
S1130180FA4FAEEBB8E02D563A4F81918D93E217BA
S1130190F307D9F78AED91E00E941A078EEB98E0F5
S11301A00E941A0789E492E00E941A0781E00895E8
S11301B0CF93DF9300D000D01F92CDB7DEB785E098
S11301C0ECE2F2E0DE01119601900D928A95E1F7DE
S11301D08BEF91E00E941A07BE016F5F7F4F83E9A6
S11301E095E00E94C607892B09F447C060919406E4
S11301F081E0860F309192068317B0F14CC0482FEE
S113020050E0FA01ED56FA4F90819D3011F40BC085
S113021020E0E22FF0E0E855F74F96832F5F8F5FE1
S1130220831768F338C0461B51094031510571F0FA
S113023087E192E00E941A078EEE91E00E941A076D
S113024089E492E00E941A0780E025C087E192E0E9
S11302500E941A078EEA98E00E941A0789E492E045
S11302600E941A0781E017C0482F50E0FA01ED56AA
S1130270FA4F90819D3061F6D6CF87E192E00E94DB
S11302801A0785EF91E00E941A0789E492E00E9420
S11302901A0780E000C00F900F900F900F900F90FE
S11302A0DF91CF910895CF93DF9300D000D000D099
S11302B0CDB7DEB786E0E2E6F2E0DE01119601900A
S11302C00D928A95E1F781E392E00E941A07BE013C
S11302D06F5F7F4F83E995E00E94C607892B89F100
S11302E0809194068F5F30919206831710F137C086
S11302F0E82FF0E0ED56FA4F90819D3011F40BC0D9
S113030020E0E22FF0E0E855F74F90832F5F8F5FF6
S1130310831770F324C08DE492E00E941A0788EAE0
S113032098E00E941A0789E492E00E941A0781E08B
S113033016C0E82FF0E0ED56FA4F90819D3001F79A
S1130340EACF8DE492E00E941A0785EF91E00E94C3
S11303501A0789E492E00E941A0780E000C02696FA
S11303600FB6F894DEBF0FBECDBFDF91CF910895D5
S1130370CF92DF92EF92FF920F931F93CF93DF936D
S113038000D000D0CDB7DEB783E493E59A838983A8
S113039081E590E09C838B8388E692E00E941A07B3
S11303A0BE016F5F7F4F83E995E00E94C607892BEA
S11303B0A1F1F0909406F39480919206F816D8F582
S11303C0E12C0F2EF2E9CF2EF6E0DF2EF02D0F2DCB
S11303D010E0C8010E941A07F801ED56FA4F808117
S11303E08C3269F0EE2DF0E0E855F74F8383E39407
S11303F0F394F6018081F81650F380E01DC083E881
S113040092E00E941A078BEA98E00E941A0789E496
S113041092E00E941A0781E00FC083E892E00E94F4
S11304201A0785EF91E00E941A0789E492E00E947E
S11304301A0780E001C080E00F900F900F900F909A
S1130440DF91CF911F910F91FF90EF90DF90CF90AC
S113045008950F931F93CF93DF9300D000D000D063
S1130460CDB7DEB786E0ECEDF2E0DE011196019047
S11304700D928A95E1F787E992E00E941A07BE017E
S11304806F5F7F4F83E995E00E94C607892B79F15E
S1130490E0919406F0E0ED56FA4F8181813311F03A
S11304A08130B9F408EA18E0F80186A38DEB92E0F4
S11304B00E941A07F80186A10E941607F80186A176
S11304C090E00E94EA0589E492E00E941A0781E024
S11304D01BC08DEB92E00E941A0785EF91E00E9409
S11304E01A0789E492E00E941A0780E00DC08DEBA0
S11304F092E00E941A0785EF91E00E941A0789E4AE
S113050092E00E941A0780E026960FB6F894DEBFA8
S11305100FBECDBFDF91CF911F910F910895CF935F
S1130520DF93CDB7DEB727970FB6F894DEBF0FBEC3
S1130530CDBF82EE92E00E941A0787E0E7E4F3E081
S1130540DE01119601900D928A95E1F760ED73E05A
S1130550CE0101960E94C607892B21F00E944B0709
S113056081E00DC06AEC73E0CE0101960E94C607DB
S1130570892B21F40E944B0780E001C080E027967C
S11305800FB6F894DEBF0FBECDBFDF91CF910895B3
S11305901F93CF93DF93CDB7DEB76A970FB6F89466
S11305A0DEBF0FBECDBF182F8AE1E1E2F3E0DE012A
S11305B0119601900D928A95E1F7BE016F5F7F4F0E
S11305C083E995E00E94BF070E944B07E3E9F5E049
S11305D001900020E9F73197E359F540E093920642
S11305E081E093E00E941A0760ED73E083E995E0EF
S11305F00E94C607892BD1F14091920650E0411523
S11306005105B1F17091A00680E090E0FC01ED5637
S1130610FA4F20812D3011F57723A1F07093A006B5
S11306208093A106812F90E0FC01EE0FFF1FE80FDD
S1130630F91FEE0FFF1FE050FF4F0480F581E02DFE
S1130640099517C09C012F5F3F4FF901ED56FA4FF2
S113065060816A3019F471E0720FC9010196841740
S11306609507A0F27093A00680E003C080E001C06B
S113067080E06A960FB6F894DEBF0FBECDBFDF915F
S1130680CF911F9108951F93CF93DF93CDB7DEB71A
S113069063970FB6F894DEBF0FBECDBF182F83E16A
S11306A0EBE3F3E0DE01119601900D928A95E1F7F8
S11306B0BE016F5F7F4F83E995E00E94BF070E94F0
S11306C04B071092950660ED73E083E995E00E9474
S11306D0C607892B09F451C06BE270E083E995E009
S11306E00E94B407892B09F44AC06AE370E083E9E5
S11306F095E00E94B407892B09F443C0E3E9F5E0CF
S113070001900020E9F73197E359F5402E2FE0934B
S11307109206EE2311F14091930650919406E3E979
S1130720F5E030E080E091919B3259F09A3359F032
S11307309C3251F4A32FB0E0AA56B94F8C933F5F7B
S113074003C0482F01C0582F8F5F2813ECCF40936C
S113075093065093940630939506812F90E0FC0104
S1130760EE0FFF1FE80FF91FEE0FFF1FE050FF4FC2
S11307700480F581E02D099505C080E003C080E088
S113078001C080E063960FB6F894DEBF0FBECDBF04
S1130790DF91CF911F910895AF92BF92CF92DF92D4
S11307A0EF92FF920F931F93CF93DF930F2EF0E0FE
S11307B0EF2EF1E0FF2EF02D10E00F2EF3E9AF2E17
S11307C0F5E0BF2EF02D0F2EFFE0CF2EDD24D394C5
S11307D0F02DE7018A819B810E9440072FEF8FEB68
S11307E091E2215080409040E1F700C000008881F0
S11307F0823029F1833009F452C0813009F073C08A
S11308000E948F028130B1F46EC08A819B810E9464
S11308104007FFEF2FEB81E2F15020408040E1F7E9
S113082000C000000E948F02813009F45CC00150B6
S113083011F459C00AE08981813039F354C0812F01
S11308400E944303813029F1F501C60111920197F9
S1130850E9F789818130E9F40AE08A819B810E9469
S113086040079FEFEFEBF1E29150E040F040E1F7F9
S113087000C00000812F0E944303813051F0F50134
S1130880C60111920197E9F7015019F0898181306D
S113089021F3F501C60111920197E9F724C0812FD4
S11308A00E94C8028130B1F419C08A819B810E94E0
S11308B040079FEFEFEBF1E29150E040F040E1F7A9
S11308C000C00000812F0E94C802813039F001501D
S11308D011F404C00AE08981813039F3F501C601BD
S11308E011920197E9F71F5F96E0E90EF11C1A30A7
S11308F009F06FCFDF91CF911F910F91FF90EF908F
S1130900DF90CF90BF90AF900895D89AD99A85E29E
S11309108A95F1F7D89885E28A95F1F7D99885E216
S11309208A95F1F70895D898D99A85E28A95F1F7CE
S1130930D89A85E28A95F1F7D99885E28A95F1F7F4
S11309400895D898D99824E02A95F1F798E0D99891
S113095080FF02C0D89A01C0D89824E02A95F1F704
S1130960D99A8695915099F7D998D8980895CF93A4
S1130970DF93D82FD89AD99A0E94850484E08A9567
S1130980F1F780EC0E94A104C2E1D89AD99ADD2340
S113099021F08FEF0E94A10403C080E00E94A10413
S11309A0C15099F70E949304DF91CF910895D89A8A
S11309B0D99A0E94850484E08A95F1F787E30E941E
S11309C0A1040E9493040895CF93DF93D82FC62FD8
S11309D0D89AD99A0E9485048FEF9BE60197F1F784
S11309E000C0000080EC8D0F0E94A104D89AD99A0F
S11309F08FEF9BE60197F1F700C000008C2F0E9457
S1130A00A1040E949304DF91CF910895EF92FF9285
S1130A101F93CF93DF939FEF960F662389F0EA012C
S1130A20E92EF12C9FEFE91AF90AE40EF51E6991FB
S1130A3011E0180F0E94E404812FCE15DF05B9F7E9
S1130A40DF91CF911F91FF90EF9008950E94D704FA
S1130A502FEF8FEB96E0215080409040E1F700C0EB
S1130A60000081E00E94B7042FEF8FEB91E2215048
S1130A7080409040E1F700C0000080E00E94B7048D
S1130A800895EF92FF921F93CF93DF937C01EB01C4
S1130A909C01ADECBCEC0E94A507AC0156954795B2
S1130AA056954795569547959A01220F331FCA01CB
S1130AB0880F991F880F991F880F991F820F931F02
S1130AC0F701E81BF90BEC54FE4F108118839A01CF
S1130AD00E94A507969587959695879596958795EF
S1130AE09C01220F331F880F991F880F991F880FAD
S1130AF0991F820F931F481B590BFA01EC54FE4FA8
S1130B008081898397013695279536952795ABE79C
S1130B10B4E10E94A507AC01569547959A01ADEC46
S1130B20BCEC0E94A5079695879596958795969512
S1130B3087959C01220F331F880F991F880F991FD7
S1130B40880F991F820F931F481B590BFA01EC540D
S1130B50FE4F80818A839701369527953695279590
S1130B6036952795A5ECB0E20E94A507AC015295F5
S1130B7042954F7045275F7045279A01ADECBCEC58
S1130B800E94A5079695879596958795969587953E
S1130B909C01220F331F880F991F880F991F880FFC
S1130BA0991F820F931F481B590BFA01EC54FE4FF7
S1130BB0808180618B838091A508813019F4106154
S1130BC0188302C01F7E1883DF91CF911F91FF907D
S1130BD0EF900895CF93DF9300D000D0CDB7DEB768
S1130BE019821A821B821C82BE016F5F7F4F0E9492
S1130BF04105AE014F5F5F4F64E08EE00E94060541
S1130C000F900F900F900F90DF91CF9108950F9355
S1130C101F93CF93DF938C01EB019C01ADECBCECF3
S1130C200E94A507AC01569547955695479556954C
S1130C3047959A01220F331FCA01880F991F880F05
S1130C40991F880F991F820F931FF801E81BF90B56
S1130C50EC54FE4F8081806188839A010E94A5072D
S1130C609695879596958795969587959C01220FDD
S1130C70331F880F991F880F991F880F991F820FA0
S1130C80931F481B590BFA01EC54FE4F8081898352
S1130C9098013695279536952795ABE7B4E10E94E0
S1130CA0A507AC01569547959A01ADECBCEC0E94A2
S1130CB0A5079695879596958795969587959C0112
S1130CC0220F331F880F991F880F991F880F991FB0
S1130CD0820F931F481B590BFA01EC54FE4F80817D
S1130CE08A839801369527953695279536952795C5
S1130CF0A5ECB0E20E94A507AC01529542954F7055
S1130D0045275F7045279A01ADECBCEC0E94A5070E
S1130D109695879596958795969587959C01220F2C
S1130D20331F880F991F880F991F880F991F820FEF
S1130D30931F481B590BFA01EC54FE4F80818B839F
S1130D409091A708992319F080618B8302C08F7E4C
S1130D508B83DF91CF911F910F910895CF93DF93F0
S1130D6000D000D0CDB7DEB719821A821B821C8254
S1130D70BE016F5F7F4F0E940706AE014F5F5F4F5A
S1130D8064E08AE00E9406050F900F900F900F9088
S1130D90DF91CF9108958AB38F608ABBE2E6F0E0D9
S1130DA080818F718083E1E6F0E080818F718083A0
S1130DB0119A109883B183B98B9A8A9882B382BBB3
S1130DC0A09AA89AB89AC098129A1A9A8AB3836079
S1130DD08ABB8BB383608BBB82B1806C82B983B1D5
S1130DE08F7383B9BA9AC29887B38F7387BB88B35A
S1130DF0806C88BB089586E08093950087E489B968
S1130E00109290008AB188698AB90895EDE9F0E0FA
S1130E1080818660808387E4809399001092980093
S1130E20EAE9F0E080818869808308955D9BFECFC4
S1130E308CB90895CF93DF93EC018881882331F036
S1130E4021960E94160789918111FBCFDF91CF91E2
S1130E500895EBE9F0E0908195FFFDCF80939C002D
S1130E600895CF93DF93EC018881882331F0219694
S1130E700E94290789918111FBCFDF91CF910895B9
S1130E80CF93DF93EC010E941A07CE010E94310731
S1130E90DF91CF91089588ECEAEEF3E0DF011D9233
S1130EA08A95E9F708951F920F920FB60F921124B5
S1130EB08F939F93EF93FF938091B204883C10F03B
S1130EC01092B2045F9BFECF8091B2049CB1E82FD4
S1130ED0F0E0ED54FB4F90838F5F8093B204FF9159
S1130EE0EF919F918F910F900FBE0F901F901895C7
S1130EF01F920F920FB60F9211248F939F93EF932B
S1130F00FF938091E903883C10F01092E903EBE928
S1130F10F0E080818823ECF78091E90390919C00B4
S1130F20E82FF0E0E651FC4F90838F5F8093E90354
S1130F3095B381E0892785BBFF91EF919F918F91B4
S1130F400F900FBE0F901F901895A29FB001B39FF2
S1130F50C001A39F700D811D1124911DB29F700DBE
S1130F60811D1124911D0895FC018191861721F0A2
S1130F708823D9F7992708953197CF010895FB0164
S1130F80DC0101900D920020E1F70895FB015191DD
S1130F905523A9F0BF01DC014D9145174111E1F73B
S1130FA059F4CD010190002049F04D9140154111B3
S1130FB0C9F3FB014111EFCF81E090E0019708955F
S1070FC0F894FFCFCF
S1130FC40101AF0100000100A30100000200970128
S1130FD4530102008B01D800030081019E0001012A
S1130FE47401000002016801290202005F01B801D2
S1130FF4020054019C00020148019A000000000010
S1131004000000000000000041542B4345524547B2
S11310143F0D0A0041542B434F50533F0D0A0041E6
S1131024542B4353510D0A0041542B434741545408
S11310343F0D0A0041542B43474154543D310D0A9A
S11310440041542B43494D490D0A0041542B434755
S1131054534E3D310D0A0041542B4E42414E443F00
S11310640D0A0041542B434D45453D300D0A0041C2
S1131074540D0A00AF066D4FC6CBEB0EEFCF62637F
S113108439352067657420696D736920697320722A
S1131094756E202E2E2E200D0A00626339352067CA
S11310A4657420696D7369202D2D2D3E20004E55E5
S11310B44D424552204552524F5200626339352005
S11310C467657420696D65692069732072756E2083
S11310D42E2E2E200D0A0062633935206765742094
S11310E4696D6569202D2D2D2D3E20004347534EF7
S11310F40062633935206765742062616E64206917
S1131104732072756E202E2E2E200D0A0062633910
S113111435206765742062616E64202D2D2D2D3E6B
S113112420004E42414E44006263393520676574A1
S1131134206373712069732072756E202E2E2E2005
S11311440D0A006263393520676574206373712066
S11311542D2D2D2D3E2000626339352067657420C2
S113116470726F66696C6520737461747573206939
S1131174732072756E202E2E2E200D0A00626339A0
S113118435206765742070726F66696C65207374AA
S113119461747573202D2D2D2D3E20004347415439
S11311A4540062633935207365742070726F63650B
S11311B473732069732072756E202E2E2E200D0AEF
S11311C4006263393520696E666F2070726F6365DF
S11311D473732069732072756E202E2E2E200D0ACF
S11311E4000D0A3436303131313137363338383042
S11311F434360D0A0D0A4F4B0D0A000D0A2B4347D2
S11312044154543A310D0A0D0A4F4B0D0A006263DE
S11312143935207374617274206372656174652056
S1131224736F636B6574202E2E2E200D0A00626387
S113123439352063726561746520736F636B6574FB
S113124420636F6D6D616E64202D2D2D3E20004151
S1131254542B4E534F43523D444752414D2C313746
S11312642C00626339352073746172742073656E63
S11312746420736F636B6574202E2E2E200D0A0078
S113128441542B4E534F53543D004552524F520038
S10B12940D0A4F4B0D0A000086
S9030000FC
